{"contracts/PaymentNFT.sol":{"PaymentNFT":{"abi":[{"inputs":[],"stateMutability":"nonpayable","type":"constructor"},{"inputs":[{"internalType":"address","name":"sender","type":"address"},{"internalType":"uint256","name":"tokenId","type":"uint256"},{"internalType":"address","name":"owner","type":"address"}],"name":"ERC721IncorrectOwner","type":"error"},{"inputs":[{"internalType":"address","name":"operator","type":"address"},{"internalType":"uint256","name":"tokenId","type":"uint256"}],"name":"ERC721InsufficientApproval","type":"error"},{"inputs":[{"internalType":"address","name":"approver","type":"address"}],"name":"ERC721InvalidApprover","type":"error"},{"inputs":[{"internalType":"address","name":"operator","type":"address"}],"name":"ERC721InvalidOperator","type":"error"},{"inputs":[{"internalType":"address","name":"owner","type":"address"}],"name":"ERC721InvalidOwner","type":"error"},{"inputs":[{"internalType":"address","name":"receiver","type":"address"}],"name":"ERC721InvalidReceiver","type":"error"},{"inputs":[{"internalType":"address","name":"sender","type":"address"}],"name":"ERC721InvalidSender","type":"error"},{"inputs":[{"internalType":"uint256","name":"tokenId","type":"uint256"}],"name":"ERC721NonexistentToken","type":"error"},{"inputs":[{"internalType":"uint256","name":"value","type":"uint256"},{"internalType":"uint256","name":"length","type":"uint256"}],"name":"StringsInsufficientHexLength","type":"error"},{"anonymous":false,"inputs":[{"indexed":true,"internalType":"address","name":"owner","type":"address"},{"indexed":true,"internalType":"address","name":"approved","type":"address"},{"indexed":true,"internalType":"uint256","name":"tokenId","type":"uint256"}],"name":"Approval","type":"event"},{"anonymous":false,"inputs":[{"indexed":true,"internalType":"address","name":"owner","type":"address"},{"indexed":true,"internalType":"address","name":"operator","type":"address"},{"indexed":false,"internalType":"bool","name":"approved","type":"bool"}],"name":"ApprovalForAll","type":"event"},{"anonymous":false,"inputs":[{"indexed":true,"internalType":"address","name":"merchant","type":"address"},{"indexed":false,"internalType":"string","name":"name","type":"string"}],"name":"MerchantRegistered","type":"event"},{"anonymous":false,"inputs":[{"indexed":true,"internalType":"address","name":"buyer","type":"address"},{"indexed":true,"internalType":"address","name":"merchant","type":"address"},{"indexed":true,"internalType":"uint256","name":"tokenId","type":"uint256"},{"indexed":false,"internalType":"uint256","name":"paymentCount","type":"uint256"},{"indexed":false,"internalType":"enum PaymentNFT.Tier","name":"tier","type":"uint8"}],"name":"PaymentMade","type":"event"},{"anonymous":false,"inputs":[{"indexed":true,"internalType":"address","name":"from","type":"address"},{"indexed":true,"internalType":"address","name":"to","type":"address"},{"indexed":true,"internalType":"uint256","name":"tokenId","type":"uint256"}],"name":"Transfer","type":"event"},{"inputs":[],"name":"PAYMENT_AMOUNT","outputs":[{"internalType":"uint256","name":"","type":"uint256"}],"stateMutability":"view","type":"function"},{"inputs":[{"internalType":"address","name":"to","type":"address"},{"internalType":"uint256","name":"tokenId","type":"uint256"}],"name":"approve","outputs":[],"stateMutability":"nonpayable","type":"function"},{"inputs":[{"internalType":"address","name":"owner","type":"address"}],"name":"balanceOf","outputs":[{"internalType":"uint256","name":"","type":"uint256"}],"stateMutability":"view","type":"function"},{"inputs":[{"internalType":"uint256","name":"tokenId","type":"uint256"}],"name":"getApproved","outputs":[{"internalType":"address","name":"","type":"address"}],"stateMutability":"view","type":"function"},{"inputs":[{"internalType":"address","name":"buyer","type":"address"},{"internalType":"address","name":"merchant","type":"address"}],"name":"getPaymentCount","outputs":[{"internalType":"uint256","name":"","type":"uint256"}],"stateMutability":"view","type":"function"},{"inputs":[{"internalType":"address","name":"buyer","type":"address"},{"internalType":"address","name":"merchant","type":"address"}],"name":"getTier","outputs":[{"internalType":"enum PaymentNFT.Tier","name":"","type":"uint8"}],"stateMutability":"view","type":"function"},{"inputs":[{"internalType":"address","name":"owner","type":"address"},{"internalType":"address","name":"operator","type":"address"}],"name":"isApprovedForAll","outputs":[{"internalType":"bool","name":"","type":"bool"}],"stateMutability":"view","type":"function"},{"inputs":[{"internalType":"address","name":"","type":"address"}],"name":"merchants","outputs":[{"internalType":"bool","name":"registered","type":"bool"},{"internalType":"string","name":"name","type":"string"}],"stateMutability":"view","type":"function"},{"inputs":[],"name":"name","outputs":[{"internalType":"string","name":"","type":"string"}],"stateMutability":"view","type":"function"},{"inputs":[{"internalType":"uint256","name":"tokenId","type":"uint256"}],"name":"ownerOf","outputs":[{"internalType":"address","name":"","type":"address"}],"stateMutability":"view","type":"function"},{"inputs":[{"internalType":"address","name":"merchant","type":"address"}],"name":"payMerchant","outputs":[],"stateMutability":"nonpayable","type":"function"},{"inputs":[{"internalType":"string","name":"name","type":"string"}],"name":"registerMerchant","outputs":[],"stateMutability":"nonpayable","type":"function"},{"inputs":[{"internalType":"address","name":"from","type":"address"},{"internalType":"address","name":"to","type":"address"},{"internalType":"uint256","name":"tokenId","type":"uint256"}],"name":"safeTransferFrom","outputs":[],"stateMutability":"nonpayable","type":"function"},{"inputs":[{"internalType":"address","name":"from","type":"address"},{"internalType":"address","name":"to","type":"address"},{"internalType":"uint256","name":"tokenId","type":"uint256"},{"internalType":"bytes","name":"data","type":"bytes"}],"name":"safeTransferFrom","outputs":[],"stateMutability":"nonpayable","type":"function"},{"inputs":[{"internalType":"address","name":"operator","type":"address"},{"internalType":"bool","name":"approved","type":"bool"}],"name":"setApprovalForAll","outputs":[],"stateMutability":"nonpayable","type":"function"},{"inputs":[{"internalType":"bytes4","name":"interfaceId","type":"bytes4"}],"name":"supportsInterface","outputs":[{"internalType":"bool","name":"","type":"bool"}],"stateMutability":"view","type":"function"},{"inputs":[],"name":"symbol","outputs":[{"internalType":"string","name":"","type":"string"}],"stateMutability":"view","type":"function"},{"inputs":[{"internalType":"uint256","name":"tokenId","type":"uint256"}],"name":"tokenURI","outputs":[{"internalType":"string","name":"","type":"string"}],"stateMutability":"view","type":"function"},{"inputs":[{"internalType":"address","name":"from","type":"address"},{"internalType":"address","name":"to","type":"address"},{"internalType":"uint256","name":"tokenId","type":"uint256"}],"name":"transferFrom","outputs":[],"stateMutability":"nonpayable","type":"function"},{"inputs":[],"name":"usdc","outputs":[{"internalType":"contract IERC20","name":"","type":"address"}],"stateMutability":"view","type":"function"}],"evm":{"bytecode":{"linkReferences":{},"object":"60a06040523461033c57604080519081016001600160401b03811182821017610252576040908152600a82526914185e5b595b9d13919560b21b602083015280519081016001600160401b038111828210176102525760405260048152631413919560e21b602082015281516001600160401b038111610252575f54600181811c91168015610332575b602082101461023457601f81116102d0575b50602092601f821160011461027157928192935f92610266575b50508160011b915f199060031b1c1916175f555b80516001600160401b03811161025257600154600181811c91168015610248575b602082101461023457601f81116101d1575b50602091601f8211600114610171579181925f92610166575b50508160011b915f199060031b1c1916176001555b733c499c542cef5e3811e1192ce70d8cc03d5c33596080526001600655604051612741908161034182396080518181816114dd0152611a8b0152f35b015190505f80610115565b601f1982169260015f52805f20915f5b8581106101b9575083600195106101a1575b505050811b0160015561012a565b01515f1960f88460031b161c191690555f8080610193565b91926020600181928685015181550194019201610181565b60015f527fb10e2d527612073b26eecdfd717e6a320cf44b4afac2b0732d9fcbe2b7fa0cf6601f830160051c8101916020841061022a575b601f0160051c01905b81811061021f57506100fc565b5f8155600101610212565b9091508190610209565b634e487b7160e01b5f52602260045260245ffd5b90607f16906100ea565b634e487b7160e01b5f52604160045260245ffd5b015190505f806100b5565b601f198216935f8052805f20915f5b8681106102b857508360019596106102a0575b505050811b015f556100c9565b01515f1960f88460031b161c191690555f8080610293565b91926020600181928685015181550194019201610280565b5f80527f290decd9548b62a8d60345a988386fc84ba6bc95484008f6362f93160ef3e563601f830160051c81019160208410610328575b601f0160051c01905b81811061031d575061009b565b5f8155600101610310565b9091508190610307565b90607f1690610089565b5f80fdfe6080806040526004361015610012575f80fd5b5f3560e01c90816301ffc9a714611ce95750806306fdde0314611c47578063081812fc14611c0b578063095ea7b314611b2157806323b872dd14611b0a57806327b47b1c14611aba5780633e413bee14611a7657806342842e0e14611a475780636352211e14611a175780636bc55ab8146119fa5780636e87a8df1461199b57806370a082311461194a5780637345b6a71461147357806395d89b4114611395578063a22cb465146112d8578063ad5d5b7c14610ffe578063b88d4fde14610f90578063c87b56dd146101b4578063e985e9c51461015d5763ee14e939146100f8575f80fd5b34610159576020366003190112610159576001600160a01b03610119611d78565b165f52600760205260405f20610136600160ff8354169201611ec7565b9061015560405192839215158352604060208401526040830190611d54565b0390f35b5f80fd5b3461015957604036600319011261015957610176611d78565b61017e611d8e565b9060018060a01b03165f52600560205260405f209060018060a01b03165f52602052602060ff60405f2054166040519015158152f35b34610159576020366003190112610159576004356101d1816120f4565b50805f52600960205260405f2090604051916101ec83611dff565b80546001600160a01b0390811684526001820154166020840190815260029091015460408401818152919061022090612128565b9261023361022d8561227e565b94612301565b82516001600160a01b03165f90815260076020526040902061025790600101611ec7565b8451969060018803610f6e57604051610271602082611e1b565b5f8152905b60409889516102858b82611e1b565b600181526020810190601f198c013683378a5115610f5a5760208b019660ff60f81b8851165f1a825115610f5a578c948e9185536102c290612389565b81517f3c73766720786d6c6e733d22687474703a2f2f7777772e77332e6f72672f32306020808301919091527f30302f737667222076696577426f783d22302030203330302033303022207769828501527f6474683d2233303022206865696768743d22333030223e0000000000000000006060830152651e3232b3399f60d11b60778301527f3c72616469616c4772616469656e742069643d226267222063783d2235302522607d830152711031bc9e911a98129110391e911b9812911f60711b609d8301527f3c73746f70206f66667365743d223025222073746f702d636f6c6f723d22233160af830152673098b0993291179f60c11b60cf8301527f3c73746f70206f66667365743d2231303025222073746f702d636f6c6f723d2260d783015269119833183318b091179f60b11b60f7830152701e17b930b234b0b623b930b234b2b73a1f60791b6101018301527f3c72616469616c4772616469656e742069643d22676c6f77222063783d2235306101128301527312911031bc9e911a98129110391e911a9812911f60611b6101328301527f3c73746f70206f66667365743d223025222073746f702d636f6c6f723d220000610146830152845192999197889791860196929390929080886101648b015e880161016481017f222073746f702d6f7061636974793d22302e3335222f3e000000000000000000905261017b81017f3c73746f70206f66667365743d2231303025222073746f702d636f6c6f723d229052865190818961019b83015e73111039ba37b816b7b830b1b4ba3c9e911811179f60611b61019b9290910191820152701e17b930b234b0b623b930b234b2b73a1f60791b6101af820152661e17b232b3399f60c91b6101c08201527f3c726563742077696474683d2233303022206865696768743d223330302220726101c78201527f783d223138222072793d223138222066696c6c3d2275726c2823626729222f3e6101e78201527f3c656c6c697073652063783d22313530222063793d22313135222072783d22396102078201527f30222072793d223930222066696c6c3d2275726c2823676c6f7729222f3e00006102278201527f3c636972636c652063783d22313530222063793d223131352220723d2237322261024582015274103334b6361e913737b732911039ba3937b5b29e9160591b61026582015286519061016481019082908a9061027a015e0160370160df81017f22207374726f6b652d77696474683d223222206f7061636974793d22302e3522905260ff810161179f60f11b905261010181017f3c636972636c652063783d22313530222063793d223131352220723d22353822905266103334b6361e9160c91b610121820152865190818961012883015e0160df0171111037b830b1b4ba3c9e911817189911179f60711b6049820152605b81017f3c636972636c652063783d22313530222063793d223131352220723d22353022905266103334b6361e9160c91b607b8201528651908189608283015e0160490171111037b830b1b4ba3c9e911817191a91179f60711b6039820152604b81017f3c636972636c652063783d22313530222063793d223131352220723d22343422905266103334b6361e9160c91b606b8201528651908189607283015e6211179f60e91b607292909101918201527f3c7465787420783d223135302220793d223132382220666f6e742d66616d696c60758201527f793d2247656f726769612c73657269662220666f6e742d73697a653d223430226095820152730103337b73a16bbb2b4b3b43a1e913137b63211160651b60b58201527f66696c6c3d22233161316132652220746578742d616e63686f723d226d69646460c9820152633632911f60e11b60e9820152905191603982019183919060ed015e01603901607b8101661e17ba32bc3a1f60c91b9052608281017f3c7465787420783d223135302220793d223139382220666f6e742d66616d696c905260a281015f5160206126ec5f395f51905f52905260c281017f32302220666f6e742d7765696768743d22626f6c6422200000000000000000009052653334b6361e9160d11b60d9820152845190818760df83015e01607b0190606482017f2220746578742d616e63686f723d226d6964646c65223e00000000000000000090525190818c607b83015e661026b2b6b132b960c91b607b9290910191820152661e17ba32bc3a1f60c91b60828201527f3c7465787420783d223135302220793d223232302220666f6e742d66616d696c60898201525f5160206126ec5f395f51905f5260a9820152630189911160e51b60c98201527f66696c6c3d22233838383839392220746578742d616e63686f723d226d69646460cd820152633632911f60e11b60ed8201528751602089019991606481019082908c9060f1015e661e17ba32bc3a1f60c91b608d92909101918201527f3c7465787420783d223135302220793d223234342220666f6e742d66616d696c60948201525f5160206126ec5f395f51905f5260b4820152630189991160e51b60d48201527f66696c6c3d22236161616163632220746578742d616e63686f723d226d69646460d8820152633632911f60e11b60f8820152815191601782019183916020019060fc015e01607601606f810167081c185e5b595b9d60c21b905281516020819301607783015e01606f019160088301661e17ba32bc3a1f60c91b9052600f83017f3c6c696e652078313d223630222079313d22323535222078323d2232343022209052703c991e91191a9a911039ba3937b5b29e9160791b602f8401525192839183015e7f22207374726f6b652d77696474683d22302e3522206f7061636974793d22302e91016040810191909152631991179f60e11b60608201527f3c7465787420783d223135302220793d223237342220666f6e742d66616d696c60648201525f5160206126ec5f395f51905f526084820152630189811160e51b60a48201527f66696c6c3d22233434343435612220746578742d616e63686f723d226d69646460a8820152633632911f60e11b60c88201527f5061796d656e744e465420c2b72041726320546573746e65740000000000000060cc820152661e17ba32bc3a1f60c91b60e5820152651e17b9bb339f60d11b60ec8201520360d281018252610bd29060f20182611e1b565b610bdb906125b6565b958951958660208101987f646174613a696d6167652f7376672b786d6c3b6261736536342c0000000000008a5280516020819201603a84015e8101603a81015f905203603a01601f1981018852610c329088611e1b565b610c3b90612389565b9751610c4690612389565b9051610c5a906001600160a01b03166124f6565b9351610c6e906001600160a01b03166124f6565b948a51998a99747b226e616d65223a225061796d656e744e4654202360581b60208c01528051602081920160358d015e61088b60f21b6035918c01918201527f226465736372697074696f6e223a224c6f79616c7479204e4654206561726e6560378201526b03210313c903830bcb4b733960a51b60578201528451908187606383015e016035019071081bdb88105c98c815195cdd1b995d0b888b60721b602e8301526d2261747472696275746573223a5b60901b8d830152604e82017f7b2274726169745f74797065223a2254696572222c2276616c7565223a2200009052518092606c83015e01602e0162089f4b60ea1b603e820152604181017f7b2274726169745f74797065223a225061796d656e7420436f756e74222c227690526530b63ab2911d60d11b606182015281516020819301606783015e01603e019060298201611f4b60f21b9052602b82017f7b2274726169745f74797065223a224d65726368616e74204e616d65222c227690526630b63ab2911d1160c91b604b830152518092605283015e0160290162089f4b60ea1b6029820152602c81017f7b2274726169745f74797065223a224d65726368616e74222c2276616c7565229052611d1160f11b604c82015281516020819301604e83015e0160290162089f4b60ea1b6025820152602881017f7b2274726169745f74797065223a224275796572222c2276616c7565223a2200905281516020819301604783015e016025019061227d60f01b60228301526024820161174b60f21b9052681134b6b0b3b2911d1160b91b6026830152518092602f83015e0160220161227d60f01b600d82015203600d01601d1981018252600201610ee79082611e1b565b610ef0906125b6565b9080518092602082017f646174613a6170706c69636174696f6e2f6a736f6e3b6261736536342c000000905280516020819201603d84015e8101603d81015f905203603d01601f1981018352610f469083611e1b565b518091602082526020820161015591611d54565b634e487b7160e01b5f52603260045260245ffd5b604051610f7c604082611e1b565b60018152607360f81b602082015290610276565b3461015957608036600319011261015957610fa9611d78565b610fb1611d8e565b906044356064359267ffffffffffffffff8411610159573660238501121561015957610fea610ffc943690602481600401359101611e59565b92610ff6838383611f67565b33612148565b005b346101595760203660031901126101595760043567ffffffffffffffff8111610159573660238201121561015957806004013567ffffffffffffffff8111610159576024820191602482369201011161015957801561129a57335f52600760205260ff60405f20541661125557604051916040830183811067ffffffffffffffff8211176112415760405260018352600161109a368484611e59565b9360208101948552335f5260076020526110c760405f2091511515829060ff801983541691151516179055565b01925192835167ffffffffffffffff8111611241576110e68254611e8f565b601f81116111fc575b506020601f82116001146111785781907fec31b5c87ea82f60c8bc1dd8262f275183d0d7bc8c37cdbbfd74130441818fbc95965f9261116d575b50508160011b915f199060031b1c19161790555b82604051916020835281602084015260408301375f604084830101526040813394601f80199101168101030190a2005b015190508680611129565b601f19821695835f52815f20965f5b8181106111e45750917fec31b5c87ea82f60c8bc1dd8262f275183d0d7bc8c37cdbbfd74130441818fbc9697918460019594106111cc575b505050811b01905561113d565b01515f1960f88460031b161c191690558680806111bf565b83830151895560019098019760209384019301611187565b825f5260205f20601f830160051c81019160208410611237575b601f0160051c01905b81811061122c57506110ef565b5f815560010161121f565b9091508190611216565b634e487b7160e01b5f52604160045260245ffd5b60405162461bcd60e51b815260206004820152601e60248201527f5061796d656e744e46543a20616c7265616479207265676973746572656400006044820152606490fd5b60405162461bcd60e51b81526020600482015260166024820152755061796d656e744e46543a20656d707479206e616d6560501b6044820152606490fd5b34610159576040366003190112610159576112f1611d78565b6024359081151590818303610159573315611382576001600160a01b031691821561136f5761134190335f52600560205260405f20845f5260205260405f209060ff801983541691151516179055565b6040519081527f17307eab39ab6107e8899845ad3d59bd9653f200f220920489ca2b5937696c3160203392a3005b82630b61174360e31b5f5260045260245ffd5b63a9fbf51f60e01b5f525f60045260245ffd5b34610159575f366003190112610159576040515f6001546113b581611e8f565b808452906001811690811561144f57506001146113f1575b610155836113dd81850382611e1b565b604051918291602083526020830190611d54565b60015f9081527fb10e2d527612073b26eecdfd717e6a320cf44b4afac2b0732d9fcbe2b7fa0cf6939250905b808210611435575090915081016020016113dd6113cd565b91926001816020925483858801015201910190929161141d565b60ff191660208086019190915291151560051b840190910191506113dd90506113cd565b34610159576020366003190112610159576001600160a01b03611494611d78565b16805f52600760205260ff60405f205416156118f9573381146118b4576040516323b872dd60e01b815233600482015260248101829052620f424060448201526020816064815f7f00000000000000000000000000000000000000000000000000000000000000006001600160a01b03165af19081156118a9575f9161186e575b501561182a57335f52600860205260405f20815f5260205260405f20805490600182018092116118165755335f52600860205260405f20815f5260205260405f205490600654906001820160065560405161156f81611dff565b338152602080820183815260408084018781525f87815260098552829020945185546001600160a01b03199081166001600160a01b03928316178755935160018701805490951691161790925590516002939093019290925590519093906115d78582611e1b565b5f81523315611803575f8481526002865260409020546001600160a01b031680151590816117d2575b335f8181526003895260408082208054600101905588825260028a52812080546001600160a01b0319168317905587919083907fddf252ad1be2c89b69c2b068fc378daa952ba7f163c4a11628f55a4df523b3ef9080a4506117bf57333b6116a8575b506116808461167183612128565b90604051938452830190611dde565b7ff35f1f16f2541a8f5c4870ae5cf7e4be7e22659d12e6e3021b1a49f552959e2860403392a4005b846116e19160405180938192630a85bd0160e11b83523360048401525f6024840152886044840152608060648401526084830190611d54565b03815f335af15f918161177f575b5061174357843d1561173b573d9061170682611e3d565b916117146040519384611e1b565b82523d5f8284013e5b8151918261173857633250574960e11b5f523360045260245ffd5b01fd5b60609061171d565b929391929091906001600160e01b03191663757a42ff60e11b0161176c57929190611680611663565b633250574960e11b5f523360045260245ffd5b9091508581813d83116117b8575b6117978183611e1b565b8101031261015957516001600160e01b0319811681036101595790866116ef565b503d61178d565b6339e3563760e11b5f525f60045260245ffd5b5f8681526004602052604080822080546001600160a01b031916905582825260038952902080545f19019055611600565b633250574960e11b5f525f60045260245ffd5b634e487b7160e01b5f52601160045260245ffd5b606460405162461bcd60e51b815260206004820152602060248201527f5061796d656e744e46543a2055534443207472616e73666572206661696c65646044820152fd5b90506020813d6020116118a1575b8161188960209383611e1b565b81010312610159575180151581036101595782611515565b3d915061187c565b6040513d5f823e3d90fd5b60405162461bcd60e51b815260206004820152601f60248201527f5061796d656e744e46543a2063616e6e6f742070617920796f757273656c66006044820152606490fd5b60405162461bcd60e51b815260206004820152602360248201527f5061796d656e744e46543a206d65726368616e74206e6f7420726567697374656044820152621c995960ea1b6064820152608490fd5b34610159576020366003190112610159576001600160a01b0361196b611d78565b168015611988575f526003602052602060405f2054604051908152f35b6322718ad960e21b5f525f60045260245ffd5b34610159576040366003190112610159576119b4611d78565b6119bc611d8e565b6001600160a01b039182165f90815260086020908152604080832094909316825292835220546119eb90612128565b6119f86040518092611dde565bf35b34610159575f366003190112610159576020604051620f42408152f35b34610159576020366003190112610159576020611a356004356120f4565b6040516001600160a01b039091168152f35b3461015957610ffc611a5836611da4565b9060405192611a68602085611e1b565b5f8452610ff6838383611f67565b34610159575f366003190112610159576040517f00000000000000000000000000000000000000000000000000000000000000006001600160a01b03168152602090f35b3461015957604036600319011261015957611ad3611d78565b611adb611d8e565b6001600160a01b039182165f908152600860209081526040808320949093168252928352819020549051908152f35b3461015957610ffc611b1b36611da4565b91611f67565b3461015957604036600319011261015957611b3a611d78565b602435611b46816120f4565b33151580611bf8575b80611bcb575b611bb85781906001600160a01b0384811691167f8c5be1e5ebec7d5bd14f71427d1e84f3dd0314c0f7b2291e5b200ac8c7c3b9255f80a45f90815260046020526040902080546001600160a01b0319166001600160a01b03909216919091179055005b63a9fbf51f60e01b5f523360045260245ffd5b506001600160a01b0381165f90815260056020908152604080832033845290915290205460ff1615611b55565b506001600160a01b038116331415611b4f565b3461015957602036600319011261015957600435611c28816120f4565b505f526004602052602060018060a01b0360405f205416604051908152f35b34610159575f366003190112610159576040515f5f54611c6681611e8f565b808452906001811690811561144f5750600114611c8d57610155836113dd81850382611e1b565b5f8080527f290decd9548b62a8d60345a988386fc84ba6bc95484008f6362f93160ef3e563939250905b808210611ccf575090915081016020016113dd6113cd565b919260018160209254838588010152019101909291611cb7565b34610159576020366003190112610159576004359063ffffffff60e01b8216809203610159576020916380ac58cd60e01b8114908115611d43575b8115611d32575b5015158152f35b6301ffc9a760e01b14905083611d2b565b635b5e139f60e01b81149150611d24565b805180835260209291819084018484015e5f828201840152601f01601f1916010190565b600435906001600160a01b038216820361015957565b602435906001600160a01b038216820361015957565b6060906003190112610159576004356001600160a01b038116810361015957906024356001600160a01b0381168103610159579060443590565b906003821015611deb5752565b634e487b7160e01b5f52602160045260245ffd5b6060810190811067ffffffffffffffff82111761124157604052565b90601f8019910116810190811067ffffffffffffffff82111761124157604052565b67ffffffffffffffff811161124157601f01601f191660200190565b929192611e6582611e3d565b91611e736040519384611e1b565b829481845281830111610159578281602093845f960137010152565b90600182811c92168015611ebd575b6020831014611ea957565b634e487b7160e01b5f52602260045260245ffd5b91607f1691611e9e565b9060405191825f825492611eda84611e8f565b8084529360018116908115611f455750600114611f01575b50611eff92500383611e1b565b565b90505f9291925260205f20905f915b818310611f29575050906020611eff928201015f611ef2565b6020919350806001915483858901015201910190918492611f10565b905060209250611eff94915060ff191682840152151560051b8201015f611ef2565b6001600160a01b0390911691908215611803575f828152600260205260409020546001600160a01b03169282903315158061205f575b508461202c575b805f52600360205260405f2060018154019055815f52600260205260405f20816bffffffffffffffffffffffff60a01b825416179055847fddf252ad1be2c89b69c2b068fc378daa952ba7f163c4a11628f55a4df523b3ef5f80a46001600160a01b031680830361201457505050565b6364283d7b60e01b5f5260045260245260445260645ffd5b5f82815260046020526040902080546001600160a01b0319169055845f52600360205260405f205f198154019055611fa4565b909150806120a3575b156120755782905f611f9d565b828461208d57637e27328960e01b5f5260045260245ffd5b63177e802f60e01b5f523360045260245260445ffd5b5033841480156120d2575b8061206857505f838152600460205260409020546001600160a01b03163314612068565b505f84815260056020908152604080832033845290915290205460ff166120ae565b5f818152600260205260409020546001600160a01b0316908115612116575090565b637e27328960e01b5f5260045260245ffd5b603281101561214257600a111561213d575f90565b600190565b50600290565b823b612156575b5050505050565b604051630a85bd0160e11b81526001600160a01b0391821660048201529181166024830152604482019390935260806064820152911691602090829081906121a2906084830190611d54565b03815f865af15f9181612239575b5061220557503d156121fe573d6121c681611e3d565b906121d46040519283611e1b565b81523d5f602083013e5b805190816121f95782633250574960e11b5f5260045260245ffd5b602001fd5b60606121de565b6001600160e01b03191663757a42ff60e11b0161222757505f8080808061214f565b633250574960e11b5f5260045260245ffd5b9091506020813d602011612276575b8161225560209383611e1b565b8101031261015957516001600160e01b03198116810361015957905f6121b0565b3d9150612248565b6003811015611deb57600281146122de576001146122ba576040516122a4604082611e1b565b600681526542726f6e7a6560d01b602082015290565b6040516122c8604082611e1b565b600681526529b4b63b32b960d11b602082015290565b506040516122ed604082611e1b565b600481526311dbdb1960e21b602082015290565b6003811015611deb57600281146123635760011461233e57604051612327604082611e1b565b600781526611a1a21ba3199960c91b602082015290565b60405161234c604082611e1b565b60078152660234330433043360cc1b602082015290565b50604051612372604082611e1b565b60078152660234646443730360cc1b602082015290565b805f9172184f03e93ff9f4daa797ed6e38ed64bf6a1f0160401b8210156124d3575b806d04ee2d6d415b85acef8100000000600a9210156124b8575b662386f26fc100008110156124a4575b6305f5e100811015612493575b612710811015612484575b6064811015612476575b101561246b575b600a6021600184019361241085611e3d565b9461241e6040519687611e1b565b80865261242d601f1991611e3d565b013660208701378401015b5f1901916f181899199a1a9b1b9c1cb0b131b232b360811b8282061a835304801561246657600a9091612438565b505090565b6001909101906123fe565b6064600291049301926123f7565b612710600491049301926123ed565b6305f5e100600891049301926123e2565b662386f26fc10000601091049301926123d5565b6d04ee2d6d415b85acef8100000000602091049301926123c5565b506040915072184f03e93ff9f4daa797ed6e38ed64bf6a1f0160401b81046123ab565b80612501602a611e3d565b9161250f6040519384611e1b565b602a835261251d602a611e3d565b6020840190601f1901368237835115610f5a5760309053825160011015610f5a576078602184015360295b600181116125705750612559575090565b63e22e27eb60e01b5f52600452601460245260445ffd5b90600f81166010811015610f5a578451831015610f5a576f181899199a1a9b1b9c1cb0b131b232b360811b901a8483016020015360041c908015611816575f1901612548565b908151156126d5578151600281018091116118165760039004600281901b91906001600160fe1b0381160361181657604051917f4142434445464748494a4b4c4d4e4f505152535455565758595a616263646566601f527f6768696a6b6c6d6e6f707172737475767778797a303132333435363738392b2f603f52602083018480518101602081018051915f82525b808910612699575060209596975090600392915251068060011461268457600214612677575b50808452830101604052565b603d905f1901535f61266b565b50603d90815f1982015360011901535f61266b565b939760036004910198603f8a51818160121c165183538181600c1c16516001840153818160061c16516002840153165160038201530193612645565b90506040516126e5602082611e1b565b5f81529056fe793d22417269616c2c73616e732d73657269662220666f6e742d73697a653d22a26469706673582212200dcb246fdee550a543b0d6ef920ddc483e320da119a02b5cfbb2f919f7db8c5e64736f6c634300081c0033","opcodes":"PUSH1 0xA0 PUSH1 0x40 MSTORE CALLVALUE PUSH2 0x33C JUMPI PUSH1 0x40 DUP1 MLOAD SWAP1 DUP2 ADD PUSH1 0x1 PUSH1 0x1 PUSH1 0x40 SHL SUB DUP2 GT DUP3 DUP3 LT OR PUSH2 0x252 JUMPI PUSH1 0x40 SWAP1 DUP2 MSTORE PUSH1 0xA DUP3 MSTORE PUSH10 0x14185E5B595B9D139195 PUSH1 0xB2 SHL PUSH1 0x20 DUP4 ADD MSTORE DUP1 MLOAD SWAP1 DUP2 ADD PUSH1 0x1 PUSH1 0x1 PUSH1 0x40 SHL SUB DUP2 GT DUP3 DUP3 LT OR PUSH2 0x252 JUMPI PUSH1 0x40 MSTORE PUSH1 0x4 DUP2 MSTORE PUSH4 0x14139195 PUSH1 0xE2 SHL PUSH1 0x20 DUP3 ADD MSTORE DUP2 MLOAD PUSH1 0x1 PUSH1 0x1 PUSH1 0x40 SHL SUB DUP2 GT PUSH2 0x252 JUMPI PUSH0 SLOAD PUSH1 0x1 DUP2 DUP2 SHR SWAP2 AND DUP1 ISZERO PUSH2 0x332 JUMPI JUMPDEST PUSH1 0x20 DUP3 LT EQ PUSH2 0x234 JUMPI PUSH1 0x1F DUP2 GT PUSH2 0x2D0 JUMPI JUMPDEST POP PUSH1 0x20 SWAP3 PUSH1 0x1F DUP3 GT PUSH1 0x1 EQ PUSH2 0x271 JUMPI SWAP3 DUP2 SWAP3 SWAP4 PUSH0 SWAP3 PUSH2 0x266 JUMPI JUMPDEST POP POP DUP2 PUSH1 0x1 SHL SWAP2 PUSH0 NOT SWAP1 PUSH1 0x3 SHL SHR NOT AND OR PUSH0 SSTORE JUMPDEST DUP1 MLOAD PUSH1 0x1 PUSH1 0x1 PUSH1 0x40 SHL SUB DUP2 GT PUSH2 0x252 JUMPI PUSH1 0x1 SLOAD PUSH1 0x1 DUP2 DUP2 SHR SWAP2 AND DUP1 ISZERO PUSH2 0x248 JUMPI JUMPDEST PUSH1 0x20 DUP3 LT EQ PUSH2 0x234 JUMPI PUSH1 0x1F DUP2 GT PUSH2 0x1D1 JUMPI JUMPDEST POP PUSH1 0x20 SWAP2 PUSH1 0x1F DUP3 GT PUSH1 0x1 EQ PUSH2 0x171 JUMPI SWAP2 DUP2 SWAP3 PUSH0 SWAP3 PUSH2 0x166 JUMPI JUMPDEST POP POP DUP2 PUSH1 0x1 SHL SWAP2 PUSH0 NOT SWAP1 PUSH1 0x3 SHL SHR NOT AND OR PUSH1 0x1 SSTORE JUMPDEST PUSH20 0x3C499C542CEF5E3811E1192CE70D8CC03D5C3359 PUSH1 0x80 MSTORE PUSH1 0x1 PUSH1 0x6 SSTORE PUSH1 0x40 MLOAD PUSH2 0x2741 SWAP1 DUP2 PUSH2 0x341 DUP3 CODECOPY PUSH1 0x80 MLOAD DUP2 DUP2 DUP2 PUSH2 0x14DD ADD MSTORE PUSH2 0x1A8B ADD MSTORE RETURN JUMPDEST ADD MLOAD SWAP1 POP PUSH0 DUP1 PUSH2 0x115 JUMP JUMPDEST PUSH1 0x1F NOT DUP3 AND SWAP3 PUSH1 0x1 PUSH0 MSTORE DUP1 PUSH0 KECCAK256 SWAP2 PUSH0 JUMPDEST DUP6 DUP2 LT PUSH2 0x1B9 JUMPI POP DUP4 PUSH1 0x1 SWAP6 LT PUSH2 0x1A1 JUMPI JUMPDEST POP POP POP DUP2 SHL ADD PUSH1 0x1 SSTORE PUSH2 0x12A JUMP JUMPDEST ADD MLOAD PUSH0 NOT PUSH1 0xF8 DUP5 PUSH1 0x3 SHL AND SHR NOT AND SWAP1 SSTORE PUSH0 DUP1 DUP1 PUSH2 0x193 JUMP JUMPDEST SWAP2 SWAP3 PUSH1 0x20 PUSH1 0x1 DUP2 SWAP3 DUP7 DUP6 ADD MLOAD DUP2 SSTORE ADD SWAP5 ADD SWAP3 ADD PUSH2 0x181 JUMP JUMPDEST PUSH1 0x1 PUSH0 MSTORE PUSH32 0xB10E2D527612073B26EECDFD717E6A320CF44B4AFAC2B0732D9FCBE2B7FA0CF6 PUSH1 0x1F DUP4 ADD PUSH1 0x5 SHR DUP2 ADD SWAP2 PUSH1 0x20 DUP5 LT PUSH2 0x22A JUMPI JUMPDEST PUSH1 0x1F ADD PUSH1 0x5 SHR ADD SWAP1 JUMPDEST DUP2 DUP2 LT PUSH2 0x21F JUMPI POP PUSH2 0xFC JUMP JUMPDEST PUSH0 DUP2 SSTORE PUSH1 0x1 ADD PUSH2 0x212 JUMP JUMPDEST SWAP1 SWAP2 POP DUP2 SWAP1 PUSH2 0x209 JUMP JUMPDEST PUSH4 0x4E487B71 PUSH1 0xE0 SHL PUSH0 MSTORE PUSH1 0x22 PUSH1 0x4 MSTORE PUSH1 0x24 PUSH0 REVERT JUMPDEST SWAP1 PUSH1 0x7F AND SWAP1 PUSH2 0xEA JUMP JUMPDEST PUSH4 0x4E487B71 PUSH1 0xE0 SHL PUSH0 MSTORE PUSH1 0x41 PUSH1 0x4 MSTORE PUSH1 0x24 PUSH0 REVERT JUMPDEST ADD MLOAD SWAP1 POP PUSH0 DUP1 PUSH2 0xB5 JUMP JUMPDEST PUSH1 0x1F NOT DUP3 AND SWAP4 PUSH0 DUP1 MSTORE DUP1 PUSH0 KECCAK256 SWAP2 PUSH0 JUMPDEST DUP7 DUP2 LT PUSH2 0x2B8 JUMPI POP DUP4 PUSH1 0x1 SWAP6 SWAP7 LT PUSH2 0x2A0 JUMPI JUMPDEST POP POP POP DUP2 SHL ADD PUSH0 SSTORE PUSH2 0xC9 JUMP JUMPDEST ADD MLOAD PUSH0 NOT PUSH1 0xF8 DUP5 PUSH1 0x3 SHL AND SHR NOT AND SWAP1 SSTORE PUSH0 DUP1 DUP1 PUSH2 0x293 JUMP JUMPDEST SWAP2 SWAP3 PUSH1 0x20 PUSH1 0x1 DUP2 SWAP3 DUP7 DUP6 ADD MLOAD DUP2 SSTORE ADD SWAP5 ADD SWAP3 ADD PUSH2 0x280 JUMP JUMPDEST PUSH0 DUP1 MSTORE PUSH32 0x290DECD9548B62A8D60345A988386FC84BA6BC95484008F6362F93160EF3E563 PUSH1 0x1F DUP4 ADD PUSH1 0x5 SHR DUP2 ADD SWAP2 PUSH1 0x20 DUP5 LT PUSH2 0x328 JUMPI JUMPDEST PUSH1 0x1F ADD PUSH1 0x5 SHR ADD SWAP1 JUMPDEST DUP2 DUP2 LT PUSH2 0x31D JUMPI POP PUSH2 0x9B JUMP JUMPDEST PUSH0 DUP2 SSTORE PUSH1 0x1 ADD PUSH2 0x310 JUMP JUMPDEST SWAP1 SWAP2 POP DUP2 SWAP1 PUSH2 0x307 JUMP JUMPDEST SWAP1 PUSH1 0x7F AND SWAP1 PUSH2 0x89 JUMP JUMPDEST PUSH0 DUP1 REVERT INVALID PUSH1 0x80 DUP1 PUSH1 0x40 MSTORE PUSH1 0x4 CALLDATASIZE LT ISZERO PUSH2 0x12 JUMPI PUSH0 DUP1 REVERT JUMPDEST PUSH0 CALLDATALOAD PUSH1 0xE0 SHR SWAP1 DUP2 PUSH4 0x1FFC9A7 EQ PUSH2 0x1CE9 JUMPI POP DUP1 PUSH4 0x6FDDE03 EQ PUSH2 0x1C47 JUMPI DUP1 PUSH4 0x81812FC EQ PUSH2 0x1C0B JUMPI DUP1 PUSH4 0x95EA7B3 EQ PUSH2 0x1B21 JUMPI DUP1 PUSH4 0x23B872DD EQ PUSH2 0x1B0A JUMPI DUP1 PUSH4 0x27B47B1C EQ PUSH2 0x1ABA JUMPI DUP1 PUSH4 0x3E413BEE EQ PUSH2 0x1A76 JUMPI DUP1 PUSH4 0x42842E0E EQ PUSH2 0x1A47 JUMPI DUP1 PUSH4 0x6352211E EQ PUSH2 0x1A17 JUMPI DUP1 PUSH4 0x6BC55AB8 EQ PUSH2 0x19FA JUMPI DUP1 PUSH4 0x6E87A8DF EQ PUSH2 0x199B JUMPI DUP1 PUSH4 0x70A08231 EQ PUSH2 0x194A JUMPI DUP1 PUSH4 0x7345B6A7 EQ PUSH2 0x1473 JUMPI DUP1 PUSH4 0x95D89B41 EQ PUSH2 0x1395 JUMPI DUP1 PUSH4 0xA22CB465 EQ PUSH2 0x12D8 JUMPI DUP1 PUSH4 0xAD5D5B7C EQ PUSH2 0xFFE JUMPI DUP1 PUSH4 0xB88D4FDE EQ PUSH2 0xF90 JUMPI DUP1 PUSH4 0xC87B56DD EQ PUSH2 0x1B4 JUMPI DUP1 PUSH4 0xE985E9C5 EQ PUSH2 0x15D JUMPI PUSH4 0xEE14E939 EQ PUSH2 0xF8 JUMPI PUSH0 DUP1 REVERT JUMPDEST CALLVALUE PUSH2 0x159 JUMPI PUSH1 0x20 CALLDATASIZE PUSH1 0x3 NOT ADD SLT PUSH2 0x159 JUMPI PUSH1 0x1 PUSH1 0x1 PUSH1 0xA0 SHL SUB PUSH2 0x119 PUSH2 0x1D78 JUMP JUMPDEST AND PUSH0 MSTORE PUSH1 0x7 PUSH1 0x20 MSTORE PUSH1 0x40 PUSH0 KECCAK256 PUSH2 0x136 PUSH1 0x1 PUSH1 0xFF DUP4 SLOAD AND SWAP3 ADD PUSH2 0x1EC7 JUMP JUMPDEST SWAP1 PUSH2 0x155 PUSH1 0x40 MLOAD SWAP3 DUP4 SWAP3 ISZERO ISZERO DUP4 MSTORE PUSH1 0x40 PUSH1 0x20 DUP5 ADD MSTORE PUSH1 0x40 DUP4 ADD SWAP1 PUSH2 0x1D54 JUMP JUMPDEST SUB SWAP1 RETURN JUMPDEST PUSH0 DUP1 REVERT JUMPDEST CALLVALUE PUSH2 0x159 JUMPI PUSH1 0x40 CALLDATASIZE PUSH1 0x3 NOT ADD SLT PUSH2 0x159 JUMPI PUSH2 0x176 PUSH2 0x1D78 JUMP JUMPDEST PUSH2 0x17E PUSH2 0x1D8E JUMP JUMPDEST SWAP1 PUSH1 0x1 DUP1 PUSH1 0xA0 SHL SUB AND PUSH0 MSTORE PUSH1 0x5 PUSH1 0x20 MSTORE PUSH1 0x40 PUSH0 KECCAK256 SWAP1 PUSH1 0x1 DUP1 PUSH1 0xA0 SHL SUB AND PUSH0 MSTORE PUSH1 0x20 MSTORE PUSH1 0x20 PUSH1 0xFF PUSH1 0x40 PUSH0 KECCAK256 SLOAD AND PUSH1 0x40 MLOAD SWAP1 ISZERO ISZERO DUP2 MSTORE RETURN JUMPDEST CALLVALUE PUSH2 0x159 JUMPI PUSH1 0x20 CALLDATASIZE PUSH1 0x3 NOT ADD SLT PUSH2 0x159 JUMPI PUSH1 0x4 CALLDATALOAD PUSH2 0x1D1 DUP2 PUSH2 0x20F4 JUMP JUMPDEST POP DUP1 PUSH0 MSTORE PUSH1 0x9 PUSH1 0x20 MSTORE PUSH1 0x40 PUSH0 KECCAK256 SWAP1 PUSH1 0x40 MLOAD SWAP2 PUSH2 0x1EC DUP4 PUSH2 0x1DFF JUMP JUMPDEST DUP1 SLOAD PUSH1 0x1 PUSH1 0x1 PUSH1 0xA0 SHL SUB SWAP1 DUP2 AND DUP5 MSTORE PUSH1 0x1 DUP3 ADD SLOAD AND PUSH1 0x20 DUP5 ADD SWAP1 DUP2 MSTORE PUSH1 0x2 SWAP1 SWAP2 ADD SLOAD PUSH1 0x40 DUP5 ADD DUP2 DUP2 MSTORE SWAP2 SWAP1 PUSH2 0x220 SWAP1 PUSH2 0x2128 JUMP JUMPDEST SWAP3 PUSH2 0x233 PUSH2 0x22D DUP6 PUSH2 0x227E JUMP JUMPDEST SWAP5 PUSH2 0x2301 JUMP JUMPDEST DUP3 MLOAD PUSH1 0x1 PUSH1 0x1 PUSH1 0xA0 SHL SUB AND PUSH0 SWAP1 DUP2 MSTORE PUSH1 0x7 PUSH1 0x20 MSTORE PUSH1 0x40 SWAP1 KECCAK256 PUSH2 0x257 SWAP1 PUSH1 0x1 ADD PUSH2 0x1EC7 JUMP JUMPDEST DUP5 MLOAD SWAP7 SWAP1 PUSH1 0x1 DUP9 SUB PUSH2 0xF6E JUMPI PUSH1 0x40 MLOAD PUSH2 0x271 PUSH1 0x20 DUP3 PUSH2 0x1E1B JUMP JUMPDEST PUSH0 DUP2 MSTORE SWAP1 JUMPDEST PUSH1 0x40 SWAP9 DUP10 MLOAD PUSH2 0x285 DUP12 DUP3 PUSH2 0x1E1B JUMP JUMPDEST PUSH1 0x1 DUP2 MSTORE PUSH1 0x20 DUP2 ADD SWAP1 PUSH1 0x1F NOT DUP13 ADD CALLDATASIZE DUP4 CALLDATACOPY DUP11 MLOAD ISZERO PUSH2 0xF5A JUMPI PUSH1 0x20 DUP12 ADD SWAP7 PUSH1 0xFF PUSH1 0xF8 SHL DUP9 MLOAD AND PUSH0 BYTE DUP3 MLOAD ISZERO PUSH2 0xF5A JUMPI DUP13 SWAP5 DUP15 SWAP2 DUP6 MSTORE8 PUSH2 0x2C2 SWAP1 PUSH2 0x2389 JUMP JUMPDEST DUP2 MLOAD PUSH32 0x3C73766720786D6C6E733D22687474703A2F2F7777772E77332E6F72672F3230 PUSH1 0x20 DUP1 DUP4 ADD SWAP2 SWAP1 SWAP2 MSTORE PUSH32 0x30302F737667222076696577426F783D22302030203330302033303022207769 DUP3 DUP6 ADD MSTORE PUSH32 0x6474683D2233303022206865696768743D22333030223E000000000000000000 PUSH1 0x60 DUP4 ADD MSTORE PUSH6 0x1E3232B3399F PUSH1 0xD1 SHL PUSH1 0x77 DUP4 ADD MSTORE PUSH32 0x3C72616469616C4772616469656E742069643D226267222063783D2235302522 PUSH1 0x7D DUP4 ADD MSTORE PUSH18 0x1031BC9E911A98129110391E911B9812911F PUSH1 0x71 SHL PUSH1 0x9D DUP4 ADD MSTORE PUSH32 0x3C73746F70206F66667365743D223025222073746F702D636F6C6F723D222331 PUSH1 0xAF DUP4 ADD MSTORE PUSH8 0x3098B0993291179F PUSH1 0xC1 SHL PUSH1 0xCF DUP4 ADD MSTORE PUSH32 0x3C73746F70206F66667365743D2231303025222073746F702D636F6C6F723D22 PUSH1 0xD7 DUP4 ADD MSTORE PUSH10 0x119833183318B091179F PUSH1 0xB1 SHL PUSH1 0xF7 DUP4 ADD MSTORE PUSH17 0x1E17B930B234B0B623B930B234B2B73A1F PUSH1 0x79 SHL PUSH2 0x101 DUP4 ADD MSTORE PUSH32 0x3C72616469616C4772616469656E742069643D22676C6F77222063783D223530 PUSH2 0x112 DUP4 ADD MSTORE PUSH20 0x12911031BC9E911A98129110391E911A9812911F PUSH1 0x61 SHL PUSH2 0x132 DUP4 ADD MSTORE PUSH32 0x3C73746F70206F66667365743D223025222073746F702D636F6C6F723D220000 PUSH2 0x146 DUP4 ADD MSTORE DUP5 MLOAD SWAP3 SWAP10 SWAP2 SWAP8 DUP9 SWAP8 SWAP2 DUP7 ADD SWAP7 SWAP3 SWAP4 SWAP1 SWAP3 SWAP1 DUP1 DUP9 PUSH2 0x164 DUP12 ADD MCOPY DUP9 ADD PUSH2 0x164 DUP2 ADD PUSH32 0x222073746F702D6F7061636974793D22302E3335222F3E000000000000000000 SWAP1 MSTORE PUSH2 0x17B DUP2 ADD PUSH32 0x3C73746F70206F66667365743D2231303025222073746F702D636F6C6F723D22 SWAP1 MSTORE DUP7 MLOAD SWAP1 DUP2 DUP10 PUSH2 0x19B DUP4 ADD MCOPY PUSH20 0x111039BA37B816B7B830B1B4BA3C9E911811179F PUSH1 0x61 SHL PUSH2 0x19B SWAP3 SWAP1 SWAP2 ADD SWAP2 DUP3 ADD MSTORE PUSH17 0x1E17B930B234B0B623B930B234B2B73A1F PUSH1 0x79 SHL PUSH2 0x1AF DUP3 ADD MSTORE PUSH7 0x1E17B232B3399F PUSH1 0xC9 SHL PUSH2 0x1C0 DUP3 ADD MSTORE PUSH32 0x3C726563742077696474683D2233303022206865696768743D22333030222072 PUSH2 0x1C7 DUP3 ADD MSTORE PUSH32 0x783D223138222072793D223138222066696C6C3D2275726C2823626729222F3E PUSH2 0x1E7 DUP3 ADD MSTORE PUSH32 0x3C656C6C697073652063783D22313530222063793D22313135222072783D2239 PUSH2 0x207 DUP3 ADD MSTORE PUSH32 0x30222072793D223930222066696C6C3D2275726C2823676C6F7729222F3E0000 PUSH2 0x227 DUP3 ADD MSTORE PUSH32 0x3C636972636C652063783D22313530222063793D223131352220723D22373222 PUSH2 0x245 DUP3 ADD MSTORE PUSH21 0x103334B6361E913737B732911039BA3937B5B29E91 PUSH1 0x59 SHL PUSH2 0x265 DUP3 ADD MSTORE DUP7 MLOAD SWAP1 PUSH2 0x164 DUP2 ADD SWAP1 DUP3 SWAP1 DUP11 SWAP1 PUSH2 0x27A ADD MCOPY ADD PUSH1 0x37 ADD PUSH1 0xDF DUP2 ADD PUSH32 0x22207374726F6B652D77696474683D223222206F7061636974793D22302E3522 SWAP1 MSTORE PUSH1 0xFF DUP2 ADD PUSH2 0x179F PUSH1 0xF1 SHL SWAP1 MSTORE PUSH2 0x101 DUP2 ADD PUSH32 0x3C636972636C652063783D22313530222063793D223131352220723D22353822 SWAP1 MSTORE PUSH7 0x103334B6361E91 PUSH1 0xC9 SHL PUSH2 0x121 DUP3 ADD MSTORE DUP7 MLOAD SWAP1 DUP2 DUP10 PUSH2 0x128 DUP4 ADD MCOPY ADD PUSH1 0xDF ADD PUSH18 0x111037B830B1B4BA3C9E911817189911179F PUSH1 0x71 SHL PUSH1 0x49 DUP3 ADD MSTORE PUSH1 0x5B DUP2 ADD PUSH32 0x3C636972636C652063783D22313530222063793D223131352220723D22353022 SWAP1 MSTORE PUSH7 0x103334B6361E91 PUSH1 0xC9 SHL PUSH1 0x7B DUP3 ADD MSTORE DUP7 MLOAD SWAP1 DUP2 DUP10 PUSH1 0x82 DUP4 ADD MCOPY ADD PUSH1 0x49 ADD PUSH18 0x111037B830B1B4BA3C9E911817191A91179F PUSH1 0x71 SHL PUSH1 0x39 DUP3 ADD MSTORE PUSH1 0x4B DUP2 ADD PUSH32 0x3C636972636C652063783D22313530222063793D223131352220723D22343422 SWAP1 MSTORE PUSH7 0x103334B6361E91 PUSH1 0xC9 SHL PUSH1 0x6B DUP3 ADD MSTORE DUP7 MLOAD SWAP1 DUP2 DUP10 PUSH1 0x72 DUP4 ADD MCOPY PUSH3 0x11179F PUSH1 0xE9 SHL PUSH1 0x72 SWAP3 SWAP1 SWAP2 ADD SWAP2 DUP3 ADD MSTORE PUSH32 0x3C7465787420783D223135302220793D223132382220666F6E742D66616D696C PUSH1 0x75 DUP3 ADD MSTORE PUSH32 0x793D2247656F726769612C73657269662220666F6E742D73697A653D22343022 PUSH1 0x95 DUP3 ADD MSTORE PUSH20 0x103337B73A16BBB2B4B3B43A1E913137B632111 PUSH1 0x65 SHL PUSH1 0xB5 DUP3 ADD MSTORE PUSH32 0x66696C6C3D22233161316132652220746578742D616E63686F723D226D696464 PUSH1 0xC9 DUP3 ADD MSTORE PUSH4 0x3632911F PUSH1 0xE1 SHL PUSH1 0xE9 DUP3 ADD MSTORE SWAP1 MLOAD SWAP2 PUSH1 0x39 DUP3 ADD SWAP2 DUP4 SWAP2 SWAP1 PUSH1 0xED ADD MCOPY ADD PUSH1 0x39 ADD PUSH1 0x7B DUP2 ADD PUSH7 0x1E17BA32BC3A1F PUSH1 0xC9 SHL SWAP1 MSTORE PUSH1 0x82 DUP2 ADD PUSH32 0x3C7465787420783D223135302220793D223139382220666F6E742D66616D696C SWAP1 MSTORE PUSH1 0xA2 DUP2 ADD PUSH0 MLOAD PUSH1 0x20 PUSH2 0x26EC PUSH0 CODECOPY PUSH0 MLOAD SWAP1 PUSH0 MSTORE SWAP1 MSTORE PUSH1 0xC2 DUP2 ADD PUSH32 0x32302220666F6E742D7765696768743D22626F6C642220000000000000000000 SWAP1 MSTORE PUSH6 0x3334B6361E91 PUSH1 0xD1 SHL PUSH1 0xD9 DUP3 ADD MSTORE DUP5 MLOAD SWAP1 DUP2 DUP8 PUSH1 0xDF DUP4 ADD MCOPY ADD PUSH1 0x7B ADD SWAP1 PUSH1 0x64 DUP3 ADD PUSH32 0x2220746578742D616E63686F723D226D6964646C65223E000000000000000000 SWAP1 MSTORE MLOAD SWAP1 DUP2 DUP13 PUSH1 0x7B DUP4 ADD MCOPY PUSH7 0x1026B2B6B132B9 PUSH1 0xC9 SHL PUSH1 0x7B SWAP3 SWAP1 SWAP2 ADD SWAP2 DUP3 ADD MSTORE PUSH7 0x1E17BA32BC3A1F PUSH1 0xC9 SHL PUSH1 0x82 DUP3 ADD MSTORE PUSH32 0x3C7465787420783D223135302220793D223232302220666F6E742D66616D696C PUSH1 0x89 DUP3 ADD MSTORE PUSH0 MLOAD PUSH1 0x20 PUSH2 0x26EC PUSH0 CODECOPY PUSH0 MLOAD SWAP1 PUSH0 MSTORE PUSH1 0xA9 DUP3 ADD MSTORE PUSH4 0x1899111 PUSH1 0xE5 SHL PUSH1 0xC9 DUP3 ADD MSTORE PUSH32 0x66696C6C3D22233838383839392220746578742D616E63686F723D226D696464 PUSH1 0xCD DUP3 ADD MSTORE PUSH4 0x3632911F PUSH1 0xE1 SHL PUSH1 0xED DUP3 ADD MSTORE DUP8 MLOAD PUSH1 0x20 DUP10 ADD SWAP10 SWAP2 PUSH1 0x64 DUP2 ADD SWAP1 DUP3 SWAP1 DUP13 SWAP1 PUSH1 0xF1 ADD MCOPY PUSH7 0x1E17BA32BC3A1F PUSH1 0xC9 SHL PUSH1 0x8D SWAP3 SWAP1 SWAP2 ADD SWAP2 DUP3 ADD MSTORE PUSH32 0x3C7465787420783D223135302220793D223234342220666F6E742D66616D696C PUSH1 0x94 DUP3 ADD MSTORE PUSH0 MLOAD PUSH1 0x20 PUSH2 0x26EC PUSH0 CODECOPY PUSH0 MLOAD SWAP1 PUSH0 MSTORE PUSH1 0xB4 DUP3 ADD MSTORE PUSH4 0x1899911 PUSH1 0xE5 SHL PUSH1 0xD4 DUP3 ADD MSTORE PUSH32 0x66696C6C3D22236161616163632220746578742D616E63686F723D226D696464 PUSH1 0xD8 DUP3 ADD MSTORE PUSH4 0x3632911F PUSH1 0xE1 SHL PUSH1 0xF8 DUP3 ADD MSTORE DUP2 MLOAD SWAP2 PUSH1 0x17 DUP3 ADD SWAP2 DUP4 SWAP2 PUSH1 0x20 ADD SWAP1 PUSH1 0xFC ADD MCOPY ADD PUSH1 0x76 ADD PUSH1 0x6F DUP2 ADD PUSH8 0x81C185E5B595B9D PUSH1 0xC2 SHL SWAP1 MSTORE DUP2 MLOAD PUSH1 0x20 DUP2 SWAP4 ADD PUSH1 0x77 DUP4 ADD MCOPY ADD PUSH1 0x6F ADD SWAP2 PUSH1 0x8 DUP4 ADD PUSH7 0x1E17BA32BC3A1F PUSH1 0xC9 SHL SWAP1 MSTORE PUSH1 0xF DUP4 ADD PUSH32 0x3C6C696E652078313D223630222079313D22323535222078323D223234302220 SWAP1 MSTORE PUSH17 0x3C991E91191A9A911039BA3937B5B29E91 PUSH1 0x79 SHL PUSH1 0x2F DUP5 ADD MSTORE MLOAD SWAP3 DUP4 SWAP2 DUP4 ADD MCOPY PUSH32 0x22207374726F6B652D77696474683D22302E3522206F7061636974793D22302E SWAP2 ADD PUSH1 0x40 DUP2 ADD SWAP2 SWAP1 SWAP2 MSTORE PUSH4 0x1991179F PUSH1 0xE1 SHL PUSH1 0x60 DUP3 ADD MSTORE PUSH32 0x3C7465787420783D223135302220793D223237342220666F6E742D66616D696C PUSH1 0x64 DUP3 ADD MSTORE PUSH0 MLOAD PUSH1 0x20 PUSH2 0x26EC PUSH0 CODECOPY PUSH0 MLOAD SWAP1 PUSH0 MSTORE PUSH1 0x84 DUP3 ADD MSTORE PUSH4 0x1898111 PUSH1 0xE5 SHL PUSH1 0xA4 DUP3 ADD MSTORE PUSH32 0x66696C6C3D22233434343435612220746578742D616E63686F723D226D696464 PUSH1 0xA8 DUP3 ADD MSTORE PUSH4 0x3632911F PUSH1 0xE1 SHL PUSH1 0xC8 DUP3 ADD MSTORE PUSH32 0x5061796D656E744E465420C2B72041726320546573746E657400000000000000 PUSH1 0xCC DUP3 ADD MSTORE PUSH7 0x1E17BA32BC3A1F PUSH1 0xC9 SHL PUSH1 0xE5 DUP3 ADD MSTORE PUSH6 0x1E17B9BB339F PUSH1 0xD1 SHL PUSH1 0xEC DUP3 ADD MSTORE SUB PUSH1 0xD2 DUP2 ADD DUP3 MSTORE PUSH2 0xBD2 SWAP1 PUSH1 0xF2 ADD DUP3 PUSH2 0x1E1B JUMP JUMPDEST PUSH2 0xBDB SWAP1 PUSH2 0x25B6 JUMP JUMPDEST SWAP6 DUP10 MLOAD SWAP6 DUP7 PUSH1 0x20 DUP2 ADD SWAP9 PUSH32 0x646174613A696D6167652F7376672B786D6C3B6261736536342C000000000000 DUP11 MSTORE DUP1 MLOAD PUSH1 0x20 DUP2 SWAP3 ADD PUSH1 0x3A DUP5 ADD MCOPY DUP2 ADD PUSH1 0x3A DUP2 ADD PUSH0 SWAP1 MSTORE SUB PUSH1 0x3A ADD PUSH1 0x1F NOT DUP2 ADD DUP9 MSTORE PUSH2 0xC32 SWAP1 DUP9 PUSH2 0x1E1B JUMP JUMPDEST PUSH2 0xC3B SWAP1 PUSH2 0x2389 JUMP JUMPDEST SWAP8 MLOAD PUSH2 0xC46 SWAP1 PUSH2 0x2389 JUMP JUMPDEST SWAP1 MLOAD PUSH2 0xC5A SWAP1 PUSH1 0x1 PUSH1 0x1 PUSH1 0xA0 SHL SUB AND PUSH2 0x24F6 JUMP JUMPDEST SWAP4 MLOAD PUSH2 0xC6E SWAP1 PUSH1 0x1 PUSH1 0x1 PUSH1 0xA0 SHL SUB AND PUSH2 0x24F6 JUMP JUMPDEST SWAP5 DUP11 MLOAD SWAP10 DUP11 SWAP10 PUSH21 0x7B226E616D65223A225061796D656E744E46542023 PUSH1 0x58 SHL PUSH1 0x20 DUP13 ADD MSTORE DUP1 MLOAD PUSH1 0x20 DUP2 SWAP3 ADD PUSH1 0x35 DUP14 ADD MCOPY PUSH2 0x88B PUSH1 0xF2 SHL PUSH1 0x35 SWAP2 DUP13 ADD SWAP2 DUP3 ADD MSTORE PUSH32 0x226465736372697074696F6E223A224C6F79616C7479204E4654206561726E65 PUSH1 0x37 DUP3 ADD MSTORE PUSH12 0x3210313C903830BCB4B7339 PUSH1 0xA5 SHL PUSH1 0x57 DUP3 ADD MSTORE DUP5 MLOAD SWAP1 DUP2 DUP8 PUSH1 0x63 DUP4 ADD MCOPY ADD PUSH1 0x35 ADD SWAP1 PUSH18 0x81BDB88105C98C815195CDD1B995D0B888B PUSH1 0x72 SHL PUSH1 0x2E DUP4 ADD MSTORE PUSH14 0x2261747472696275746573223A5B PUSH1 0x90 SHL DUP14 DUP4 ADD MSTORE PUSH1 0x4E DUP3 ADD PUSH32 0x7B2274726169745F74797065223A2254696572222C2276616C7565223A220000 SWAP1 MSTORE MLOAD DUP1 SWAP3 PUSH1 0x6C DUP4 ADD MCOPY ADD PUSH1 0x2E ADD PUSH3 0x89F4B PUSH1 0xEA SHL PUSH1 0x3E DUP3 ADD MSTORE PUSH1 0x41 DUP2 ADD PUSH32 0x7B2274726169745F74797065223A225061796D656E7420436F756E74222C2276 SWAP1 MSTORE PUSH6 0x30B63AB2911D PUSH1 0xD1 SHL PUSH1 0x61 DUP3 ADD MSTORE DUP2 MLOAD PUSH1 0x20 DUP2 SWAP4 ADD PUSH1 0x67 DUP4 ADD MCOPY ADD PUSH1 0x3E ADD SWAP1 PUSH1 0x29 DUP3 ADD PUSH2 0x1F4B PUSH1 0xF2 SHL SWAP1 MSTORE PUSH1 0x2B DUP3 ADD PUSH32 0x7B2274726169745F74797065223A224D65726368616E74204E616D65222C2276 SWAP1 MSTORE PUSH7 0x30B63AB2911D11 PUSH1 0xC9 SHL PUSH1 0x4B DUP4 ADD MSTORE MLOAD DUP1 SWAP3 PUSH1 0x52 DUP4 ADD MCOPY ADD PUSH1 0x29 ADD PUSH3 0x89F4B PUSH1 0xEA SHL PUSH1 0x29 DUP3 ADD MSTORE PUSH1 0x2C DUP2 ADD PUSH32 0x7B2274726169745F74797065223A224D65726368616E74222C2276616C756522 SWAP1 MSTORE PUSH2 0x1D11 PUSH1 0xF1 SHL PUSH1 0x4C DUP3 ADD MSTORE DUP2 MLOAD PUSH1 0x20 DUP2 SWAP4 ADD PUSH1 0x4E DUP4 ADD MCOPY ADD PUSH1 0x29 ADD PUSH3 0x89F4B PUSH1 0xEA SHL PUSH1 0x25 DUP3 ADD MSTORE PUSH1 0x28 DUP2 ADD PUSH32 0x7B2274726169745F74797065223A224275796572222C2276616C7565223A2200 SWAP1 MSTORE DUP2 MLOAD PUSH1 0x20 DUP2 SWAP4 ADD PUSH1 0x47 DUP4 ADD MCOPY ADD PUSH1 0x25 ADD SWAP1 PUSH2 0x227D PUSH1 0xF0 SHL PUSH1 0x22 DUP4 ADD MSTORE PUSH1 0x24 DUP3 ADD PUSH2 0x174B PUSH1 0xF2 SHL SWAP1 MSTORE PUSH9 0x1134B6B0B3B2911D11 PUSH1 0xB9 SHL PUSH1 0x26 DUP4 ADD MSTORE MLOAD DUP1 SWAP3 PUSH1 0x2F DUP4 ADD MCOPY ADD PUSH1 0x22 ADD PUSH2 0x227D PUSH1 0xF0 SHL PUSH1 0xD DUP3 ADD MSTORE SUB PUSH1 0xD ADD PUSH1 0x1D NOT DUP2 ADD DUP3 MSTORE PUSH1 0x2 ADD PUSH2 0xEE7 SWAP1 DUP3 PUSH2 0x1E1B JUMP JUMPDEST PUSH2 0xEF0 SWAP1 PUSH2 0x25B6 JUMP JUMPDEST SWAP1 DUP1 MLOAD DUP1 SWAP3 PUSH1 0x20 DUP3 ADD PUSH32 0x646174613A6170706C69636174696F6E2F6A736F6E3B6261736536342C000000 SWAP1 MSTORE DUP1 MLOAD PUSH1 0x20 DUP2 SWAP3 ADD PUSH1 0x3D DUP5 ADD MCOPY DUP2 ADD PUSH1 0x3D DUP2 ADD PUSH0 SWAP1 MSTORE SUB PUSH1 0x3D ADD PUSH1 0x1F NOT DUP2 ADD DUP4 MSTORE PUSH2 0xF46 SWAP1 DUP4 PUSH2 0x1E1B JUMP JUMPDEST MLOAD DUP1 SWAP2 PUSH1 0x20 DUP3 MSTORE PUSH1 0x20 DUP3 ADD PUSH2 0x155 SWAP2 PUSH2 0x1D54 JUMP JUMPDEST PUSH4 0x4E487B71 PUSH1 0xE0 SHL PUSH0 MSTORE PUSH1 0x32 PUSH1 0x4 MSTORE PUSH1 0x24 PUSH0 REVERT JUMPDEST PUSH1 0x40 MLOAD PUSH2 0xF7C PUSH1 0x40 DUP3 PUSH2 0x1E1B JUMP JUMPDEST PUSH1 0x1 DUP2 MSTORE PUSH1 0x73 PUSH1 0xF8 SHL PUSH1 0x20 DUP3 ADD MSTORE SWAP1 PUSH2 0x276 JUMP JUMPDEST CALLVALUE PUSH2 0x159 JUMPI PUSH1 0x80 CALLDATASIZE PUSH1 0x3 NOT ADD SLT PUSH2 0x159 JUMPI PUSH2 0xFA9 PUSH2 0x1D78 JUMP JUMPDEST PUSH2 0xFB1 PUSH2 0x1D8E JUMP JUMPDEST SWAP1 PUSH1 0x44 CALLDATALOAD PUSH1 0x64 CALLDATALOAD SWAP3 PUSH8 0xFFFFFFFFFFFFFFFF DUP5 GT PUSH2 0x159 JUMPI CALLDATASIZE PUSH1 0x23 DUP6 ADD SLT ISZERO PUSH2 0x159 JUMPI PUSH2 0xFEA PUSH2 0xFFC SWAP5 CALLDATASIZE SWAP1 PUSH1 0x24 DUP2 PUSH1 0x4 ADD CALLDATALOAD SWAP2 ADD PUSH2 0x1E59 JUMP JUMPDEST SWAP3 PUSH2 0xFF6 DUP4 DUP4 DUP4 PUSH2 0x1F67 JUMP JUMPDEST CALLER PUSH2 0x2148 JUMP JUMPDEST STOP JUMPDEST CALLVALUE PUSH2 0x159 JUMPI PUSH1 0x20 CALLDATASIZE PUSH1 0x3 NOT ADD SLT PUSH2 0x159 JUMPI PUSH1 0x4 CALLDATALOAD PUSH8 0xFFFFFFFFFFFFFFFF DUP2 GT PUSH2 0x159 JUMPI CALLDATASIZE PUSH1 0x23 DUP3 ADD SLT ISZERO PUSH2 0x159 JUMPI DUP1 PUSH1 0x4 ADD CALLDATALOAD PUSH8 0xFFFFFFFFFFFFFFFF DUP2 GT PUSH2 0x159 JUMPI PUSH1 0x24 DUP3 ADD SWAP2 PUSH1 0x24 DUP3 CALLDATASIZE SWAP3 ADD ADD GT PUSH2 0x159 JUMPI DUP1 ISZERO PUSH2 0x129A JUMPI CALLER PUSH0 MSTORE PUSH1 0x7 PUSH1 0x20 MSTORE PUSH1 0xFF PUSH1 0x40 PUSH0 KECCAK256 SLOAD AND PUSH2 0x1255 JUMPI PUSH1 0x40 MLOAD SWAP2 PUSH1 0x40 DUP4 ADD DUP4 DUP2 LT PUSH8 0xFFFFFFFFFFFFFFFF DUP3 GT OR PUSH2 0x1241 JUMPI PUSH1 0x40 MSTORE PUSH1 0x1 DUP4 MSTORE PUSH1 0x1 PUSH2 0x109A CALLDATASIZE DUP5 DUP5 PUSH2 0x1E59 JUMP JUMPDEST SWAP4 PUSH1 0x20 DUP2 ADD SWAP5 DUP6 MSTORE CALLER PUSH0 MSTORE PUSH1 0x7 PUSH1 0x20 MSTORE PUSH2 0x10C7 PUSH1 0x40 PUSH0 KECCAK256 SWAP2 MLOAD ISZERO ISZERO DUP3 SWAP1 PUSH1 0xFF DUP1 NOT DUP4 SLOAD AND SWAP2 ISZERO ISZERO AND OR SWAP1 SSTORE JUMP JUMPDEST ADD SWAP3 MLOAD SWAP3 DUP4 MLOAD PUSH8 0xFFFFFFFFFFFFFFFF DUP2 GT PUSH2 0x1241 JUMPI PUSH2 0x10E6 DUP3 SLOAD PUSH2 0x1E8F JUMP JUMPDEST PUSH1 0x1F DUP2 GT PUSH2 0x11FC JUMPI JUMPDEST POP PUSH1 0x20 PUSH1 0x1F DUP3 GT PUSH1 0x1 EQ PUSH2 0x1178 JUMPI DUP2 SWAP1 PUSH32 0xEC31B5C87EA82F60C8BC1DD8262F275183D0D7BC8C37CDBBFD74130441818FBC SWAP6 SWAP7 PUSH0 SWAP3 PUSH2 0x116D JUMPI JUMPDEST POP POP DUP2 PUSH1 0x1 SHL SWAP2 PUSH0 NOT SWAP1 PUSH1 0x3 SHL SHR NOT AND OR SWAP1 SSTORE JUMPDEST DUP3 PUSH1 0x40 MLOAD SWAP2 PUSH1 0x20 DUP4 MSTORE DUP2 PUSH1 0x20 DUP5 ADD MSTORE PUSH1 0x40 DUP4 ADD CALLDATACOPY PUSH0 PUSH1 0x40 DUP5 DUP4 ADD ADD MSTORE PUSH1 0x40 DUP2 CALLER SWAP5 PUSH1 0x1F DUP1 NOT SWAP2 ADD AND DUP2 ADD SUB ADD SWAP1 LOG2 STOP JUMPDEST ADD MLOAD SWAP1 POP DUP7 DUP1 PUSH2 0x1129 JUMP JUMPDEST PUSH1 0x1F NOT DUP3 AND SWAP6 DUP4 PUSH0 MSTORE DUP2 PUSH0 KECCAK256 SWAP7 PUSH0 JUMPDEST DUP2 DUP2 LT PUSH2 0x11E4 JUMPI POP SWAP2 PUSH32 0xEC31B5C87EA82F60C8BC1DD8262F275183D0D7BC8C37CDBBFD74130441818FBC SWAP7 SWAP8 SWAP2 DUP5 PUSH1 0x1 SWAP6 SWAP5 LT PUSH2 0x11CC JUMPI JUMPDEST POP POP POP DUP2 SHL ADD SWAP1 SSTORE PUSH2 0x113D JUMP JUMPDEST ADD MLOAD PUSH0 NOT PUSH1 0xF8 DUP5 PUSH1 0x3 SHL AND SHR NOT AND SWAP1 SSTORE DUP7 DUP1 DUP1 PUSH2 0x11BF JUMP JUMPDEST DUP4 DUP4 ADD MLOAD DUP10 SSTORE PUSH1 0x1 SWAP1 SWAP9 ADD SWAP8 PUSH1 0x20 SWAP4 DUP5 ADD SWAP4 ADD PUSH2 0x1187 JUMP JUMPDEST DUP3 PUSH0 MSTORE PUSH1 0x20 PUSH0 KECCAK256 PUSH1 0x1F DUP4 ADD PUSH1 0x5 SHR DUP2 ADD SWAP2 PUSH1 0x20 DUP5 LT PUSH2 0x1237 JUMPI JUMPDEST PUSH1 0x1F ADD PUSH1 0x5 SHR ADD SWAP1 JUMPDEST DUP2 DUP2 LT PUSH2 0x122C JUMPI POP PUSH2 0x10EF JUMP JUMPDEST PUSH0 DUP2 SSTORE PUSH1 0x1 ADD PUSH2 0x121F JUMP JUMPDEST SWAP1 SWAP2 POP DUP2 SWAP1 PUSH2 0x1216 JUMP JUMPDEST PUSH4 0x4E487B71 PUSH1 0xE0 SHL PUSH0 MSTORE PUSH1 0x41 PUSH1 0x4 MSTORE PUSH1 0x24 PUSH0 REVERT JUMPDEST PUSH1 0x40 MLOAD PUSH3 0x461BCD PUSH1 0xE5 SHL DUP2 MSTORE PUSH1 0x20 PUSH1 0x4 DUP3 ADD MSTORE PUSH1 0x1E PUSH1 0x24 DUP3 ADD MSTORE PUSH32 0x5061796D656E744E46543A20616C726561647920726567697374657265640000 PUSH1 0x44 DUP3 ADD MSTORE PUSH1 0x64 SWAP1 REVERT JUMPDEST PUSH1 0x40 MLOAD PUSH3 0x461BCD PUSH1 0xE5 SHL DUP2 MSTORE PUSH1 0x20 PUSH1 0x4 DUP3 ADD MSTORE PUSH1 0x16 PUSH1 0x24 DUP3 ADD MSTORE PUSH22 0x5061796D656E744E46543A20656D707479206E616D65 PUSH1 0x50 SHL PUSH1 0x44 DUP3 ADD MSTORE PUSH1 0x64 SWAP1 REVERT JUMPDEST CALLVALUE PUSH2 0x159 JUMPI PUSH1 0x40 CALLDATASIZE PUSH1 0x3 NOT ADD SLT PUSH2 0x159 JUMPI PUSH2 0x12F1 PUSH2 0x1D78 JUMP JUMPDEST PUSH1 0x24 CALLDATALOAD SWAP1 DUP2 ISZERO ISZERO SWAP1 DUP2 DUP4 SUB PUSH2 0x159 JUMPI CALLER ISZERO PUSH2 0x1382 JUMPI PUSH1 0x1 PUSH1 0x1 PUSH1 0xA0 SHL SUB AND SWAP2 DUP3 ISZERO PUSH2 0x136F JUMPI PUSH2 0x1341 SWAP1 CALLER PUSH0 MSTORE PUSH1 0x5 PUSH1 0x20 MSTORE PUSH1 0x40 PUSH0 KECCAK256 DUP5 PUSH0 MSTORE PUSH1 0x20 MSTORE PUSH1 0x40 PUSH0 KECCAK256 SWAP1 PUSH1 0xFF DUP1 NOT DUP4 SLOAD AND SWAP2 ISZERO ISZERO AND OR SWAP1 SSTORE JUMP JUMPDEST PUSH1 0x40 MLOAD SWAP1 DUP2 MSTORE PUSH32 0x17307EAB39AB6107E8899845AD3D59BD9653F200F220920489CA2B5937696C31 PUSH1 0x20 CALLER SWAP3 LOG3 STOP JUMPDEST DUP3 PUSH4 0xB611743 PUSH1 0xE3 SHL PUSH0 MSTORE PUSH1 0x4 MSTORE PUSH1 0x24 PUSH0 REVERT JUMPDEST PUSH4 0xA9FBF51F PUSH1 0xE0 SHL PUSH0 MSTORE PUSH0 PUSH1 0x4 MSTORE PUSH1 0x24 PUSH0 REVERT JUMPDEST CALLVALUE PUSH2 0x159 JUMPI PUSH0 CALLDATASIZE PUSH1 0x3 NOT ADD SLT PUSH2 0x159 JUMPI PUSH1 0x40 MLOAD PUSH0 PUSH1 0x1 SLOAD PUSH2 0x13B5 DUP2 PUSH2 0x1E8F JUMP JUMPDEST DUP1 DUP5 MSTORE SWAP1 PUSH1 0x1 DUP2 AND SWAP1 DUP2 ISZERO PUSH2 0x144F JUMPI POP PUSH1 0x1 EQ PUSH2 0x13F1 JUMPI JUMPDEST PUSH2 0x155 DUP4 PUSH2 0x13DD DUP2 DUP6 SUB DUP3 PUSH2 0x1E1B JUMP JUMPDEST PUSH1 0x40 MLOAD SWAP2 DUP3 SWAP2 PUSH1 0x20 DUP4 MSTORE PUSH1 0x20 DUP4 ADD SWAP1 PUSH2 0x1D54 JUMP JUMPDEST PUSH1 0x1 PUSH0 SWAP1 DUP2 MSTORE PUSH32 0xB10E2D527612073B26EECDFD717E6A320CF44B4AFAC2B0732D9FCBE2B7FA0CF6 SWAP4 SWAP3 POP SWAP1 JUMPDEST DUP1 DUP3 LT PUSH2 0x1435 JUMPI POP SWAP1 SWAP2 POP DUP2 ADD PUSH1 0x20 ADD PUSH2 0x13DD PUSH2 0x13CD JUMP JUMPDEST SWAP2 SWAP3 PUSH1 0x1 DUP2 PUSH1 0x20 SWAP3 SLOAD DUP4 DUP6 DUP9 ADD ADD MSTORE ADD SWAP2 ADD SWAP1 SWAP3 SWAP2 PUSH2 0x141D JUMP JUMPDEST PUSH1 0xFF NOT AND PUSH1 0x20 DUP1 DUP7 ADD SWAP2 SWAP1 SWAP2 MSTORE SWAP2 ISZERO ISZERO PUSH1 0x5 SHL DUP5 ADD SWAP1 SWAP2 ADD SWAP2 POP PUSH2 0x13DD SWAP1 POP PUSH2 0x13CD JUMP JUMPDEST CALLVALUE PUSH2 0x159 JUMPI PUSH1 0x20 CALLDATASIZE PUSH1 0x3 NOT ADD SLT PUSH2 0x159 JUMPI PUSH1 0x1 PUSH1 0x1 PUSH1 0xA0 SHL SUB PUSH2 0x1494 PUSH2 0x1D78 JUMP JUMPDEST AND DUP1 PUSH0 MSTORE PUSH1 0x7 PUSH1 0x20 MSTORE PUSH1 0xFF PUSH1 0x40 PUSH0 KECCAK256 SLOAD AND ISZERO PUSH2 0x18F9 JUMPI CALLER DUP2 EQ PUSH2 0x18B4 JUMPI PUSH1 0x40 MLOAD PUSH4 0x23B872DD PUSH1 0xE0 SHL DUP2 MSTORE CALLER PUSH1 0x4 DUP3 ADD MSTORE PUSH1 0x24 DUP2 ADD DUP3 SWAP1 MSTORE PUSH3 0xF4240 PUSH1 0x44 DUP3 ADD MSTORE PUSH1 0x20 DUP2 PUSH1 0x64 DUP2 PUSH0 PUSH32 0x0 PUSH1 0x1 PUSH1 0x1 PUSH1 0xA0 SHL SUB AND GAS CALL SWAP1 DUP2 ISZERO PUSH2 0x18A9 JUMPI PUSH0 SWAP2 PUSH2 0x186E JUMPI JUMPDEST POP ISZERO PUSH2 0x182A JUMPI CALLER PUSH0 MSTORE PUSH1 0x8 PUSH1 0x20 MSTORE PUSH1 0x40 PUSH0 KECCAK256 DUP2 PUSH0 MSTORE PUSH1 0x20 MSTORE PUSH1 0x40 PUSH0 KECCAK256 DUP1 SLOAD SWAP1 PUSH1 0x1 DUP3 ADD DUP1 SWAP3 GT PUSH2 0x1816 JUMPI SSTORE CALLER PUSH0 MSTORE PUSH1 0x8 PUSH1 0x20 MSTORE PUSH1 0x40 PUSH0 KECCAK256 DUP2 PUSH0 MSTORE PUSH1 0x20 MSTORE PUSH1 0x40 PUSH0 KECCAK256 SLOAD SWAP1 PUSH1 0x6 SLOAD SWAP1 PUSH1 0x1 DUP3 ADD PUSH1 0x6 SSTORE PUSH1 0x40 MLOAD PUSH2 0x156F DUP2 PUSH2 0x1DFF JUMP JUMPDEST CALLER DUP2 MSTORE PUSH1 0x20 DUP1 DUP3 ADD DUP4 DUP2 MSTORE PUSH1 0x40 DUP1 DUP5 ADD DUP8 DUP2 MSTORE PUSH0 DUP8 DUP2 MSTORE PUSH1 0x9 DUP6 MSTORE DUP3 SWAP1 KECCAK256 SWAP5 MLOAD DUP6 SLOAD PUSH1 0x1 PUSH1 0x1 PUSH1 0xA0 SHL SUB NOT SWAP1 DUP2 AND PUSH1 0x1 PUSH1 0x1 PUSH1 0xA0 SHL SUB SWAP3 DUP4 AND OR DUP8 SSTORE SWAP4 MLOAD PUSH1 0x1 DUP8 ADD DUP1 SLOAD SWAP1 SWAP6 AND SWAP2 AND OR SWAP1 SWAP3 SSTORE SWAP1 MLOAD PUSH1 0x2 SWAP4 SWAP1 SWAP4 ADD SWAP3 SWAP1 SWAP3 SSTORE SWAP1 MLOAD SWAP1 SWAP4 SWAP1 PUSH2 0x15D7 DUP6 DUP3 PUSH2 0x1E1B JUMP JUMPDEST PUSH0 DUP2 MSTORE CALLER ISZERO PUSH2 0x1803 JUMPI PUSH0 DUP5 DUP2 MSTORE PUSH1 0x2 DUP7 MSTORE PUSH1 0x40 SWAP1 KECCAK256 SLOAD PUSH1 0x1 PUSH1 0x1 PUSH1 0xA0 SHL SUB AND DUP1 ISZERO ISZERO SWAP1 DUP2 PUSH2 0x17D2 JUMPI JUMPDEST CALLER PUSH0 DUP2 DUP2 MSTORE PUSH1 0x3 DUP10 MSTORE PUSH1 0x40 DUP1 DUP3 KECCAK256 DUP1 SLOAD PUSH1 0x1 ADD SWAP1 SSTORE DUP9 DUP3 MSTORE PUSH1 0x2 DUP11 MSTORE DUP2 KECCAK256 DUP1 SLOAD PUSH1 0x1 PUSH1 0x1 PUSH1 0xA0 SHL SUB NOT AND DUP4 OR SWAP1 SSTORE DUP8 SWAP2 SWAP1 DUP4 SWAP1 PUSH32 0xDDF252AD1BE2C89B69C2B068FC378DAA952BA7F163C4A11628F55A4DF523B3EF SWAP1 DUP1 LOG4 POP PUSH2 0x17BF JUMPI CALLER EXTCODESIZE PUSH2 0x16A8 JUMPI JUMPDEST POP PUSH2 0x1680 DUP5 PUSH2 0x1671 DUP4 PUSH2 0x2128 JUMP JUMPDEST SWAP1 PUSH1 0x40 MLOAD SWAP4 DUP5 MSTORE DUP4 ADD SWAP1 PUSH2 0x1DDE JUMP JUMPDEST PUSH32 0xF35F1F16F2541A8F5C4870AE5CF7E4BE7E22659D12E6E3021B1A49F552959E28 PUSH1 0x40 CALLER SWAP3 LOG4 STOP JUMPDEST DUP5 PUSH2 0x16E1 SWAP2 PUSH1 0x40 MLOAD DUP1 SWAP4 DUP2 SWAP3 PUSH4 0xA85BD01 PUSH1 0xE1 SHL DUP4 MSTORE CALLER PUSH1 0x4 DUP5 ADD MSTORE PUSH0 PUSH1 0x24 DUP5 ADD MSTORE DUP9 PUSH1 0x44 DUP5 ADD MSTORE PUSH1 0x80 PUSH1 0x64 DUP5 ADD MSTORE PUSH1 0x84 DUP4 ADD SWAP1 PUSH2 0x1D54 JUMP JUMPDEST SUB DUP2 PUSH0 CALLER GAS CALL PUSH0 SWAP2 DUP2 PUSH2 0x177F JUMPI JUMPDEST POP PUSH2 0x1743 JUMPI DUP5 RETURNDATASIZE ISZERO PUSH2 0x173B JUMPI RETURNDATASIZE SWAP1 PUSH2 0x1706 DUP3 PUSH2 0x1E3D JUMP JUMPDEST SWAP2 PUSH2 0x1714 PUSH1 0x40 MLOAD SWAP4 DUP5 PUSH2 0x1E1B JUMP JUMPDEST DUP3 MSTORE RETURNDATASIZE PUSH0 DUP3 DUP5 ADD RETURNDATACOPY JUMPDEST DUP2 MLOAD SWAP2 DUP3 PUSH2 0x1738 JUMPI PUSH4 0x32505749 PUSH1 0xE1 SHL PUSH0 MSTORE CALLER PUSH1 0x4 MSTORE PUSH1 0x24 PUSH0 REVERT JUMPDEST ADD REVERT JUMPDEST PUSH1 0x60 SWAP1 PUSH2 0x171D JUMP JUMPDEST SWAP3 SWAP4 SWAP2 SWAP3 SWAP1 SWAP2 SWAP1 PUSH1 0x1 PUSH1 0x1 PUSH1 0xE0 SHL SUB NOT AND PUSH4 0x757A42FF PUSH1 0xE1 SHL ADD PUSH2 0x176C JUMPI SWAP3 SWAP2 SWAP1 PUSH2 0x1680 PUSH2 0x1663 JUMP JUMPDEST PUSH4 0x32505749 PUSH1 0xE1 SHL PUSH0 MSTORE CALLER PUSH1 0x4 MSTORE PUSH1 0x24 PUSH0 REVERT JUMPDEST SWAP1 SWAP2 POP DUP6 DUP2 DUP2 RETURNDATASIZE DUP4 GT PUSH2 0x17B8 JUMPI JUMPDEST PUSH2 0x1797 DUP2 DUP4 PUSH2 0x1E1B JUMP JUMPDEST DUP2 ADD SUB SLT PUSH2 0x159 JUMPI MLOAD PUSH1 0x1 PUSH1 0x1 PUSH1 0xE0 SHL SUB NOT DUP2 AND DUP2 SUB PUSH2 0x159 JUMPI SWAP1 DUP7 PUSH2 0x16EF JUMP JUMPDEST POP RETURNDATASIZE PUSH2 0x178D JUMP JUMPDEST PUSH4 0x39E35637 PUSH1 0xE1 SHL PUSH0 MSTORE PUSH0 PUSH1 0x4 MSTORE PUSH1 0x24 PUSH0 REVERT JUMPDEST PUSH0 DUP7 DUP2 MSTORE PUSH1 0x4 PUSH1 0x20 MSTORE PUSH1 0x40 DUP1 DUP3 KECCAK256 DUP1 SLOAD PUSH1 0x1 PUSH1 0x1 PUSH1 0xA0 SHL SUB NOT AND SWAP1 SSTORE DUP3 DUP3 MSTORE PUSH1 0x3 DUP10 MSTORE SWAP1 KECCAK256 DUP1 SLOAD PUSH0 NOT ADD SWAP1 SSTORE PUSH2 0x1600 JUMP JUMPDEST PUSH4 0x32505749 PUSH1 0xE1 SHL PUSH0 MSTORE PUSH0 PUSH1 0x4 MSTORE PUSH1 0x24 PUSH0 REVERT JUMPDEST PUSH4 0x4E487B71 PUSH1 0xE0 SHL PUSH0 MSTORE PUSH1 0x11 PUSH1 0x4 MSTORE PUSH1 0x24 PUSH0 REVERT JUMPDEST PUSH1 0x64 PUSH1 0x40 MLOAD PUSH3 0x461BCD PUSH1 0xE5 SHL DUP2 MSTORE PUSH1 0x20 PUSH1 0x4 DUP3 ADD MSTORE PUSH1 0x20 PUSH1 0x24 DUP3 ADD MSTORE PUSH32 0x5061796D656E744E46543A2055534443207472616E73666572206661696C6564 PUSH1 0x44 DUP3 ADD MSTORE REVERT JUMPDEST SWAP1 POP PUSH1 0x20 DUP2 RETURNDATASIZE PUSH1 0x20 GT PUSH2 0x18A1 JUMPI JUMPDEST DUP2 PUSH2 0x1889 PUSH1 0x20 SWAP4 DUP4 PUSH2 0x1E1B JUMP JUMPDEST DUP2 ADD SUB SLT PUSH2 0x159 JUMPI MLOAD DUP1 ISZERO ISZERO DUP2 SUB PUSH2 0x159 JUMPI DUP3 PUSH2 0x1515 JUMP JUMPDEST RETURNDATASIZE SWAP2 POP PUSH2 0x187C JUMP JUMPDEST PUSH1 0x40 MLOAD RETURNDATASIZE PUSH0 DUP3 RETURNDATACOPY RETURNDATASIZE SWAP1 REVERT JUMPDEST PUSH1 0x40 MLOAD PUSH3 0x461BCD PUSH1 0xE5 SHL DUP2 MSTORE PUSH1 0x20 PUSH1 0x4 DUP3 ADD MSTORE PUSH1 0x1F PUSH1 0x24 DUP3 ADD MSTORE PUSH32 0x5061796D656E744E46543A2063616E6E6F742070617920796F757273656C6600 PUSH1 0x44 DUP3 ADD MSTORE PUSH1 0x64 SWAP1 REVERT JUMPDEST PUSH1 0x40 MLOAD PUSH3 0x461BCD PUSH1 0xE5 SHL DUP2 MSTORE PUSH1 0x20 PUSH1 0x4 DUP3 ADD MSTORE PUSH1 0x23 PUSH1 0x24 DUP3 ADD MSTORE PUSH32 0x5061796D656E744E46543A206D65726368616E74206E6F742072656769737465 PUSH1 0x44 DUP3 ADD MSTORE PUSH3 0x1C9959 PUSH1 0xEA SHL PUSH1 0x64 DUP3 ADD MSTORE PUSH1 0x84 SWAP1 REVERT JUMPDEST CALLVALUE PUSH2 0x159 JUMPI PUSH1 0x20 CALLDATASIZE PUSH1 0x3 NOT ADD SLT PUSH2 0x159 JUMPI PUSH1 0x1 PUSH1 0x1 PUSH1 0xA0 SHL SUB PUSH2 0x196B PUSH2 0x1D78 JUMP JUMPDEST AND DUP1 ISZERO PUSH2 0x1988 JUMPI PUSH0 MSTORE PUSH1 0x3 PUSH1 0x20 MSTORE PUSH1 0x20 PUSH1 0x40 PUSH0 KECCAK256 SLOAD PUSH1 0x40 MLOAD SWAP1 DUP2 MSTORE RETURN JUMPDEST PUSH4 0x22718AD9 PUSH1 0xE2 SHL PUSH0 MSTORE PUSH0 PUSH1 0x4 MSTORE PUSH1 0x24 PUSH0 REVERT JUMPDEST CALLVALUE PUSH2 0x159 JUMPI PUSH1 0x40 CALLDATASIZE PUSH1 0x3 NOT ADD SLT PUSH2 0x159 JUMPI PUSH2 0x19B4 PUSH2 0x1D78 JUMP JUMPDEST PUSH2 0x19BC PUSH2 0x1D8E JUMP JUMPDEST PUSH1 0x1 PUSH1 0x1 PUSH1 0xA0 SHL SUB SWAP2 DUP3 AND PUSH0 SWAP1 DUP2 MSTORE PUSH1 0x8 PUSH1 0x20 SWAP1 DUP2 MSTORE PUSH1 0x40 DUP1 DUP4 KECCAK256 SWAP5 SWAP1 SWAP4 AND DUP3 MSTORE SWAP3 DUP4 MSTORE KECCAK256 SLOAD PUSH2 0x19EB SWAP1 PUSH2 0x2128 JUMP JUMPDEST PUSH2 0x19F8 PUSH1 0x40 MLOAD DUP1 SWAP3 PUSH2 0x1DDE JUMP JUMPDEST RETURN JUMPDEST CALLVALUE PUSH2 0x159 JUMPI PUSH0 CALLDATASIZE PUSH1 0x3 NOT ADD SLT PUSH2 0x159 JUMPI PUSH1 0x20 PUSH1 0x40 MLOAD PUSH3 0xF4240 DUP2 MSTORE RETURN JUMPDEST CALLVALUE PUSH2 0x159 JUMPI PUSH1 0x20 CALLDATASIZE PUSH1 0x3 NOT ADD SLT PUSH2 0x159 JUMPI PUSH1 0x20 PUSH2 0x1A35 PUSH1 0x4 CALLDATALOAD PUSH2 0x20F4 JUMP JUMPDEST PUSH1 0x40 MLOAD PUSH1 0x1 PUSH1 0x1 PUSH1 0xA0 SHL SUB SWAP1 SWAP2 AND DUP2 MSTORE RETURN JUMPDEST CALLVALUE PUSH2 0x159 JUMPI PUSH2 0xFFC PUSH2 0x1A58 CALLDATASIZE PUSH2 0x1DA4 JUMP JUMPDEST SWAP1 PUSH1 0x40 MLOAD SWAP3 PUSH2 0x1A68 PUSH1 0x20 DUP6 PUSH2 0x1E1B JUMP JUMPDEST PUSH0 DUP5 MSTORE PUSH2 0xFF6 DUP4 DUP4 DUP4 PUSH2 0x1F67 JUMP JUMPDEST CALLVALUE PUSH2 0x159 JUMPI PUSH0 CALLDATASIZE PUSH1 0x3 NOT ADD SLT PUSH2 0x159 JUMPI PUSH1 0x40 MLOAD PUSH32 0x0 PUSH1 0x1 PUSH1 0x1 PUSH1 0xA0 SHL SUB AND DUP2 MSTORE PUSH1 0x20 SWAP1 RETURN JUMPDEST CALLVALUE PUSH2 0x159 JUMPI PUSH1 0x40 CALLDATASIZE PUSH1 0x3 NOT ADD SLT PUSH2 0x159 JUMPI PUSH2 0x1AD3 PUSH2 0x1D78 JUMP JUMPDEST PUSH2 0x1ADB PUSH2 0x1D8E JUMP JUMPDEST PUSH1 0x1 PUSH1 0x1 PUSH1 0xA0 SHL SUB SWAP2 DUP3 AND PUSH0 SWAP1 DUP2 MSTORE PUSH1 0x8 PUSH1 0x20 SWAP1 DUP2 MSTORE PUSH1 0x40 DUP1 DUP4 KECCAK256 SWAP5 SWAP1 SWAP4 AND DUP3 MSTORE SWAP3 DUP4 MSTORE DUP2 SWAP1 KECCAK256 SLOAD SWAP1 MLOAD SWAP1 DUP2 MSTORE RETURN JUMPDEST CALLVALUE PUSH2 0x159 JUMPI PUSH2 0xFFC PUSH2 0x1B1B CALLDATASIZE PUSH2 0x1DA4 JUMP JUMPDEST SWAP2 PUSH2 0x1F67 JUMP JUMPDEST CALLVALUE PUSH2 0x159 JUMPI PUSH1 0x40 CALLDATASIZE PUSH1 0x3 NOT ADD SLT PUSH2 0x159 JUMPI PUSH2 0x1B3A PUSH2 0x1D78 JUMP JUMPDEST PUSH1 0x24 CALLDATALOAD PUSH2 0x1B46 DUP2 PUSH2 0x20F4 JUMP JUMPDEST CALLER ISZERO ISZERO DUP1 PUSH2 0x1BF8 JUMPI JUMPDEST DUP1 PUSH2 0x1BCB JUMPI JUMPDEST PUSH2 0x1BB8 JUMPI DUP2 SWAP1 PUSH1 0x1 PUSH1 0x1 PUSH1 0xA0 SHL SUB DUP5 DUP2 AND SWAP2 AND PUSH32 0x8C5BE1E5EBEC7D5BD14F71427D1E84F3DD0314C0F7B2291E5B200AC8C7C3B925 PUSH0 DUP1 LOG4 PUSH0 SWAP1 DUP2 MSTORE PUSH1 0x4 PUSH1 0x20 MSTORE PUSH1 0x40 SWAP1 KECCAK256 DUP1 SLOAD PUSH1 0x1 PUSH1 0x1 PUSH1 0xA0 SHL SUB NOT AND PUSH1 0x1 PUSH1 0x1 PUSH1 0xA0 SHL SUB SWAP1 SWAP3 AND SWAP2 SWAP1 SWAP2 OR SWAP1 SSTORE STOP JUMPDEST PUSH4 0xA9FBF51F PUSH1 0xE0 SHL PUSH0 MSTORE CALLER PUSH1 0x4 MSTORE PUSH1 0x24 PUSH0 REVERT JUMPDEST POP PUSH1 0x1 PUSH1 0x1 PUSH1 0xA0 SHL SUB DUP2 AND PUSH0 SWAP1 DUP2 MSTORE PUSH1 0x5 PUSH1 0x20 SWAP1 DUP2 MSTORE PUSH1 0x40 DUP1 DUP4 KECCAK256 CALLER DUP5 MSTORE SWAP1 SWAP2 MSTORE SWAP1 KECCAK256 SLOAD PUSH1 0xFF AND ISZERO PUSH2 0x1B55 JUMP JUMPDEST POP PUSH1 0x1 PUSH1 0x1 PUSH1 0xA0 SHL SUB DUP2 AND CALLER EQ ISZERO PUSH2 0x1B4F JUMP JUMPDEST CALLVALUE PUSH2 0x159 JUMPI PUSH1 0x20 CALLDATASIZE PUSH1 0x3 NOT ADD SLT PUSH2 0x159 JUMPI PUSH1 0x4 CALLDATALOAD PUSH2 0x1C28 DUP2 PUSH2 0x20F4 JUMP JUMPDEST POP PUSH0 MSTORE PUSH1 0x4 PUSH1 0x20 MSTORE PUSH1 0x20 PUSH1 0x1 DUP1 PUSH1 0xA0 SHL SUB PUSH1 0x40 PUSH0 KECCAK256 SLOAD AND PUSH1 0x40 MLOAD SWAP1 DUP2 MSTORE RETURN JUMPDEST CALLVALUE PUSH2 0x159 JUMPI PUSH0 CALLDATASIZE PUSH1 0x3 NOT ADD SLT PUSH2 0x159 JUMPI PUSH1 0x40 MLOAD PUSH0 PUSH0 SLOAD PUSH2 0x1C66 DUP2 PUSH2 0x1E8F JUMP JUMPDEST DUP1 DUP5 MSTORE SWAP1 PUSH1 0x1 DUP2 AND SWAP1 DUP2 ISZERO PUSH2 0x144F JUMPI POP PUSH1 0x1 EQ PUSH2 0x1C8D JUMPI PUSH2 0x155 DUP4 PUSH2 0x13DD DUP2 DUP6 SUB DUP3 PUSH2 0x1E1B JUMP JUMPDEST PUSH0 DUP1 DUP1 MSTORE PUSH32 0x290DECD9548B62A8D60345A988386FC84BA6BC95484008F6362F93160EF3E563 SWAP4 SWAP3 POP SWAP1 JUMPDEST DUP1 DUP3 LT PUSH2 0x1CCF JUMPI POP SWAP1 SWAP2 POP DUP2 ADD PUSH1 0x20 ADD PUSH2 0x13DD PUSH2 0x13CD JUMP JUMPDEST SWAP2 SWAP3 PUSH1 0x1 DUP2 PUSH1 0x20 SWAP3 SLOAD DUP4 DUP6 DUP9 ADD ADD MSTORE ADD SWAP2 ADD SWAP1 SWAP3 SWAP2 PUSH2 0x1CB7 JUMP JUMPDEST CALLVALUE PUSH2 0x159 JUMPI PUSH1 0x20 CALLDATASIZE PUSH1 0x3 NOT ADD SLT PUSH2 0x159 JUMPI PUSH1 0x4 CALLDATALOAD SWAP1 PUSH4 0xFFFFFFFF PUSH1 0xE0 SHL DUP3 AND DUP1 SWAP3 SUB PUSH2 0x159 JUMPI PUSH1 0x20 SWAP2 PUSH4 0x80AC58CD PUSH1 0xE0 SHL DUP2 EQ SWAP1 DUP2 ISZERO PUSH2 0x1D43 JUMPI JUMPDEST DUP2 ISZERO PUSH2 0x1D32 JUMPI JUMPDEST POP ISZERO ISZERO DUP2 MSTORE RETURN JUMPDEST PUSH4 0x1FFC9A7 PUSH1 0xE0 SHL EQ SWAP1 POP DUP4 PUSH2 0x1D2B JUMP JUMPDEST PUSH4 0x5B5E139F PUSH1 0xE0 SHL DUP2 EQ SWAP2 POP PUSH2 0x1D24 JUMP JUMPDEST DUP1 MLOAD DUP1 DUP4 MSTORE PUSH1 0x20 SWAP3 SWAP2 DUP2 SWAP1 DUP5 ADD DUP5 DUP5 ADD MCOPY PUSH0 DUP3 DUP3 ADD DUP5 ADD MSTORE PUSH1 0x1F ADD PUSH1 0x1F NOT AND ADD ADD SWAP1 JUMP JUMPDEST PUSH1 0x4 CALLDATALOAD SWAP1 PUSH1 0x1 PUSH1 0x1 PUSH1 0xA0 SHL SUB DUP3 AND DUP3 SUB PUSH2 0x159 JUMPI JUMP JUMPDEST PUSH1 0x24 CALLDATALOAD SWAP1 PUSH1 0x1 PUSH1 0x1 PUSH1 0xA0 SHL SUB DUP3 AND DUP3 SUB PUSH2 0x159 JUMPI JUMP JUMPDEST PUSH1 0x60 SWAP1 PUSH1 0x3 NOT ADD SLT PUSH2 0x159 JUMPI PUSH1 0x4 CALLDATALOAD PUSH1 0x1 PUSH1 0x1 PUSH1 0xA0 SHL SUB DUP2 AND DUP2 SUB PUSH2 0x159 JUMPI SWAP1 PUSH1 0x24 CALLDATALOAD PUSH1 0x1 PUSH1 0x1 PUSH1 0xA0 SHL SUB DUP2 AND DUP2 SUB PUSH2 0x159 JUMPI SWAP1 PUSH1 0x44 CALLDATALOAD SWAP1 JUMP JUMPDEST SWAP1 PUSH1 0x3 DUP3 LT ISZERO PUSH2 0x1DEB JUMPI MSTORE JUMP JUMPDEST PUSH4 0x4E487B71 PUSH1 0xE0 SHL PUSH0 MSTORE PUSH1 0x21 PUSH1 0x4 MSTORE PUSH1 0x24 PUSH0 REVERT JUMPDEST PUSH1 0x60 DUP2 ADD SWAP1 DUP2 LT PUSH8 0xFFFFFFFFFFFFFFFF DUP3 GT OR PUSH2 0x1241 JUMPI PUSH1 0x40 MSTORE JUMP JUMPDEST SWAP1 PUSH1 0x1F DUP1 NOT SWAP2 ADD AND DUP2 ADD SWAP1 DUP2 LT PUSH8 0xFFFFFFFFFFFFFFFF DUP3 GT OR PUSH2 0x1241 JUMPI PUSH1 0x40 MSTORE JUMP JUMPDEST PUSH8 0xFFFFFFFFFFFFFFFF DUP2 GT PUSH2 0x1241 JUMPI PUSH1 0x1F ADD PUSH1 0x1F NOT AND PUSH1 0x20 ADD SWAP1 JUMP JUMPDEST SWAP3 SWAP2 SWAP3 PUSH2 0x1E65 DUP3 PUSH2 0x1E3D JUMP JUMPDEST SWAP2 PUSH2 0x1E73 PUSH1 0x40 MLOAD SWAP4 DUP5 PUSH2 0x1E1B JUMP JUMPDEST DUP3 SWAP5 DUP2 DUP5 MSTORE DUP2 DUP4 ADD GT PUSH2 0x159 JUMPI DUP3 DUP2 PUSH1 0x20 SWAP4 DUP5 PUSH0 SWAP7 ADD CALLDATACOPY ADD ADD MSTORE JUMP JUMPDEST SWAP1 PUSH1 0x1 DUP3 DUP2 SHR SWAP3 AND DUP1 ISZERO PUSH2 0x1EBD JUMPI JUMPDEST PUSH1 0x20 DUP4 LT EQ PUSH2 0x1EA9 JUMPI JUMP JUMPDEST PUSH4 0x4E487B71 PUSH1 0xE0 SHL PUSH0 MSTORE PUSH1 0x22 PUSH1 0x4 MSTORE PUSH1 0x24 PUSH0 REVERT JUMPDEST SWAP2 PUSH1 0x7F AND SWAP2 PUSH2 0x1E9E JUMP JUMPDEST SWAP1 PUSH1 0x40 MLOAD SWAP2 DUP3 PUSH0 DUP3 SLOAD SWAP3 PUSH2 0x1EDA DUP5 PUSH2 0x1E8F JUMP JUMPDEST DUP1 DUP5 MSTORE SWAP4 PUSH1 0x1 DUP2 AND SWAP1 DUP2 ISZERO PUSH2 0x1F45 JUMPI POP PUSH1 0x1 EQ PUSH2 0x1F01 JUMPI JUMPDEST POP PUSH2 0x1EFF SWAP3 POP SUB DUP4 PUSH2 0x1E1B JUMP JUMPDEST JUMP JUMPDEST SWAP1 POP PUSH0 SWAP3 SWAP2 SWAP3 MSTORE PUSH1 0x20 PUSH0 KECCAK256 SWAP1 PUSH0 SWAP2 JUMPDEST DUP2 DUP4 LT PUSH2 0x1F29 JUMPI POP POP SWAP1 PUSH1 0x20 PUSH2 0x1EFF SWAP3 DUP3 ADD ADD PUSH0 PUSH2 0x1EF2 JUMP JUMPDEST PUSH1 0x20 SWAP2 SWAP4 POP DUP1 PUSH1 0x1 SWAP2 SLOAD DUP4 DUP6 DUP10 ADD ADD MSTORE ADD SWAP2 ADD SWAP1 SWAP2 DUP5 SWAP3 PUSH2 0x1F10 JUMP JUMPDEST SWAP1 POP PUSH1 0x20 SWAP3 POP PUSH2 0x1EFF SWAP5 SWAP2 POP PUSH1 0xFF NOT AND DUP3 DUP5 ADD MSTORE ISZERO ISZERO PUSH1 0x5 SHL DUP3 ADD ADD PUSH0 PUSH2 0x1EF2 JUMP JUMPDEST PUSH1 0x1 PUSH1 0x1 PUSH1 0xA0 SHL SUB SWAP1 SWAP2 AND SWAP2 SWAP1 DUP3 ISZERO PUSH2 0x1803 JUMPI PUSH0 DUP3 DUP2 MSTORE PUSH1 0x2 PUSH1 0x20 MSTORE PUSH1 0x40 SWAP1 KECCAK256 SLOAD PUSH1 0x1 PUSH1 0x1 PUSH1 0xA0 SHL SUB AND SWAP3 DUP3 SWAP1 CALLER ISZERO ISZERO DUP1 PUSH2 0x205F JUMPI JUMPDEST POP DUP5 PUSH2 0x202C JUMPI JUMPDEST DUP1 PUSH0 MSTORE PUSH1 0x3 PUSH1 0x20 MSTORE PUSH1 0x40 PUSH0 KECCAK256 PUSH1 0x1 DUP2 SLOAD ADD SWAP1 SSTORE DUP2 PUSH0 MSTORE PUSH1 0x2 PUSH1 0x20 MSTORE PUSH1 0x40 PUSH0 KECCAK256 DUP2 PUSH12 0xFFFFFFFFFFFFFFFFFFFFFFFF PUSH1 0xA0 SHL DUP3 SLOAD AND OR SWAP1 SSTORE DUP5 PUSH32 0xDDF252AD1BE2C89B69C2B068FC378DAA952BA7F163C4A11628F55A4DF523B3EF PUSH0 DUP1 LOG4 PUSH1 0x1 PUSH1 0x1 PUSH1 0xA0 SHL SUB AND DUP1 DUP4 SUB PUSH2 0x2014 JUMPI POP POP POP JUMP JUMPDEST PUSH4 0x64283D7B PUSH1 0xE0 SHL PUSH0 MSTORE PUSH1 0x4 MSTORE PUSH1 0x24 MSTORE PUSH1 0x44 MSTORE PUSH1 0x64 PUSH0 REVERT JUMPDEST PUSH0 DUP3 DUP2 MSTORE PUSH1 0x4 PUSH1 0x20 MSTORE PUSH1 0x40 SWAP1 KECCAK256 DUP1 SLOAD PUSH1 0x1 PUSH1 0x1 PUSH1 0xA0 SHL SUB NOT AND SWAP1 SSTORE DUP5 PUSH0 MSTORE PUSH1 0x3 PUSH1 0x20 MSTORE PUSH1 0x40 PUSH0 KECCAK256 PUSH0 NOT DUP2 SLOAD ADD SWAP1 SSTORE PUSH2 0x1FA4 JUMP JUMPDEST SWAP1 SWAP2 POP DUP1 PUSH2 0x20A3 JUMPI JUMPDEST ISZERO PUSH2 0x2075 JUMPI DUP3 SWAP1 PUSH0 PUSH2 0x1F9D JUMP JUMPDEST DUP3 DUP5 PUSH2 0x208D JUMPI PUSH4 0x7E273289 PUSH1 0xE0 SHL PUSH0 MSTORE PUSH1 0x4 MSTORE PUSH1 0x24 PUSH0 REVERT JUMPDEST PUSH4 0x177E802F PUSH1 0xE0 SHL PUSH0 MSTORE CALLER PUSH1 0x4 MSTORE PUSH1 0x24 MSTORE PUSH1 0x44 PUSH0 REVERT JUMPDEST POP CALLER DUP5 EQ DUP1 ISZERO PUSH2 0x20D2 JUMPI JUMPDEST DUP1 PUSH2 0x2068 JUMPI POP PUSH0 DUP4 DUP2 MSTORE PUSH1 0x4 PUSH1 0x20 MSTORE PUSH1 0x40 SWAP1 KECCAK256 SLOAD PUSH1 0x1 PUSH1 0x1 PUSH1 0xA0 SHL SUB AND CALLER EQ PUSH2 0x2068 JUMP JUMPDEST POP PUSH0 DUP5 DUP2 MSTORE PUSH1 0x5 PUSH1 0x20 SWAP1 DUP2 MSTORE PUSH1 0x40 DUP1 DUP4 KECCAK256 CALLER DUP5 MSTORE SWAP1 SWAP2 MSTORE SWAP1 KECCAK256 SLOAD PUSH1 0xFF AND PUSH2 0x20AE JUMP JUMPDEST PUSH0 DUP2 DUP2 MSTORE PUSH1 0x2 PUSH1 0x20 MSTORE PUSH1 0x40 SWAP1 KECCAK256 SLOAD PUSH1 0x1 PUSH1 0x1 PUSH1 0xA0 SHL SUB AND SWAP1 DUP2 ISZERO PUSH2 0x2116 JUMPI POP SWAP1 JUMP JUMPDEST PUSH4 0x7E273289 PUSH1 0xE0 SHL PUSH0 MSTORE PUSH1 0x4 MSTORE PUSH1 0x24 PUSH0 REVERT JUMPDEST PUSH1 0x32 DUP2 LT ISZERO PUSH2 0x2142 JUMPI PUSH1 0xA GT ISZERO PUSH2 0x213D JUMPI PUSH0 SWAP1 JUMP JUMPDEST PUSH1 0x1 SWAP1 JUMP JUMPDEST POP PUSH1 0x2 SWAP1 JUMP JUMPDEST DUP3 EXTCODESIZE PUSH2 0x2156 JUMPI JUMPDEST POP POP POP POP POP JUMP JUMPDEST PUSH1 0x40 MLOAD PUSH4 0xA85BD01 PUSH1 0xE1 SHL DUP2 MSTORE PUSH1 0x1 PUSH1 0x1 PUSH1 0xA0 SHL SUB SWAP2 DUP3 AND PUSH1 0x4 DUP3 ADD MSTORE SWAP2 DUP2 AND PUSH1 0x24 DUP4 ADD MSTORE PUSH1 0x44 DUP3 ADD SWAP4 SWAP1 SWAP4 MSTORE PUSH1 0x80 PUSH1 0x64 DUP3 ADD MSTORE SWAP2 AND SWAP2 PUSH1 0x20 SWAP1 DUP3 SWAP1 DUP2 SWAP1 PUSH2 0x21A2 SWAP1 PUSH1 0x84 DUP4 ADD SWAP1 PUSH2 0x1D54 JUMP JUMPDEST SUB DUP2 PUSH0 DUP7 GAS CALL PUSH0 SWAP2 DUP2 PUSH2 0x2239 JUMPI JUMPDEST POP PUSH2 0x2205 JUMPI POP RETURNDATASIZE ISZERO PUSH2 0x21FE JUMPI RETURNDATASIZE PUSH2 0x21C6 DUP2 PUSH2 0x1E3D JUMP JUMPDEST SWAP1 PUSH2 0x21D4 PUSH1 0x40 MLOAD SWAP3 DUP4 PUSH2 0x1E1B JUMP JUMPDEST DUP2 MSTORE RETURNDATASIZE PUSH0 PUSH1 0x20 DUP4 ADD RETURNDATACOPY JUMPDEST DUP1 MLOAD SWAP1 DUP2 PUSH2 0x21F9 JUMPI DUP3 PUSH4 0x32505749 PUSH1 0xE1 SHL PUSH0 MSTORE PUSH1 0x4 MSTORE PUSH1 0x24 PUSH0 REVERT JUMPDEST PUSH1 0x20 ADD REVERT JUMPDEST PUSH1 0x60 PUSH2 0x21DE JUMP JUMPDEST PUSH1 0x1 PUSH1 0x1 PUSH1 0xE0 SHL SUB NOT AND PUSH4 0x757A42FF PUSH1 0xE1 SHL ADD PUSH2 0x2227 JUMPI POP PUSH0 DUP1 DUP1 DUP1 DUP1 PUSH2 0x214F JUMP JUMPDEST PUSH4 0x32505749 PUSH1 0xE1 SHL PUSH0 MSTORE PUSH1 0x4 MSTORE PUSH1 0x24 PUSH0 REVERT JUMPDEST SWAP1 SWAP2 POP PUSH1 0x20 DUP2 RETURNDATASIZE PUSH1 0x20 GT PUSH2 0x2276 JUMPI JUMPDEST DUP2 PUSH2 0x2255 PUSH1 0x20 SWAP4 DUP4 PUSH2 0x1E1B JUMP JUMPDEST DUP2 ADD SUB SLT PUSH2 0x159 JUMPI MLOAD PUSH1 0x1 PUSH1 0x1 PUSH1 0xE0 SHL SUB NOT DUP2 AND DUP2 SUB PUSH2 0x159 JUMPI SWAP1 PUSH0 PUSH2 0x21B0 JUMP JUMPDEST RETURNDATASIZE SWAP2 POP PUSH2 0x2248 JUMP JUMPDEST PUSH1 0x3 DUP2 LT ISZERO PUSH2 0x1DEB JUMPI PUSH1 0x2 DUP2 EQ PUSH2 0x22DE JUMPI PUSH1 0x1 EQ PUSH2 0x22BA JUMPI PUSH1 0x40 MLOAD PUSH2 0x22A4 PUSH1 0x40 DUP3 PUSH2 0x1E1B JUMP JUMPDEST PUSH1 0x6 DUP2 MSTORE PUSH6 0x42726F6E7A65 PUSH1 0xD0 SHL PUSH1 0x20 DUP3 ADD MSTORE SWAP1 JUMP JUMPDEST PUSH1 0x40 MLOAD PUSH2 0x22C8 PUSH1 0x40 DUP3 PUSH2 0x1E1B JUMP JUMPDEST PUSH1 0x6 DUP2 MSTORE PUSH6 0x29B4B63B32B9 PUSH1 0xD1 SHL PUSH1 0x20 DUP3 ADD MSTORE SWAP1 JUMP JUMPDEST POP PUSH1 0x40 MLOAD PUSH2 0x22ED PUSH1 0x40 DUP3 PUSH2 0x1E1B JUMP JUMPDEST PUSH1 0x4 DUP2 MSTORE PUSH4 0x11DBDB19 PUSH1 0xE2 SHL PUSH1 0x20 DUP3 ADD MSTORE SWAP1 JUMP JUMPDEST PUSH1 0x3 DUP2 LT ISZERO PUSH2 0x1DEB JUMPI PUSH1 0x2 DUP2 EQ PUSH2 0x2363 JUMPI PUSH1 0x1 EQ PUSH2 0x233E JUMPI PUSH1 0x40 MLOAD PUSH2 0x2327 PUSH1 0x40 DUP3 PUSH2 0x1E1B JUMP JUMPDEST PUSH1 0x7 DUP2 MSTORE PUSH7 0x11A1A21BA31999 PUSH1 0xC9 SHL PUSH1 0x20 DUP3 ADD MSTORE SWAP1 JUMP JUMPDEST PUSH1 0x40 MLOAD PUSH2 0x234C PUSH1 0x40 DUP3 PUSH2 0x1E1B JUMP JUMPDEST PUSH1 0x7 DUP2 MSTORE PUSH7 0x2343304330433 PUSH1 0xCC SHL PUSH1 0x20 DUP3 ADD MSTORE SWAP1 JUMP JUMPDEST POP PUSH1 0x40 MLOAD PUSH2 0x2372 PUSH1 0x40 DUP3 PUSH2 0x1E1B JUMP JUMPDEST PUSH1 0x7 DUP2 MSTORE PUSH7 0x2346464437303 PUSH1 0xCC SHL PUSH1 0x20 DUP3 ADD MSTORE SWAP1 JUMP JUMPDEST DUP1 PUSH0 SWAP2 PUSH19 0x184F03E93FF9F4DAA797ED6E38ED64BF6A1F01 PUSH1 0x40 SHL DUP3 LT ISZERO PUSH2 0x24D3 JUMPI JUMPDEST DUP1 PUSH14 0x4EE2D6D415B85ACEF8100000000 PUSH1 0xA SWAP3 LT ISZERO PUSH2 0x24B8 JUMPI JUMPDEST PUSH7 0x2386F26FC10000 DUP2 LT ISZERO PUSH2 0x24A4 JUMPI JUMPDEST PUSH4 0x5F5E100 DUP2 LT ISZERO PUSH2 0x2493 JUMPI JUMPDEST PUSH2 0x2710 DUP2 LT ISZERO PUSH2 0x2484 JUMPI JUMPDEST PUSH1 0x64 DUP2 LT ISZERO PUSH2 0x2476 JUMPI JUMPDEST LT ISZERO PUSH2 0x246B JUMPI JUMPDEST PUSH1 0xA PUSH1 0x21 PUSH1 0x1 DUP5 ADD SWAP4 PUSH2 0x2410 DUP6 PUSH2 0x1E3D JUMP JUMPDEST SWAP5 PUSH2 0x241E PUSH1 0x40 MLOAD SWAP7 DUP8 PUSH2 0x1E1B JUMP JUMPDEST DUP1 DUP7 MSTORE PUSH2 0x242D PUSH1 0x1F NOT SWAP2 PUSH2 0x1E3D JUMP JUMPDEST ADD CALLDATASIZE PUSH1 0x20 DUP8 ADD CALLDATACOPY DUP5 ADD ADD JUMPDEST PUSH0 NOT ADD SWAP2 PUSH16 0x181899199A1A9B1B9C1CB0B131B232B3 PUSH1 0x81 SHL DUP3 DUP3 MOD BYTE DUP4 MSTORE8 DIV DUP1 ISZERO PUSH2 0x2466 JUMPI PUSH1 0xA SWAP1 SWAP2 PUSH2 0x2438 JUMP JUMPDEST POP POP SWAP1 JUMP JUMPDEST PUSH1 0x1 SWAP1 SWAP2 ADD SWAP1 PUSH2 0x23FE JUMP JUMPDEST PUSH1 0x64 PUSH1 0x2 SWAP2 DIV SWAP4 ADD SWAP3 PUSH2 0x23F7 JUMP JUMPDEST PUSH2 0x2710 PUSH1 0x4 SWAP2 DIV SWAP4 ADD SWAP3 PUSH2 0x23ED JUMP JUMPDEST PUSH4 0x5F5E100 PUSH1 0x8 SWAP2 DIV SWAP4 ADD SWAP3 PUSH2 0x23E2 JUMP JUMPDEST PUSH7 0x2386F26FC10000 PUSH1 0x10 SWAP2 DIV SWAP4 ADD SWAP3 PUSH2 0x23D5 JUMP JUMPDEST PUSH14 0x4EE2D6D415B85ACEF8100000000 PUSH1 0x20 SWAP2 DIV SWAP4 ADD SWAP3 PUSH2 0x23C5 JUMP JUMPDEST POP PUSH1 0x40 SWAP2 POP PUSH19 0x184F03E93FF9F4DAA797ED6E38ED64BF6A1F01 PUSH1 0x40 SHL DUP2 DIV PUSH2 0x23AB JUMP JUMPDEST DUP1 PUSH2 0x2501 PUSH1 0x2A PUSH2 0x1E3D JUMP JUMPDEST SWAP2 PUSH2 0x250F PUSH1 0x40 MLOAD SWAP4 DUP5 PUSH2 0x1E1B JUMP JUMPDEST PUSH1 0x2A DUP4 MSTORE PUSH2 0x251D PUSH1 0x2A PUSH2 0x1E3D JUMP JUMPDEST PUSH1 0x20 DUP5 ADD SWAP1 PUSH1 0x1F NOT ADD CALLDATASIZE DUP3 CALLDATACOPY DUP4 MLOAD ISZERO PUSH2 0xF5A JUMPI PUSH1 0x30 SWAP1 MSTORE8 DUP3 MLOAD PUSH1 0x1 LT ISZERO PUSH2 0xF5A JUMPI PUSH1 0x78 PUSH1 0x21 DUP5 ADD MSTORE8 PUSH1 0x29 JUMPDEST PUSH1 0x1 DUP2 GT PUSH2 0x2570 JUMPI POP PUSH2 0x2559 JUMPI POP SWAP1 JUMP JUMPDEST PUSH4 0xE22E27EB PUSH1 0xE0 SHL PUSH0 MSTORE PUSH1 0x4 MSTORE PUSH1 0x14 PUSH1 0x24 MSTORE PUSH1 0x44 PUSH0 REVERT JUMPDEST SWAP1 PUSH1 0xF DUP2 AND PUSH1 0x10 DUP2 LT ISZERO PUSH2 0xF5A JUMPI DUP5 MLOAD DUP4 LT ISZERO PUSH2 0xF5A JUMPI PUSH16 0x181899199A1A9B1B9C1CB0B131B232B3 PUSH1 0x81 SHL SWAP1 BYTE DUP5 DUP4 ADD PUSH1 0x20 ADD MSTORE8 PUSH1 0x4 SHR SWAP1 DUP1 ISZERO PUSH2 0x1816 JUMPI PUSH0 NOT ADD PUSH2 0x2548 JUMP JUMPDEST SWAP1 DUP2 MLOAD ISZERO PUSH2 0x26D5 JUMPI DUP2 MLOAD PUSH1 0x2 DUP2 ADD DUP1 SWAP2 GT PUSH2 0x1816 JUMPI PUSH1 0x3 SWAP1 DIV PUSH1 0x2 DUP2 SWAP1 SHL SWAP2 SWAP1 PUSH1 0x1 PUSH1 0x1 PUSH1 0xFE SHL SUB DUP2 AND SUB PUSH2 0x1816 JUMPI PUSH1 0x40 MLOAD SWAP2 PUSH32 0x4142434445464748494A4B4C4D4E4F505152535455565758595A616263646566 PUSH1 0x1F MSTORE PUSH32 0x6768696A6B6C6D6E6F707172737475767778797A303132333435363738392B2F PUSH1 0x3F MSTORE PUSH1 0x20 DUP4 ADD DUP5 DUP1 MLOAD DUP2 ADD PUSH1 0x20 DUP2 ADD DUP1 MLOAD SWAP2 PUSH0 DUP3 MSTORE JUMPDEST DUP1 DUP10 LT PUSH2 0x2699 JUMPI POP PUSH1 0x20 SWAP6 SWAP7 SWAP8 POP SWAP1 PUSH1 0x3 SWAP3 SWAP2 MSTORE MLOAD MOD DUP1 PUSH1 0x1 EQ PUSH2 0x2684 JUMPI PUSH1 0x2 EQ PUSH2 0x2677 JUMPI JUMPDEST POP DUP1 DUP5 MSTORE DUP4 ADD ADD PUSH1 0x40 MSTORE JUMP JUMPDEST PUSH1 0x3D SWAP1 PUSH0 NOT ADD MSTORE8 PUSH0 PUSH2 0x266B JUMP JUMPDEST POP PUSH1 0x3D SWAP1 DUP2 PUSH0 NOT DUP3 ADD MSTORE8 PUSH1 0x1 NOT ADD MSTORE8 PUSH0 PUSH2 0x266B JUMP JUMPDEST SWAP4 SWAP8 PUSH1 0x3 PUSH1 0x4 SWAP2 ADD SWAP9 PUSH1 0x3F DUP11 MLOAD DUP2 DUP2 PUSH1 0x12 SHR AND MLOAD DUP4 MSTORE8 DUP2 DUP2 PUSH1 0xC SHR AND MLOAD PUSH1 0x1 DUP5 ADD MSTORE8 DUP2 DUP2 PUSH1 0x6 SHR AND MLOAD PUSH1 0x2 DUP5 ADD MSTORE8 AND MLOAD PUSH1 0x3 DUP3 ADD MSTORE8 ADD SWAP4 PUSH2 0x2645 JUMP JUMPDEST SWAP1 POP PUSH1 0x40 MLOAD PUSH2 0x26E5 PUSH1 0x20 DUP3 PUSH2 0x1E1B JUMP JUMPDEST PUSH0 DUP2 MSTORE SWAP1 JUMP INVALID PUSH26 0x3D22417269616C2C73616E732D73657269662220666F6E742D73 PUSH10 0x7A653D22A26469706673 PC 0x22 SLT KECCAK256 0xD 0xCB 0x24 PUSH16 0xDEE550A543B0D6EF920DDC483E320DA1 NOT LOG0 0x2B TLOAD 0xFB 0xB2 0xF9 NOT 0xF7 0xDB DUP13 MCOPY PUSH5 0x736F6C6343 STOP ADDMOD SHR STOP CALLER "},"methodIdentifiers":{"PAYMENT_AMOUNT()":"6bc55ab8","approve(address,uint256)":"095ea7b3","balanceOf(address)":"70a08231","getApproved(uint256)":"081812fc","getPaymentCount(address,address)":"27b47b1c","getTier(address,address)":"6e87a8df","isApprovedForAll(address,address)":"e985e9c5","merchants(address)":"ee14e939","name()":"06fdde03","ownerOf(uint256)":"6352211e","payMerchant(address)":"7345b6a7","registerMerchant(string)":"ad5d5b7c","safeTransferFrom(address,address,uint256)":"42842e0e","safeTransferFrom(address,address,uint256,bytes)":"b88d4fde","setApprovalForAll(address,bool)":"a22cb465","supportsInterface(bytes4)":"01ffc9a7","symbol()":"95d89b41","tokenURI(uint256)":"c87b56dd","transferFrom(address,address,uint256)":"23b872dd","usdc()":"3e413bee"}}}}}