{
  "_format": "hh-sol-artifact-1",
  "contractName": "PaymentNFT",
  "sourceName": "contracts/PaymentNFT.sol",
  "abi": [
    {
      "inputs": [],
      "stateMutability": "nonpayable",
      "type": "constructor"
    },
    {
      "inputs": [
        {
          "internalType": "address",
          "name": "sender",
          "type": "address"
        },
        {
          "internalType": "uint256",
          "name": "tokenId",
          "type": "uint256"
        },
        {
          "internalType": "address",
          "name": "owner",
          "type": "address"
        }
      ],
      "name": "ERC721IncorrectOwner",
      "type": "error"
    },
    {
      "inputs": [
        {
          "internalType": "address",
          "name": "operator",
          "type": "address"
        },
        {
          "internalType": "uint256",
          "name": "tokenId",
          "type": "uint256"
        }
      ],
      "name": "ERC721InsufficientApproval",
      "type": "error"
    },
    {
      "inputs": [
        {
          "internalType": "address",
          "name": "approver",
          "type": "address"
        }
      ],
      "name": "ERC721InvalidApprover",
      "type": "error"
    },
    {
      "inputs": [
        {
          "internalType": "address",
          "name": "operator",
          "type": "address"
        }
      ],
      "name": "ERC721InvalidOperator",
      "type": "error"
    },
    {
      "inputs": [
        {
          "internalType": "address",
          "name": "owner",
          "type": "address"
        }
      ],
      "name": "ERC721InvalidOwner",
      "type": "error"
    },
    {
      "inputs": [
        {
          "internalType": "address",
          "name": "receiver",
          "type": "address"
        }
      ],
      "name": "ERC721InvalidReceiver",
      "type": "error"
    },
    {
      "inputs": [
        {
          "internalType": "address",
          "name": "sender",
          "type": "address"
        }
      ],
      "name": "ERC721InvalidSender",
      "type": "error"
    },
    {
      "inputs": [
        {
          "internalType": "uint256",
          "name": "tokenId",
          "type": "uint256"
        }
      ],
      "name": "ERC721NonexistentToken",
      "type": "error"
    },
    {
      "inputs": [
        {
          "internalType": "uint256",
          "name": "value",
          "type": "uint256"
        },
        {
          "internalType": "uint256",
          "name": "length",
          "type": "uint256"
        }
      ],
      "name": "StringsInsufficientHexLength",
      "type": "error"
    },
    {
      "anonymous": false,
      "inputs": [
        {
          "indexed": true,
          "internalType": "address",
          "name": "owner",
          "type": "address"
        },
        {
          "indexed": true,
          "internalType": "address",
          "name": "approved",
          "type": "address"
        },
        {
          "indexed": true,
          "internalType": "uint256",
          "name": "tokenId",
          "type": "uint256"
        }
      ],
      "name": "Approval",
      "type": "event"
    },
    {
      "anonymous": false,
      "inputs": [
        {
          "indexed": true,
          "internalType": "address",
          "name": "owner",
          "type": "address"
        },
        {
          "indexed": true,
          "internalType": "address",
          "name": "operator",
          "type": "address"
        },
        {
          "indexed": false,
          "internalType": "bool",
          "name": "approved",
          "type": "bool"
        }
      ],
      "name": "ApprovalForAll",
      "type": "event"
    },
    {
      "anonymous": false,
      "inputs": [
        {
          "indexed": true,
          "internalType": "address",
          "name": "merchant",
          "type": "address"
        },
        {
          "indexed": false,
          "internalType": "string",
          "name": "name",
          "type": "string"
        }
      ],
      "name": "MerchantRegistered",
      "type": "event"
    },
    {
      "anonymous": false,
      "inputs": [
        {
          "indexed": true,
          "internalType": "address",
          "name": "buyer",
          "type": "address"
        },
        {
          "indexed": true,
          "internalType": "address",
          "name": "merchant",
          "type": "address"
        },
        {
          "indexed": true,
          "internalType": "uint256",
          "name": "tokenId",
          "type": "uint256"
        },
        {
          "indexed": false,
          "internalType": "uint256",
          "name": "paymentCount",
          "type": "uint256"
        },
        {
          "indexed": false,
          "internalType": "enum PaymentNFT.Tier",
          "name": "tier",
          "type": "uint8"
        }
      ],
      "name": "PaymentMade",
      "type": "event"
    },
    {
      "anonymous": false,
      "inputs": [
        {
          "indexed": true,
          "internalType": "address",
          "name": "from",
          "type": "address"
        },
        {
          "indexed": true,
          "internalType": "address",
          "name": "to",
          "type": "address"
        },
        {
          "indexed": true,
          "internalType": "uint256",
          "name": "tokenId",
          "type": "uint256"
        }
      ],
      "name": "Transfer",
      "type": "event"
    },
    {
      "inputs": [],
      "name": "PAYMENT_AMOUNT",
      "outputs": [
        {
          "internalType": "uint256",
          "name": "",
          "type": "uint256"
        }
      ],
      "stateMutability": "view",
      "type": "function"
    },
    {
      "inputs": [
        {
          "internalType": "address",
          "name": "to",
          "type": "address"
        },
        {
          "internalType": "uint256",
          "name": "tokenId",
          "type": "uint256"
        }
      ],
      "name": "approve",
      "outputs": [],
      "stateMutability": "nonpayable",
      "type": "function"
    },
    {
      "inputs": [
        {
          "internalType": "address",
          "name": "owner",
          "type": "address"
        }
      ],
      "name": "balanceOf",
      "outputs": [
        {
          "internalType": "uint256",
          "name": "",
          "type": "uint256"
        }
      ],
      "stateMutability": "view",
      "type": "function"
    },
    {
      "inputs": [
        {
          "internalType": "uint256",
          "name": "tokenId",
          "type": "uint256"
        }
      ],
      "name": "getApproved",
      "outputs": [
        {
          "internalType": "address",
          "name": "",
          "type": "address"
        }
      ],
      "stateMutability": "view",
      "type": "function"
    },
    {
      "inputs": [
        {
          "internalType": "address",
          "name": "buyer",
          "type": "address"
        },
        {
          "internalType": "address",
          "name": "merchant",
          "type": "address"
        }
      ],
      "name": "getPaymentCount",
      "outputs": [
        {
          "internalType": "uint256",
          "name": "",
          "type": "uint256"
        }
      ],
      "stateMutability": "view",
      "type": "function"
    },
    {
      "inputs": [
        {
          "internalType": "address",
          "name": "buyer",
          "type": "address"
        },
        {
          "internalType": "address",
          "name": "merchant",
          "type": "address"
        }
      ],
      "name": "getTier",
      "outputs": [
        {
          "internalType": "enum PaymentNFT.Tier",
          "name": "",
          "type": "uint8"
        }
      ],
      "stateMutability": "view",
      "type": "function"
    },
    {
      "inputs": [
        {
          "internalType": "address",
          "name": "owner",
          "type": "address"
        },
        {
          "internalType": "address",
          "name": "operator",
          "type": "address"
        }
      ],
      "name": "isApprovedForAll",
      "outputs": [
        {
          "internalType": "bool",
          "name": "",
          "type": "bool"
        }
      ],
      "stateMutability": "view",
      "type": "function"
    },
    {
      "inputs": [
        {
          "internalType": "address",
          "name": "",
          "type": "address"
        }
      ],
      "name": "merchants",
      "outputs": [
        {
          "internalType": "bool",
          "name": "registered",
          "type": "bool"
        },
        {
          "internalType": "string",
          "name": "name",
          "type": "string"
        }
      ],
      "stateMutability": "view",
      "type": "function"
    },
    {
      "inputs": [],
      "name": "name",
      "outputs": [
        {
          "internalType": "string",
          "name": "",
          "type": "string"
        }
      ],
      "stateMutability": "view",
      "type": "function"
    },
    {
      "inputs": [
        {
          "internalType": "uint256",
          "name": "tokenId",
          "type": "uint256"
        }
      ],
      "name": "ownerOf",
      "outputs": [
        {
          "internalType": "address",
          "name": "",
          "type": "address"
        }
      ],
      "stateMutability": "view",
      "type": "function"
    },
    {
      "inputs": [
        {
          "internalType": "address",
          "name": "merchant",
          "type": "address"
        }
      ],
      "name": "payMerchant",
      "outputs": [],
      "stateMutability": "nonpayable",
      "type": "function"
    },
    {
      "inputs": [
        {
          "internalType": "string",
          "name": "name",
          "type": "string"
        }
      ],
      "name": "registerMerchant",
      "outputs": [],
      "stateMutability": "nonpayable",
      "type": "function"
    },
    {
      "inputs": [
        {
          "internalType": "address",
          "name": "from",
          "type": "address"
        },
        {
          "internalType": "address",
          "name": "to",
          "type": "address"
        },
        {
          "internalType": "uint256",
          "name": "tokenId",
          "type": "uint256"
        }
      ],
      "name": "safeTransferFrom",
      "outputs": [],
      "stateMutability": "nonpayable",
      "type": "function"
    },
    {
      "inputs": [
        {
          "internalType": "address",
          "name": "from",
          "type": "address"
        },
        {
          "internalType": "address",
          "name": "to",
          "type": "address"
        },
        {
          "internalType": "uint256",
          "name": "tokenId",
          "type": "uint256"
        },
        {
          "internalType": "bytes",
          "name": "data",
          "type": "bytes"
        }
      ],
      "name": "safeTransferFrom",
      "outputs": [],
      "stateMutability": "nonpayable",
      "type": "function"
    },
    {
      "inputs": [
        {
          "internalType": "address",
          "name": "operator",
          "type": "address"
        },
        {
          "internalType": "bool",
          "name": "approved",
          "type": "bool"
        }
      ],
      "name": "setApprovalForAll",
      "outputs": [],
      "stateMutability": "nonpayable",
      "type": "function"
    },
    {
      "inputs": [
        {
          "internalType": "bytes4",
          "name": "interfaceId",
          "type": "bytes4"
        }
      ],
      "name": "supportsInterface",
      "outputs": [
        {
          "internalType": "bool",
          "name": "",
          "type": "bool"
        }
      ],
      "stateMutability": "view",
      "type": "function"
    },
    {
      "inputs": [],
      "name": "symbol",
      "outputs": [
        {
          "internalType": "string",
          "name": "",
          "type": "string"
        }
      ],
      "stateMutability": "view",
      "type": "function"
    },
    {
      "inputs": [
        {
          "internalType": "uint256",
          "name": "tokenId",
          "type": "uint256"
        }
      ],
      "name": "tokenURI",
      "outputs": [
        {
          "internalType": "string",
          "name": "",
          "type": "string"
        }
      ],
      "stateMutability": "view",
      "type": "function"
    },
    {
      "inputs": [
        {
          "internalType": "address",
          "name": "from",
          "type": "address"
        },
        {
          "internalType": "address",
          "name": "to",
          "type": "address"
        },
        {
          "internalType": "uint256",
          "name": "tokenId",
          "type": "uint256"
        }
      ],
      "name": "transferFrom",
      "outputs": [],
      "stateMutability": "nonpayable",
      "type": "function"
    },
    {
      "inputs": [],
      "name": "usdc",
      "outputs": [
        {
          "internalType": "contract IERC20",
          "name": "",
          "type": "address"
        }
      ],
      "stateMutability": "view",
      "type": "function"
    }
  ],
  "bytecode": "0x60a06040523461033c57604080519081016001600160401b03811182821017610252576040908152600a82526914185e5b595b9d13919560b21b602083015280519081016001600160401b038111828210176102525760405260048152631413919560e21b602082015281516001600160401b038111610252575f54600181811c91168015610332575b602082101461023457601f81116102d0575b50602092601f821160011461027157928192935f92610266575b50508160011b915f199060031b1c1916175f555b80516001600160401b03811161025257600154600181811c91168015610248575b602082101461023457601f81116101d1575b50602091601f8211600114610171579181925f92610166575b50508160011b915f199060031b1c1916176001555b733c499c542cef5e3811e1192ce70d8cc03d5c33596080526001600655604051612741908161034182396080518181816114dd0152611a8b0152f35b015190505f80610115565b601f1982169260015f52805f20915f5b8581106101b9575083600195106101a1575b505050811b0160015561012a565b01515f1960f88460031b161c191690555f8080610193565b91926020600181928685015181550194019201610181565b60015f527fb10e2d527612073b26eecdfd717e6a320cf44b4afac2b0732d9fcbe2b7fa0cf6601f830160051c8101916020841061022a575b601f0160051c01905b81811061021f57506100fc565b5f8155600101610212565b9091508190610209565b634e487b7160e01b5f52602260045260245ffd5b90607f16906100ea565b634e487b7160e01b5f52604160045260245ffd5b015190505f806100b5565b601f198216935f8052805f20915f5b8681106102b857508360019596106102a0575b505050811b015f556100c9565b01515f1960f88460031b161c191690555f8080610293565b91926020600181928685015181550194019201610280565b5f80527f290decd9548b62a8d60345a988386fc84ba6bc95484008f6362f93160ef3e563601f830160051c81019160208410610328575b601f0160051c01905b81811061031d575061009b565b5f8155600101610310565b9091508190610307565b90607f1690610089565b5f80fdfe6080806040526004361015610012575f80fd5b5f3560e01c90816301ffc9a714611ce95750806306fdde0314611c47578063081812fc14611c0b578063095ea7b314611b2157806323b872dd14611b0a57806327b47b1c14611aba5780633e413bee14611a7657806342842e0e14611a475780636352211e14611a175780636bc55ab8146119fa5780636e87a8df1461199b57806370a082311461194a5780637345b6a71461147357806395d89b4114611395578063a22cb465146112d8578063ad5d5b7c14610ffe578063b88d4fde14610f90578063c87b56dd146101b4578063e985e9c51461015d5763ee14e939146100f8575f80fd5b34610159576020366003190112610159576001600160a01b03610119611d78565b165f52600760205260405f20610136600160ff8354169201611ec7565b9061015560405192839215158352604060208401526040830190611d54565b0390f35b5f80fd5b3461015957604036600319011261015957610176611d78565b61017e611d8e565b9060018060a01b03165f52600560205260405f209060018060a01b03165f52602052602060ff60405f2054166040519015158152f35b34610159576020366003190112610159576004356101d1816120f4565b50805f52600960205260405f2090604051916101ec83611dff565b80546001600160a01b0390811684526001820154166020840190815260029091015460408401818152919061022090612128565b9261023361022d8561227e565b94612301565b82516001600160a01b03165f90815260076020526040902061025790600101611ec7565b8451969060018803610f6e57604051610271602082611e1b565b5f8152905b60409889516102858b82611e1b565b600181526020810190601f198c013683378a5115610f5a5760208b019660ff60f81b8851165f1a825115610f5a578c948e9185536102c290612389565b81517f3c73766720786d6c6e733d22687474703a2f2f7777772e77332e6f72672f32306020808301919091527f30302f737667222076696577426f783d22302030203330302033303022207769828501527f6474683d2233303022206865696768743d22333030223e0000000000000000006060830152651e3232b3399f60d11b60778301527f3c72616469616c4772616469656e742069643d226267222063783d2235302522607d830152711031bc9e911a98129110391e911b9812911f60711b609d8301527f3c73746f70206f66667365743d223025222073746f702d636f6c6f723d22233160af830152673098b0993291179f60c11b60cf8301527f3c73746f70206f66667365743d2231303025222073746f702d636f6c6f723d2260d783015269119833183318b091179f60b11b60f7830152701e17b930b234b0b623b930b234b2b73a1f60791b6101018301527f3c72616469616c4772616469656e742069643d22676c6f77222063783d2235306101128301527312911031bc9e911a98129110391e911a9812911f60611b6101328301527f3c73746f70206f66667365743d223025222073746f702d636f6c6f723d220000610146830152845192999197889791860196929390929080886101648b015e880161016481017f222073746f702d6f7061636974793d22302e3335222f3e000000000000000000905261017b81017f3c73746f70206f66667365743d2231303025222073746f702d636f6c6f723d229052865190818961019b83015e73111039ba37b816b7b830b1b4ba3c9e911811179f60611b61019b9290910191820152701e17b930b234b0b623b930b234b2b73a1f60791b6101af820152661e17b232b3399f60c91b6101c08201527f3c726563742077696474683d2233303022206865696768743d223330302220726101c78201527f783d223138222072793d223138222066696c6c3d2275726c2823626729222f3e6101e78201527f3c656c6c697073652063783d22313530222063793d22313135222072783d22396102078201527f30222072793d223930222066696c6c3d2275726c2823676c6f7729222f3e00006102278201527f3c636972636c652063783d22313530222063793d223131352220723d2237322261024582015274103334b6361e913737b732911039ba3937b5b29e9160591b61026582015286519061016481019082908a9061027a015e0160370160df81017f22207374726f6b652d77696474683d223222206f7061636974793d22302e3522905260ff810161179f60f11b905261010181017f3c636972636c652063783d22313530222063793d223131352220723d22353822905266103334b6361e9160c91b610121820152865190818961012883015e0160df0171111037b830b1b4ba3c9e911817189911179f60711b6049820152605b81017f3c636972636c652063783d22313530222063793d223131352220723d22353022905266103334b6361e9160c91b607b8201528651908189608283015e0160490171111037b830b1b4ba3c9e911817191a91179f60711b6039820152604b81017f3c636972636c652063783d22313530222063793d223131352220723d22343422905266103334b6361e9160c91b606b8201528651908189607283015e6211179f60e91b607292909101918201527f3c7465787420783d223135302220793d223132382220666f6e742d66616d696c60758201527f793d2247656f726769612c73657269662220666f6e742d73697a653d223430226095820152730103337b73a16bbb2b4b3b43a1e913137b63211160651b60b58201527f66696c6c3d22233161316132652220746578742d616e63686f723d226d69646460c9820152633632911f60e11b60e9820152905191603982019183919060ed015e01603901607b8101661e17ba32bc3a1f60c91b9052608281017f3c7465787420783d223135302220793d223139382220666f6e742d66616d696c905260a281015f5160206126ec5f395f51905f52905260c281017f32302220666f6e742d7765696768743d22626f6c6422200000000000000000009052653334b6361e9160d11b60d9820152845190818760df83015e01607b0190606482017f2220746578742d616e63686f723d226d6964646c65223e00000000000000000090525190818c607b83015e661026b2b6b132b960c91b607b9290910191820152661e17ba32bc3a1f60c91b60828201527f3c7465787420783d223135302220793d223232302220666f6e742d66616d696c60898201525f5160206126ec5f395f51905f5260a9820152630189911160e51b60c98201527f66696c6c3d22233838383839392220746578742d616e63686f723d226d69646460cd820152633632911f60e11b60ed8201528751602089019991606481019082908c9060f1015e661e17ba32bc3a1f60c91b608d92909101918201527f3c7465787420783d223135302220793d223234342220666f6e742d66616d696c60948201525f5160206126ec5f395f51905f5260b4820152630189991160e51b60d48201527f66696c6c3d22236161616163632220746578742d616e63686f723d226d69646460d8820152633632911f60e11b60f8820152815191601782019183916020019060fc015e01607601606f810167081c185e5b595b9d60c21b905281516020819301607783015e01606f019160088301661e17ba32bc3a1f60c91b9052600f83017f3c6c696e652078313d223630222079313d22323535222078323d2232343022209052703c991e91191a9a911039ba3937b5b29e9160791b602f8401525192839183015e7f22207374726f6b652d77696474683d22302e3522206f7061636974793d22302e91016040810191909152631991179f60e11b60608201527f3c7465787420783d223135302220793d223237342220666f6e742d66616d696c60648201525f5160206126ec5f395f51905f526084820152630189811160e51b60a48201527f66696c6c3d22233434343435612220746578742d616e63686f723d226d69646460a8820152633632911f60e11b60c88201527f5061796d656e744e465420c2b72041726320546573746e65740000000000000060cc820152661e17ba32bc3a1f60c91b60e5820152651e17b9bb339f60d11b60ec8201520360d281018252610bd29060f20182611e1b565b610bdb906125b6565b958951958660208101987f646174613a696d6167652f7376672b786d6c3b6261736536342c0000000000008a5280516020819201603a84015e8101603a81015f905203603a01601f1981018852610c329088611e1b565b610c3b90612389565b9751610c4690612389565b9051610c5a906001600160a01b03166124f6565b9351610c6e906001600160a01b03166124f6565b948a51998a99747b226e616d65223a225061796d656e744e4654202360581b60208c01528051602081920160358d015e61088b60f21b6035918c01918201527f226465736372697074696f6e223a224c6f79616c7479204e4654206561726e6560378201526b03210313c903830bcb4b733960a51b60578201528451908187606383015e016035019071081bdb88105c98c815195cdd1b995d0b888b60721b602e8301526d2261747472696275746573223a5b60901b8d830152604e82017f7b2274726169745f74797065223a2254696572222c2276616c7565223a2200009052518092606c83015e01602e0162089f4b60ea1b603e820152604181017f7b2274726169745f74797065223a225061796d656e7420436f756e74222c227690526530b63ab2911d60d11b606182015281516020819301606783015e01603e019060298201611f4b60f21b9052602b82017f7b2274726169745f74797065223a224d65726368616e74204e616d65222c227690526630b63ab2911d1160c91b604b830152518092605283015e0160290162089f4b60ea1b6029820152602c81017f7b2274726169745f74797065223a224d65726368616e74222c2276616c7565229052611d1160f11b604c82015281516020819301604e83015e0160290162089f4b60ea1b6025820152602881017f7b2274726169745f74797065223a224275796572222c2276616c7565223a2200905281516020819301604783015e016025019061227d60f01b60228301526024820161174b60f21b9052681134b6b0b3b2911d1160b91b6026830152518092602f83015e0160220161227d60f01b600d82015203600d01601d1981018252600201610ee79082611e1b565b610ef0906125b6565b9080518092602082017f646174613a6170706c69636174696f6e2f6a736f6e3b6261736536342c000000905280516020819201603d84015e8101603d81015f905203603d01601f1981018352610f469083611e1b565b518091602082526020820161015591611d54565b634e487b7160e01b5f52603260045260245ffd5b604051610f7c604082611e1b565b60018152607360f81b602082015290610276565b3461015957608036600319011261015957610fa9611d78565b610fb1611d8e565b906044356064359267ffffffffffffffff8411610159573660238501121561015957610fea610ffc943690602481600401359101611e59565b92610ff6838383611f67565b33612148565b005b346101595760203660031901126101595760043567ffffffffffffffff8111610159573660238201121561015957806004013567ffffffffffffffff8111610159576024820191602482369201011161015957801561129a57335f52600760205260ff60405f20541661125557604051916040830183811067ffffffffffffffff8211176112415760405260018352600161109a368484611e59565b9360208101948552335f5260076020526110c760405f2091511515829060ff801983541691151516179055565b01925192835167ffffffffffffffff8111611241576110e68254611e8f565b601f81116111fc575b506020601f82116001146111785781907fec31b5c87ea82f60c8bc1dd8262f275183d0d7bc8c37cdbbfd74130441818fbc95965f9261116d575b50508160011b915f199060031b1c19161790555b82604051916020835281602084015260408301375f604084830101526040813394601f80199101168101030190a2005b015190508680611129565b601f19821695835f52815f20965f5b8181106111e45750917fec31b5c87ea82f60c8bc1dd8262f275183d0d7bc8c37cdbbfd74130441818fbc9697918460019594106111cc575b505050811b01905561113d565b01515f1960f88460031b161c191690558680806111bf565b83830151895560019098019760209384019301611187565b825f5260205f20601f830160051c81019160208410611237575b601f0160051c01905b81811061122c57506110ef565b5f815560010161121f565b9091508190611216565b634e487b7160e01b5f52604160045260245ffd5b60405162461bcd60e51b815260206004820152601e60248201527f5061796d656e744e46543a20616c7265616479207265676973746572656400006044820152606490fd5b60405162461bcd60e51b81526020600482015260166024820152755061796d656e744e46543a20656d707479206e616d6560501b6044820152606490fd5b34610159576040366003190112610159576112f1611d78565b6024359081151590818303610159573315611382576001600160a01b031691821561136f5761134190335f52600560205260405f20845f5260205260405f209060ff801983541691151516179055565b6040519081527f17307eab39ab6107e8899845ad3d59bd9653f200f220920489ca2b5937696c3160203392a3005b82630b61174360e31b5f5260045260245ffd5b63a9fbf51f60e01b5f525f60045260245ffd5b34610159575f366003190112610159576040515f6001546113b581611e8f565b808452906001811690811561144f57506001146113f1575b610155836113dd81850382611e1b565b604051918291602083526020830190611d54565b60015f9081527fb10e2d527612073b26eecdfd717e6a320cf44b4afac2b0732d9fcbe2b7fa0cf6939250905b808210611435575090915081016020016113dd6113cd565b91926001816020925483858801015201910190929161141d565b60ff191660208086019190915291151560051b840190910191506113dd90506113cd565b34610159576020366003190112610159576001600160a01b03611494611d78565b16805f52600760205260ff60405f205416156118f9573381146118b4576040516323b872dd60e01b815233600482015260248101829052620f424060448201526020816064815f7f00000000000000000000000000000000000000000000000000000000000000006001600160a01b03165af19081156118a9575f9161186e575b501561182a57335f52600860205260405f20815f5260205260405f20805490600182018092116118165755335f52600860205260405f20815f5260205260405f205490600654906001820160065560405161156f81611dff565b338152602080820183815260408084018781525f87815260098552829020945185546001600160a01b03199081166001600160a01b03928316178755935160018701805490951691161790925590516002939093019290925590519093906115d78582611e1b565b5f81523315611803575f8481526002865260409020546001600160a01b031680151590816117d2575b335f8181526003895260408082208054600101905588825260028a52812080546001600160a01b0319168317905587919083907fddf252ad1be2c89b69c2b068fc378daa952ba7f163c4a11628f55a4df523b3ef9080a4506117bf57333b6116a8575b506116808461167183612128565b90604051938452830190611dde565b7ff35f1f16f2541a8f5c4870ae5cf7e4be7e22659d12e6e3021b1a49f552959e2860403392a4005b846116e19160405180938192630a85bd0160e11b83523360048401525f6024840152886044840152608060648401526084830190611d54565b03815f335af15f918161177f575b5061174357843d1561173b573d9061170682611e3d565b916117146040519384611e1b565b82523d5f8284013e5b8151918261173857633250574960e11b5f523360045260245ffd5b01fd5b60609061171d565b929391929091906001600160e01b03191663757a42ff60e11b0161176c57929190611680611663565b633250574960e11b5f523360045260245ffd5b9091508581813d83116117b8575b6117978183611e1b565b8101031261015957516001600160e01b0319811681036101595790866116ef565b503d61178d565b6339e3563760e11b5f525f60045260245ffd5b5f8681526004602052604080822080546001600160a01b031916905582825260038952902080545f19019055611600565b633250574960e11b5f525f60045260245ffd5b634e487b7160e01b5f52601160045260245ffd5b606460405162461bcd60e51b815260206004820152602060248201527f5061796d656e744e46543a2055534443207472616e73666572206661696c65646044820152fd5b90506020813d6020116118a1575b8161188960209383611e1b565b81010312610159575180151581036101595782611515565b3d915061187c565b6040513d5f823e3d90fd5b60405162461bcd60e51b815260206004820152601f60248201527f5061796d656e744e46543a2063616e6e6f742070617920796f757273656c66006044820152606490fd5b60405162461bcd60e51b815260206004820152602360248201527f5061796d656e744e46543a206d65726368616e74206e6f7420726567697374656044820152621c995960ea1b6064820152608490fd5b34610159576020366003190112610159576001600160a01b0361196b611d78565b168015611988575f526003602052602060405f2054604051908152f35b6322718ad960e21b5f525f60045260245ffd5b34610159576040366003190112610159576119b4611d78565b6119bc611d8e565b6001600160a01b039182165f90815260086020908152604080832094909316825292835220546119eb90612128565b6119f86040518092611dde565bf35b34610159575f366003190112610159576020604051620f42408152f35b34610159576020366003190112610159576020611a356004356120f4565b6040516001600160a01b039091168152f35b3461015957610ffc611a5836611da4565b9060405192611a68602085611e1b565b5f8452610ff6838383611f67565b34610159575f366003190112610159576040517f00000000000000000000000000000000000000000000000000000000000000006001600160a01b03168152602090f35b3461015957604036600319011261015957611ad3611d78565b611adb611d8e565b6001600160a01b039182165f908152600860209081526040808320949093168252928352819020549051908152f35b3461015957610ffc611b1b36611da4565b91611f67565b3461015957604036600319011261015957611b3a611d78565b602435611b46816120f4565b33151580611bf8575b80611bcb575b611bb85781906001600160a01b0384811691167f8c5be1e5ebec7d5bd14f71427d1e84f3dd0314c0f7b2291e5b200ac8c7c3b9255f80a45f90815260046020526040902080546001600160a01b0319166001600160a01b03909216919091179055005b63a9fbf51f60e01b5f523360045260245ffd5b506001600160a01b0381165f90815260056020908152604080832033845290915290205460ff1615611b55565b506001600160a01b038116331415611b4f565b3461015957602036600319011261015957600435611c28816120f4565b505f526004602052602060018060a01b0360405f205416604051908152f35b34610159575f366003190112610159576040515f5f54611c6681611e8f565b808452906001811690811561144f5750600114611c8d57610155836113dd81850382611e1b565b5f8080527f290decd9548b62a8d60345a988386fc84ba6bc95484008f6362f93160ef3e563939250905b808210611ccf575090915081016020016113dd6113cd565b919260018160209254838588010152019101909291611cb7565b34610159576020366003190112610159576004359063ffffffff60e01b8216809203610159576020916380ac58cd60e01b8114908115611d43575b8115611d32575b5015158152f35b6301ffc9a760e01b14905083611d2b565b635b5e139f60e01b81149150611d24565b805180835260209291819084018484015e5f828201840152601f01601f1916010190565b600435906001600160a01b038216820361015957565b602435906001600160a01b038216820361015957565b6060906003190112610159576004356001600160a01b038116810361015957906024356001600160a01b0381168103610159579060443590565b906003821015611deb5752565b634e487b7160e01b5f52602160045260245ffd5b6060810190811067ffffffffffffffff82111761124157604052565b90601f8019910116810190811067ffffffffffffffff82111761124157604052565b67ffffffffffffffff811161124157601f01601f191660200190565b929192611e6582611e3d565b91611e736040519384611e1b565b829481845281830111610159578281602093845f960137010152565b90600182811c92168015611ebd575b6020831014611ea957565b634e487b7160e01b5f52602260045260245ffd5b91607f1691611e9e565b9060405191825f825492611eda84611e8f565b8084529360018116908115611f455750600114611f01575b50611eff92500383611e1b565b565b90505f9291925260205f20905f915b818310611f29575050906020611eff928201015f611ef2565b6020919350806001915483858901015201910190918492611f10565b905060209250611eff94915060ff191682840152151560051b8201015f611ef2565b6001600160a01b0390911691908215611803575f828152600260205260409020546001600160a01b03169282903315158061205f575b508461202c575b805f52600360205260405f2060018154019055815f52600260205260405f20816bffffffffffffffffffffffff60a01b825416179055847fddf252ad1be2c89b69c2b068fc378daa952ba7f163c4a11628f55a4df523b3ef5f80a46001600160a01b031680830361201457505050565b6364283d7b60e01b5f5260045260245260445260645ffd5b5f82815260046020526040902080546001600160a01b0319169055845f52600360205260405f205f198154019055611fa4565b909150806120a3575b156120755782905f611f9d565b828461208d57637e27328960e01b5f5260045260245ffd5b63177e802f60e01b5f523360045260245260445ffd5b5033841480156120d2575b8061206857505f838152600460205260409020546001600160a01b03163314612068565b505f84815260056020908152604080832033845290915290205460ff166120ae565b5f818152600260205260409020546001600160a01b0316908115612116575090565b637e27328960e01b5f5260045260245ffd5b603281101561214257600a111561213d575f90565b600190565b50600290565b823b612156575b5050505050565b604051630a85bd0160e11b81526001600160a01b0391821660048201529181166024830152604482019390935260806064820152911691602090829081906121a2906084830190611d54565b03815f865af15f9181612239575b5061220557503d156121fe573d6121c681611e3d565b906121d46040519283611e1b565b81523d5f602083013e5b805190816121f95782633250574960e11b5f5260045260245ffd5b602001fd5b60606121de565b6001600160e01b03191663757a42ff60e11b0161222757505f8080808061214f565b633250574960e11b5f5260045260245ffd5b9091506020813d602011612276575b8161225560209383611e1b565b8101031261015957516001600160e01b03198116810361015957905f6121b0565b3d9150612248565b6003811015611deb57600281146122de576001146122ba576040516122a4604082611e1b565b600681526542726f6e7a6560d01b602082015290565b6040516122c8604082611e1b565b600681526529b4b63b32b960d11b602082015290565b506040516122ed604082611e1b565b600481526311dbdb1960e21b602082015290565b6003811015611deb57600281146123635760011461233e57604051612327604082611e1b565b600781526611a1a21ba3199960c91b602082015290565b60405161234c604082611e1b565b60078152660234330433043360cc1b602082015290565b50604051612372604082611e1b565b60078152660234646443730360cc1b602082015290565b805f9172184f03e93ff9f4daa797ed6e38ed64bf6a1f0160401b8210156124d3575b806d04ee2d6d415b85acef8100000000600a9210156124b8575b662386f26fc100008110156124a4575b6305f5e100811015612493575b612710811015612484575b6064811015612476575b101561246b575b600a6021600184019361241085611e3d565b9461241e6040519687611e1b565b80865261242d601f1991611e3d565b013660208701378401015b5f1901916f181899199a1a9b1b9c1cb0b131b232b360811b8282061a835304801561246657600a9091612438565b505090565b6001909101906123fe565b6064600291049301926123f7565b612710600491049301926123ed565b6305f5e100600891049301926123e2565b662386f26fc10000601091049301926123d5565b6d04ee2d6d415b85acef8100000000602091049301926123c5565b506040915072184f03e93ff9f4daa797ed6e38ed64bf6a1f0160401b81046123ab565b80612501602a611e3d565b9161250f6040519384611e1b565b602a835261251d602a611e3d565b6020840190601f1901368237835115610f5a5760309053825160011015610f5a576078602184015360295b600181116125705750612559575090565b63e22e27eb60e01b5f52600452601460245260445ffd5b90600f81166010811015610f5a578451831015610f5a576f181899199a1a9b1b9c1cb0b131b232b360811b901a8483016020015360041c908015611816575f1901612548565b908151156126d5578151600281018091116118165760039004600281901b91906001600160fe1b0381160361181657604051917f4142434445464748494a4b4c4d4e4f505152535455565758595a616263646566601f527f6768696a6b6c6d6e6f707172737475767778797a303132333435363738392b2f603f52602083018480518101602081018051915f82525b808910612699575060209596975090600392915251068060011461268457600214612677575b50808452830101604052565b603d905f1901535f61266b565b50603d90815f1982015360011901535f61266b565b939760036004910198603f8a51818160121c165183538181600c1c16516001840153818160061c16516002840153165160038201530193612645565b90506040516126e5602082611e1b565b5f81529056fe793d22417269616c2c73616e732d73657269662220666f6e742d73697a653d22a26469706673582212200dcb246fdee550a543b0d6ef920ddc483e320da119a02b5cfbb2f919f7db8c5e64736f6c634300081c0033",
  "linkReferences": {},
  "deployedLinkReferences": {}
}