{
  "_format": "hh-sol-artifact-1",
  "contractName": "PaymentNFT",
  "sourceName": "contracts/PaymentNFT.sol",
  "abi": [
    {
      "inputs": [],
      "stateMutability": "nonpayable",
      "type": "constructor"
    },
    {
      "inputs": [
        {
          "internalType": "address",
          "name": "sender",
          "type": "address"
        },
        {
          "internalType": "uint256",
          "name": "tokenId",
          "type": "uint256"
        },
        {
          "internalType": "address",
          "name": "owner",
          "type": "address"
        }
      ],
      "name": "ERC721IncorrectOwner",
      "type": "error"
    },
    {
      "inputs": [
        {
          "internalType": "address",
          "name": "operator",
          "type": "address"
        },
        {
          "internalType": "uint256",
          "name": "tokenId",
          "type": "uint256"
        }
      ],
      "name": "ERC721InsufficientApproval",
      "type": "error"
    },
    {
      "inputs": [
        {
          "internalType": "address",
          "name": "approver",
          "type": "address"
        }
      ],
      "name": "ERC721InvalidApprover",
      "type": "error"
    },
    {
      "inputs": [
        {
          "internalType": "address",
          "name": "operator",
          "type": "address"
        }
      ],
      "name": "ERC721InvalidOperator",
      "type": "error"
    },
    {
      "inputs": [
        {
          "internalType": "address",
          "name": "owner",
          "type": "address"
        }
      ],
      "name": "ERC721InvalidOwner",
      "type": "error"
    },
    {
      "inputs": [
        {
          "internalType": "address",
          "name": "receiver",
          "type": "address"
        }
      ],
      "name": "ERC721InvalidReceiver",
      "type": "error"
    },
    {
      "inputs": [
        {
          "internalType": "address",
          "name": "sender",
          "type": "address"
        }
      ],
      "name": "ERC721InvalidSender",
      "type": "error"
    },
    {
      "inputs": [
        {
          "internalType": "uint256",
          "name": "tokenId",
          "type": "uint256"
        }
      ],
      "name": "ERC721NonexistentToken",
      "type": "error"
    },
    {
      "anonymous": false,
      "inputs": [
        {
          "indexed": true,
          "internalType": "address",
          "name": "owner",
          "type": "address"
        },
        {
          "indexed": true,
          "internalType": "address",
          "name": "approved",
          "type": "address"
        },
        {
          "indexed": true,
          "internalType": "uint256",
          "name": "tokenId",
          "type": "uint256"
        }
      ],
      "name": "Approval",
      "type": "event"
    },
    {
      "anonymous": false,
      "inputs": [
        {
          "indexed": true,
          "internalType": "address",
          "name": "owner",
          "type": "address"
        },
        {
          "indexed": true,
          "internalType": "address",
          "name": "operator",
          "type": "address"
        },
        {
          "indexed": false,
          "internalType": "bool",
          "name": "approved",
          "type": "bool"
        }
      ],
      "name": "ApprovalForAll",
      "type": "event"
    },
    {
      "anonymous": false,
      "inputs": [
        {
          "indexed": true,
          "internalType": "address",
          "name": "merchant",
          "type": "address"
        },
        {
          "indexed": false,
          "internalType": "uint8",
          "name": "newCollectionId",
          "type": "uint8"
        }
      ],
      "name": "CollectionChanged",
      "type": "event"
    },
    {
      "anonymous": false,
      "inputs": [
        {
          "indexed": true,
          "internalType": "address",
          "name": "merchant",
          "type": "address"
        },
        {
          "indexed": false,
          "internalType": "string",
          "name": "name",
          "type": "string"
        },
        {
          "indexed": false,
          "internalType": "uint8",
          "name": "collectionId",
          "type": "uint8"
        }
      ],
      "name": "MerchantRegistered",
      "type": "event"
    },
    {
      "anonymous": false,
      "inputs": [
        {
          "indexed": true,
          "internalType": "address",
          "name": "buyer",
          "type": "address"
        },
        {
          "indexed": true,
          "internalType": "address",
          "name": "merchant",
          "type": "address"
        },
        {
          "indexed": false,
          "internalType": "uint256",
          "name": "amount",
          "type": "uint256"
        },
        {
          "indexed": false,
          "internalType": "uint256",
          "name": "tokenId",
          "type": "uint256"
        }
      ],
      "name": "PaymentMade",
      "type": "event"
    },
    {
      "anonymous": false,
      "inputs": [
        {
          "indexed": true,
          "internalType": "address",
          "name": "from",
          "type": "address"
        },
        {
          "indexed": true,
          "internalType": "address",
          "name": "to",
          "type": "address"
        },
        {
          "indexed": true,
          "internalType": "uint256",
          "name": "tokenId",
          "type": "uint256"
        }
      ],
      "name": "Transfer",
      "type": "event"
    },
    {
      "inputs": [],
      "name": "MIN_PAYMENT",
      "outputs": [
        {
          "internalType": "uint256",
          "name": "",
          "type": "uint256"
        }
      ],
      "stateMutability": "view",
      "type": "function"
    },
    {
      "inputs": [],
      "name": "USDC",
      "outputs": [
        {
          "internalType": "contract IERC20",
          "name": "",
          "type": "address"
        }
      ],
      "stateMutability": "view",
      "type": "function"
    },
    {
      "inputs": [
        {
          "internalType": "address",
          "name": "to",
          "type": "address"
        },
        {
          "internalType": "uint256",
          "name": "tokenId",
          "type": "uint256"
        }
      ],
      "name": "approve",
      "outputs": [],
      "stateMutability": "nonpayable",
      "type": "function"
    },
    {
      "inputs": [
        {
          "internalType": "address",
          "name": "owner",
          "type": "address"
        }
      ],
      "name": "balanceOf",
      "outputs": [
        {
          "internalType": "uint256",
          "name": "",
          "type": "uint256"
        }
      ],
      "stateMutability": "view",
      "type": "function"
    },
    {
      "inputs": [
        {
          "internalType": "address",
          "name": "",
          "type": "address"
        },
        {
          "internalType": "address",
          "name": "",
          "type": "address"
        }
      ],
      "name": "buyerMerchantStats",
      "outputs": [
        {
          "internalType": "uint256",
          "name": "paymentCount",
          "type": "uint256"
        },
        {
          "internalType": "uint256",
          "name": "totalAmountSpent",
          "type": "uint256"
        }
      ],
      "stateMutability": "view",
      "type": "function"
    },
    {
      "inputs": [
        {
          "internalType": "address",
          "name": "",
          "type": "address"
        }
      ],
      "name": "buyerTotalSpent",
      "outputs": [
        {
          "internalType": "uint256",
          "name": "",
          "type": "uint256"
        }
      ],
      "stateMutability": "view",
      "type": "function"
    },
    {
      "inputs": [
        {
          "internalType": "uint256",
          "name": "tokenId",
          "type": "uint256"
        }
      ],
      "name": "getApproved",
      "outputs": [
        {
          "internalType": "address",
          "name": "",
          "type": "address"
        }
      ],
      "stateMutability": "view",
      "type": "function"
    },
    {
      "inputs": [
        {
          "internalType": "address",
          "name": "buyer",
          "type": "address"
        }
      ],
      "name": "getBuyerStats",
      "outputs": [
        {
          "internalType": "uint256",
          "name": "totalSpentAllMerchants",
          "type": "uint256"
        },
        {
          "internalType": "uint256",
          "name": "uniqueMerchantCount",
          "type": "uint256"
        }
      ],
      "stateMutability": "view",
      "type": "function"
    },
    {
      "inputs": [
        {
          "internalType": "address",
          "name": "buyer",
          "type": "address"
        },
        {
          "internalType": "address",
          "name": "merchant",
          "type": "address"
        }
      ],
      "name": "getLoyaltyTier",
      "outputs": [
        {
          "internalType": "uint8",
          "name": "",
          "type": "uint8"
        }
      ],
      "stateMutability": "view",
      "type": "function"
    },
    {
      "inputs": [
        {
          "internalType": "address",
          "name": "merchant",
          "type": "address"
        }
      ],
      "name": "getMerchant",
      "outputs": [
        {
          "components": [
            {
              "internalType": "bool",
              "name": "registered",
              "type": "bool"
            },
            {
              "internalType": "string",
              "name": "name",
              "type": "string"
            },
            {
              "internalType": "string",
              "name": "category",
              "type": "string"
            },
            {
              "internalType": "string",
              "name": "description",
              "type": "string"
            },
            {
              "internalType": "string",
              "name": "websiteUrl",
              "type": "string"
            },
            {
              "internalType": "string",
              "name": "logoUrl",
              "type": "string"
            },
            {
              "internalType": "uint8",
              "name": "collectionId",
              "type": "uint8"
            },
            {
              "internalType": "uint256",
              "name": "totalPaymentsReceived",
              "type": "uint256"
            },
            {
              "internalType": "uint256",
              "name": "totalUsdcReceived",
              "type": "uint256"
            }
          ],
          "internalType": "struct PaymentNFT.Merchant",
          "name": "",
          "type": "tuple"
        }
      ],
      "stateMutability": "view",
      "type": "function"
    },
    {
      "inputs": [
        {
          "internalType": "address",
          "name": "buyer",
          "type": "address"
        },
        {
          "internalType": "address",
          "name": "merchant",
          "type": "address"
        }
      ],
      "name": "getPaymentCount",
      "outputs": [
        {
          "internalType": "uint256",
          "name": "",
          "type": "uint256"
        }
      ],
      "stateMutability": "view",
      "type": "function"
    },
    {
      "inputs": [
        {
          "internalType": "address",
          "name": "buyer",
          "type": "address"
        },
        {
          "internalType": "address",
          "name": "merchant",
          "type": "address"
        }
      ],
      "name": "getTotalSpent",
      "outputs": [
        {
          "internalType": "uint256",
          "name": "",
          "type": "uint256"
        }
      ],
      "stateMutability": "view",
      "type": "function"
    },
    {
      "inputs": [
        {
          "internalType": "address",
          "name": "buyer",
          "type": "address"
        },
        {
          "internalType": "address",
          "name": "merchant",
          "type": "address"
        }
      ],
      "name": "getWhaleTier",
      "outputs": [
        {
          "internalType": "uint8",
          "name": "",
          "type": "uint8"
        }
      ],
      "stateMutability": "view",
      "type": "function"
    },
    {
      "inputs": [
        {
          "internalType": "address",
          "name": "owner",
          "type": "address"
        },
        {
          "internalType": "address",
          "name": "operator",
          "type": "address"
        }
      ],
      "name": "isApprovedForAll",
      "outputs": [
        {
          "internalType": "bool",
          "name": "",
          "type": "bool"
        }
      ],
      "stateMutability": "view",
      "type": "function"
    },
    {
      "inputs": [
        {
          "internalType": "address",
          "name": "",
          "type": "address"
        }
      ],
      "name": "merchants",
      "outputs": [
        {
          "internalType": "bool",
          "name": "registered",
          "type": "bool"
        },
        {
          "internalType": "string",
          "name": "name",
          "type": "string"
        },
        {
          "internalType": "string",
          "name": "category",
          "type": "string"
        },
        {
          "internalType": "string",
          "name": "description",
          "type": "string"
        },
        {
          "internalType": "string",
          "name": "websiteUrl",
          "type": "string"
        },
        {
          "internalType": "string",
          "name": "logoUrl",
          "type": "string"
        },
        {
          "internalType": "uint8",
          "name": "collectionId",
          "type": "uint8"
        },
        {
          "internalType": "uint256",
          "name": "totalPaymentsReceived",
          "type": "uint256"
        },
        {
          "internalType": "uint256",
          "name": "totalUsdcReceived",
          "type": "uint256"
        }
      ],
      "stateMutability": "view",
      "type": "function"
    },
    {
      "inputs": [],
      "name": "name",
      "outputs": [
        {
          "internalType": "string",
          "name": "",
          "type": "string"
        }
      ],
      "stateMutability": "view",
      "type": "function"
    },
    {
      "inputs": [
        {
          "internalType": "uint256",
          "name": "tokenId",
          "type": "uint256"
        }
      ],
      "name": "ownerOf",
      "outputs": [
        {
          "internalType": "address",
          "name": "",
          "type": "address"
        }
      ],
      "stateMutability": "view",
      "type": "function"
    },
    {
      "inputs": [
        {
          "internalType": "address",
          "name": "merchant",
          "type": "address"
        },
        {
          "internalType": "uint256",
          "name": "amount",
          "type": "uint256"
        }
      ],
      "name": "payMerchant",
      "outputs": [],
      "stateMutability": "nonpayable",
      "type": "function"
    },
    {
      "inputs": [
        {
          "internalType": "string",
          "name": "name",
          "type": "string"
        },
        {
          "internalType": "string",
          "name": "category",
          "type": "string"
        },
        {
          "internalType": "string",
          "name": "description",
          "type": "string"
        },
        {
          "internalType": "string",
          "name": "websiteUrl",
          "type": "string"
        },
        {
          "internalType": "string",
          "name": "logoUrl",
          "type": "string"
        },
        {
          "internalType": "uint8",
          "name": "collectionId",
          "type": "uint8"
        }
      ],
      "name": "registerMerchant",
      "outputs": [],
      "stateMutability": "nonpayable",
      "type": "function"
    },
    {
      "inputs": [
        {
          "internalType": "address",
          "name": "from",
          "type": "address"
        },
        {
          "internalType": "address",
          "name": "to",
          "type": "address"
        },
        {
          "internalType": "uint256",
          "name": "tokenId",
          "type": "uint256"
        }
      ],
      "name": "safeTransferFrom",
      "outputs": [],
      "stateMutability": "nonpayable",
      "type": "function"
    },
    {
      "inputs": [
        {
          "internalType": "address",
          "name": "from",
          "type": "address"
        },
        {
          "internalType": "address",
          "name": "to",
          "type": "address"
        },
        {
          "internalType": "uint256",
          "name": "tokenId",
          "type": "uint256"
        },
        {
          "internalType": "bytes",
          "name": "data",
          "type": "bytes"
        }
      ],
      "name": "safeTransferFrom",
      "outputs": [],
      "stateMutability": "nonpayable",
      "type": "function"
    },
    {
      "inputs": [
        {
          "internalType": "address",
          "name": "operator",
          "type": "address"
        },
        {
          "internalType": "bool",
          "name": "approved",
          "type": "bool"
        }
      ],
      "name": "setApprovalForAll",
      "outputs": [],
      "stateMutability": "nonpayable",
      "type": "function"
    },
    {
      "inputs": [
        {
          "internalType": "uint8",
          "name": "collectionId",
          "type": "uint8"
        }
      ],
      "name": "setCollection",
      "outputs": [],
      "stateMutability": "nonpayable",
      "type": "function"
    },
    {
      "inputs": [
        {
          "internalType": "bytes4",
          "name": "interfaceId",
          "type": "bytes4"
        }
      ],
      "name": "supportsInterface",
      "outputs": [
        {
          "internalType": "bool",
          "name": "",
          "type": "bool"
        }
      ],
      "stateMutability": "view",
      "type": "function"
    },
    {
      "inputs": [],
      "name": "symbol",
      "outputs": [
        {
          "internalType": "string",
          "name": "",
          "type": "string"
        }
      ],
      "stateMutability": "view",
      "type": "function"
    },
    {
      "inputs": [
        {
          "internalType": "uint256",
          "name": "",
          "type": "uint256"
        }
      ],
      "name": "tokenInfos",
      "outputs": [
        {
          "internalType": "address",
          "name": "merchant",
          "type": "address"
        },
        {
          "internalType": "uint256",
          "name": "paymentCount",
          "type": "uint256"
        },
        {
          "internalType": "uint256",
          "name": "amountSpent",
          "type": "uint256"
        },
        {
          "internalType": "uint8",
          "name": "collectionId",
          "type": "uint8"
        }
      ],
      "stateMutability": "view",
      "type": "function"
    },
    {
      "inputs": [
        {
          "internalType": "uint256",
          "name": "tokenId",
          "type": "uint256"
        }
      ],
      "name": "tokenURI",
      "outputs": [
        {
          "internalType": "string",
          "name": "",
          "type": "string"
        }
      ],
      "stateMutability": "view",
      "type": "function"
    },
    {
      "inputs": [
        {
          "internalType": "address",
          "name": "from",
          "type": "address"
        },
        {
          "internalType": "address",
          "name": "to",
          "type": "address"
        },
        {
          "internalType": "uint256",
          "name": "tokenId",
          "type": "uint256"
        }
      ],
      "name": "transferFrom",
      "outputs": [],
      "stateMutability": "nonpayable",
      "type": "function"
    }
  ],
  "bytecode": "0x60806040523461031457604080519081016001600160401b0381118282101761022a576040908152600a82526914185e5b595b9d13919560b21b602083015280519081016001600160401b0381118282101761022a5760405260048152631413919560e21b602082015281516001600160401b03811161022a575f54600181811c9116801561030a575b602082101461020c57601f81116102a8575b50602092601f821160011461024957928192935f9261023e575b50508160011b915f199060031b1c1916175f555b80516001600160401b03811161022a57600154600181811c91168015610220575b602082101461020c57601f81116101a9575b50602091601f8211600114610149579181925f9261013e575b50508160011b915f199060031b1c1916176001555b600160065560405161381790816103198239f35b015190505f80610115565b601f1982169260015f52805f20915f5b85811061019157508360019510610179575b505050811b0160015561012a565b01515f1960f88460031b161c191690555f808061016b565b91926020600181928685015181550194019201610159565b60015f527fb10e2d527612073b26eecdfd717e6a320cf44b4afac2b0732d9fcbe2b7fa0cf6601f830160051c81019160208410610202575b601f0160051c01905b8181106101f757506100fc565b5f81556001016101ea565b90915081906101e1565b634e487b7160e01b5f52602260045260245ffd5b90607f16906100ea565b634e487b7160e01b5f52604160045260245ffd5b015190505f806100b5565b601f198216935f8052805f20915f5b8681106102905750836001959610610278575b505050811b015f556100c9565b01515f1960f88460031b161c191690555f808061026b565b91926020600181928685015181550194019201610258565b5f80527f290decd9548b62a8d60345a988386fc84ba6bc95484008f6362f93160ef3e563601f830160051c81019160208410610300575b601f0160051c01905b8181106102f5575061009b565b5f81556001016102e8565b90915081906102df565b90607f1690610089565b5f80fdfe60806040526004361015610011575f80fd5b5f3560e01c806294c6e714612a6457806301ffc9a7146129f657806306fdde0314612954578063081812fc14612918578063095ea7b31461282e5780632044a8d7146127d357806323b872dd146127bc57806327599df91461278557806327b47b1c1461273557806329b75b74146121525780633e20b68d1461209457806342842e0e1461206557806342f944761461201d5780636352211e14611fed57806365d15bdd1461182257806370a08231146117d15780637c13774b1461177a57806389a302711461174c57806395d89b411461166e578063a22cb465146115b1578063b2734eaf146113f0578063b88d4fde14611383578063c87b56dd1461034c578063ce270286146102f9578063e985e9c5146102a2578063eb566e9114610285578063ee14e939146101885763fe0891561461014c575f80fd5b34610184576020366003190112610184576001600160a01b0361016d612a90565b165f526009602052602060405f2054604051908152f35b5f80fd5b34610184576020366003190112610184576001600160a01b036101a9612a90565b165f52600760205261012060405f2060ff815416906101ca60018201612c28565b6101d660028301612c28565b916102706101e660038301612c28565b6102626101f560048501612c28565b61025461020460058701612c28565b9361024660ff60068901541699610238600860078b01549a01549a6040519e8f9e8f90151581528160208201520190612abc565b8c810360408e015290612abc565b908a820360608c0152612abc565b9088820360808a0152612abc565b9086820360a0880152612abc565b9260c085015260e08401526101008301520390f35b34610184575f366003190112610184576020604051620186a08152f35b34610184576040366003190112610184576102bb612a90565b6102c3612aa6565b9060018060a01b03165f52600560205260405f209060018060a01b03165f52602052602060ff60405f2054166040519015158152f35b3461018457604036600319011261018457610312612a90565b61031a612aa6565b6001600160a01b039182165f908152600860209081526040808320949093168252928352819020600101549051908152f35b346101845760203660031901126101845760043561036981612f44565b50805f52600c60205260405f20906040519061038482612b47565b60ff600360018060a01b0385541694858552600181015460208601526002810154604086015201541692606083019384525f526007602052602060405f20926040516103cf81612b62565b60ff8554161515815261010060086103e960018801612c28565b968584019788526103fc60028201612c28565b604085015261040d60038201612c28565b606085015261041e60048201612c28565b608085015261042f60058201612c28565b60a085015260ff60068201541660c0850152600781015460e0850152015491015261045c828201516130ae565b9361046a60408301516130c8565b815161047960ff89511661346d565b60ff8993929316916002831492835f14611361575061049661368b565b925b15611347576105a860036040516104b0606082612b7e565b602481527f3c636972636c652063793d222d33352220723d2235222066696c6c3d222366668b820152633311179f60e11b60408201525b600b6040519b8c926066828086019a7f3c7061746820643d224d2d34302c3230204c2d34302c2d3230204c2d32302c308c527f204c302c2d3330204c32302c30204c34302c2d3230204c34302c3230205a22206040880152653334b6361e9160d11b60608801528a5180838d01858a015e8701906a111037b830b1b4ba3c9e9160a91b84830152805192839101607183015e0101906211179f60e91b84830152805192839101600e83015e01015f838201520301601f1981018a5289612b7e565b6105b18a6132ba565b9160ff86166002811490815f1461132557506105cb61368b565b905b1561130e576040516105e0608082612b7e565b604181527f3c7061746820643d224d302c2d3230204c31352c30204c302c3230204c2d313560208201527f2c30205a222066696c6c3d222366666622206f7061636974793d22302e35222f6040820152601f60f91b6060820152905b604051918291602083017f3c7061746820643d224d302c2d3430204c33352c30204c302c3430204c2d333590526b1618102d11103334b6361e9160a11b604084015284518060208701604c86015e83016a111037b830b1b4ba3c9e9160a91b604c82015281516020819301605783015e01604c016211179f60e91b600b82015281516020819301600e83015e01600b01600381015f905203600301601f19810182526106e89082612b7e565b6106f187613337565b9060208a01516107009061314d565b9460408b015161070f906133b6565b966040519c8d9960208b017f3c73766720786d6c6e733d22687474703a2f2f7777772e77332e6f72672f3230905260408b017f30302f737667222076696577426f783d223020302034303020343030223e00009052605e8b017f3c726563742077696474683d2234303022206865696768743d2234303022206690526434b6361e9160d91b607e8c01528051602081920160838d015e6211179f60e91b6083918c0191820152651e3232b3399f60d11b60868201527f3c6c696e6561724772616469656e742069643d2267726164222078313d223025608c8201527f222079313d223025222078323d2231303025222079323d2231303025223e000060ac8201527f3c73746f70206f66667365743d22302522207374796c653d2273746f702d636f60ca820152633637b91d60e11b60ea820152865190816020890160ee83015e741db9ba37b816b7b830b1b4ba3c9d1817191110179f60591b60ee92909101918201527f3c73746f70206f66667365743d223130302522207374796c653d2273746f702d6101038201527f636f6c6f723a233030303b73746f702d6f7061636974793a302e3522202f3e00610123820152701e17b634b732b0b923b930b234b2b73a1f60791b610142820152661e17b232b3399f60c91b6101538201527f3c726563742077696474683d2234303022206865696768743d2234303022206661015a8201527134b6361e913ab9361411b3b930b21491179f60711b61017a8201527f3c67207472616e73666f726d3d227472616e736c617465283130302c2032303061018c8201526214911f60e91b6101ac82015290519160838201918391906101af015e01606b01721e3a32bc3a103c9e911c1811103334b6361e9160691b60c1820152845190816020870160d483015e7f2220666f6e742d66616d696c793d22417269616c2220666f6e742d73697a653d60d492909101918201527f2231342220746578742d616e63686f723d226d6964646c652220666f6e742d7760f48201527f65696768743d22626f6c64223e4c4f59414c54593c2f746578743e0000000000610114820152610a269061012f016130e3565b81516020819301825e661e17ba32bc3a1f60c91b9101908152631e17b39f60e11b60078201527f3c67207472616e73666f726d3d227472616e736c617465283330302c20323030600b8201526214911f60e91b602b8201528151918290602001602e83015e01721e3a32bc3a103c9e911c1811103334b6361e9160691b602e8201528251908160208501604183015e7f2220666f6e742d66616d696c793d22417269616c2220666f6e742d73697a653d604192909101918201527f2231342220746578742d616e63686f723d226d6964646c652220666f6e742d7760618201527f65696768743d22626f6c64223e5748414c453c2f746578743e000000000000006081820152610b3890609a016130e3565b81516020819301825e661e17ba32bc3a1f60c91b9101908152631e17b39f60e11b60078201527f3c6c696e652078313d22323030222079313d223830222078323d223230302220600b820152703c991e91199918111039ba3937b5b29e9160791b602b8201528151918290602001603c83015e7f22207374726f6b652d77696474683d223122207374726f6b652d646173686172603c9290910191820152683930bc9e911a11179f60b91b605c8201527f3c7465787420783d223230302220793d223530222066696c6c3d22236666662260658201527f20666f6e742d66616d696c793d22417269616c2220666f6e742d73697a653d2260858201527f32342220746578742d616e63686f723d226d6964646c652220666f6e742d776560a58201526b34b3b43a1e913137b632111f60a11b60c5820152815191829060200160d183015e661e17ba32bc3a1f60c91b60d192909101918201527f3c7265637420783d2235302220793d22333430222077696474683d223330302260d88201527f206865696768743d223430222072783d223130222066696c6c3d22233030302260f88201526f1037b830b1b4ba3c9e9118171991179f60811b6101188201527f3c7465787420783d223230302220793d22333635222066696c6c3d22236161616101288201527f2220666f6e742d66616d696c793d22417269616c2220666f6e742d73697a653d6101488201527f2231322220746578742d616e63686f723d226d6964646c65223e000000000000610168820152815191603c820191839160200190610182015e0160950160b181016b0102830bcb6b2b73a39903e160a51b90528151602081930160bd83015e6a081554d110c8151bdd185b60aa1b910160bd810191909152661e17ba32bc3a1f60c91b60c8820152651e17b9bb339f60d11b60cf8201520360b581018552610df19060d50185612b7e565b815194610dfd9061314d565b95825194610e0a906136ac565b925197519760405160c081018181106001600160401b038211176112fa576040526040998a51610e3a8c82612b7e565b6006815265436f736d696360d01b602082015282528a51610e5b8c82612b7e565b600781526653616d7572616960c81b602082015260208301528a51610e808c82612b7e565b60068152654e617475726560d01b60208201528b8301528a51610ea38c82612b7e565b6009815268437962657270756e6b60b81b602082015260608301528a51610eca8c82612b7e565b6005815264149bde585b60da1b602082015260808301528a51610eed8c82612b7e565b600581526427b1b2b0b760d91b602082015260a0830152600660ff821610156112e65760051b611fe016015191610f23906132ba565b92610f2d90613337565b936020860151610f3c9061314d565b9560400151610f4a906133b6565b968a51998a99683d913730b6b2911d1160b91b60208c01528051602081920160298d015e8a016029810169204c6f79616c7479202360b01b905281516020819301603383015e0160290161088b60f21b600a820152600c81017f226465736372697074696f6e223a224578636c7573697665206c6f79616c74799052602c81016801027232a103337b9160bd1b905281516020819301603583015e01600a016c0818dd5cdd1bdb595c9ccb888b609a1b602b820152603881017f22696d616765223a22646174613a696d6167652f7376672b786d6c3b62617365905260588101620d8d0b60ea1b905281516020819301605b83015e01602b0161088b60f21b60308201526d2261747472696275746573223a5b60901b60328201528981017f7b2274726169745f74797065223a224d65726368616e74204e616d65222c227690526630b63ab2911d1160c91b606082015281516020819301606783015e0160300162089f4b60ea1b6037820152603a81017f7b2274726169745f74797065223a22436f6c6c656374696f6e222c2276616c7590526332911d1160e11b605a82015281516020819301605e83015e0160370162089f4b60ea1b6027820152602a81017f7b2274726169745f74797065223a224c6f79616c74792054696572222c227661905265363ab2911d1160d11b604a82015281516020819301605083015e0160270162089f4b60ea1b6029820152602c81017f7b2274726169745f74797065223a225768616c652054696572222c2276616c7590526332911d1160e11b604c82015281516020819301605083015e0160290162089f4b60ea1b6027820152602a81017f7b2274726169745f74797065223a225061796d656e7420436f756e74222c227690526530b63ab2911d60d11b604a82015281516020819301605083015e0160270160298101611f4b60f21b9052602b81017f7b2274726169745f74797065223a22546f74616c205370656e742028696e205590526e29a221949116113b30b63ab2911d1160891b604b82015281516020819301605a83015e0160290163227d5d7d60e01b603182015203603101601b198101825260040161126f9082612b7e565b611278906136ac565b9080518092602082017f646174613a6170706c69636174696f6e2f6a736f6e3b6261736536342c000000905280516020819201603d84015e8101603d81015f905203603d01601f19810183526112ce9083612b7e565b51809160208252602082016112e291612abc565b0390f35b634e487b7160e01b5f52603260045260245ffd5b634e487b7160e01b5f52604160045260245ffd5b60405161131c602082612b7e565b5f81529061063c565b60010361133a5761133461366a565b906105cd565b611342613649565b611334565b6105a860036040516113598b82612b7e565b5f81526104e7565b6001036113765761137061366a565b92610498565b61137e613649565b611370565b346101845760803660031901126101845761139c612a90565b6113a4612aa6565b90604435606435926001600160401b0384116101845736602385011215610184576113dc6113ee943690602481600401359101612bba565b926113e8838383612d27565b33612f78565b005b3461018457602036600319011261018457611409612a90565b60405161141581612b62565b5f8152602081016060905260408101606090526060810160609052608081016060905260a081016060905260c081015f905260e081015f9052610100015f9052600160a01b60019003165f52600760205260405f2060405161147681612b62565b815460ff161515815261148b60018301612c28565b602082019081529161149f60028201612c28565b604083019081526114b260038301612c28565b60608401908152916114c660048201612c28565b608085019081526114d960058301612c28565b9060a08601918252600683015460ff169460c0870195865260078401549360e088019485526008015494610100880195865260405198899860208a5251151560208a015251604089016101209052610140890161153591612abc565b9051888203601f190160608a015261154d9190612abc565b9051878203601f190160808901526115659190612abc565b9051868203601f190160a088015261157d9190612abc565b9051858203601f190160c08701526115959190612abc565b925160ff1660e085015251610100840152516101208301520390f35b34610184576040366003190112610184576115ca612a90565b602435908115159081830361018457331561165b576001600160a01b03169182156116485761161a90335f52600560205260405f20845f5260205260405f209060ff801983541691151516179055565b6040519081527f17307eab39ab6107e8899845ad3d59bd9653f200f220920489ca2b5937696c3160203392a3005b82630b61174360e31b5f5260045260245ffd5b63a9fbf51f60e01b5f525f60045260245ffd5b34610184575f366003190112610184576040515f60015461168e81612bf0565b808452906001811690811561172857506001146116ca575b6112e2836116b681850382612b7e565b604051918291602083526020830190612abc565b60015f9081527fb10e2d527612073b26eecdfd717e6a320cf44b4afac2b0732d9fcbe2b7fa0cf6939250905b80821061170e575090915081016020016116b66116a6565b9192600181602092548385880101520191019092916116f6565b60ff191660208086019190915291151560051b840190910191506116b690506116a6565b34610184575f366003190112610184576020604051733c499c542cef5e3811e1192ce70d8cc03d5c33598152f35b34610184576020366003190112610184576004355f52600c602052608060405f2060018060a01b038154169060018101549060ff600360028301549201541691604051938452602084015260408301526060820152f35b34610184576020366003190112610184576001600160a01b036117f2612a90565b16801561180f575f526003602052602060405f2054604051908152f35b6322718ad960e21b5f525f60045260245ffd5b346101845760c0366003190112610184576004356001600160401b03811161018457611852903690600401612b1a565b6024356001600160401b03811161018457611871903690600401612b1a565b6044939193356001600160401b03811161018457611893903690600401612b1a565b90916064356001600160401b038111610184576118b4903690600401612b1a565b6084939193356001600160401b038111610184576118d6903690600401612b1a565b989060a4359660ff881680980361018457335f52600760205260ff60405f205416611fb35760019661195461196392611945611972966119368f8f908f6005611920911115612f00565b6040519e8f61192e81612b62565b523691612bba565b9a60208d019b8c523691612bba565b9760408b019889523691612bba565b94606089019586523691612bba565b99608087019a8b523691612bba565b9760a0850198895260c085019186835260e08601935f85526101008701955f8752335f5260076020526119b860405f2098511515899060ff801983541691151516179055565b51805160018901916001600160401b0382116112fa5781906119da8454612bf0565b601f8111611f63575b50602090601f8311600114611f00575f92611ef5575b50508160011b915f199060031b1c19161790555b51805160028801916001600160401b0382116112fa578190611a2f8454612bf0565b601f8111611ea5575b50602090601f8311600114611e42575f92611e37575b50508160011b915f199060031b1c19161790555b51805160038701916001600160401b0382116112fa578190611a848454612bf0565b601f8111611de7575b50602090601f8311600114611d84575f92611d79575b50508160011b915f199060031b1c19161790555b51805160048601916001600160401b0382116112fa578190611ad98454612bf0565b601f8111611d29575b50602090601f8311600114611cc6575f92611cbb575b50508160011b915f199060031b1c19161790555b6005840197519788516001600160401b0381116112fa57611b2d8254612bf0565b601f8111611c76575b506020601f8211600114611bea57918160089695949260ff947f296eab2a3361119b10f6036f5c8b5f5a6b433cf7642615cfa6a3df245ab094709c9d5f92611bdf575b50508160011b915f199060031b1c19161790555b511660ff60068601911660ff198254161790555160078401555191015583604051926040845281604085015260608401375f6060858401015260208201526060813394601f80199101168101030190a2005b015190508d80611b79565b601f1982169a835f52815f209b5f5b818110611c5e5750927f296eab2a3361119b10f6036f5c8b5f5a6b433cf7642615cfa6a3df245ab094709b9c60ff95936001938360089b9a999710611c46575b505050811b019055611b8d565b01515f1960f88460031b161c191690558d8080611c39565b838301518e556001909d019c60209384019301611bf9565b825f5260205f20601f830160051c81019160208410611cb1575b601f0160051c01905b818110611ca65750611b36565b5f8155600101611c99565b9091508190611c90565b015190508b80611af8565b5f8581528281209350601f198516905b818110611d115750908460019594939210611cf9575b505050811b019055611b0c565b01515f1960f88460031b161c191690558b8080611cec565b92936020600181928786015181550195019301611cd6565b909150835f5260205f20601f840160051c81019160208510611d6f575b90601f859493920160051c01905b818110611d615750611ae2565b5f8155849350600101611d54565b9091508190611d46565b015190508c80611aa3565b5f8581528281209350601f198516905b818110611dcf5750908460019594939210611db7575b505050811b019055611ab7565b01515f1960f88460031b161c191690558c8080611daa565b92936020600181928786015181550195019301611d94565b909150835f5260205f20601f840160051c81019160208510611e2d575b90601f859493920160051c01905b818110611e1f5750611a8d565b5f8155849350600101611e12565b9091508190611e04565b015190508d80611a4e565b5f8581528281209350601f198516905b818110611e8d5750908460019594939210611e75575b505050811b019055611a62565b01515f1960f88460031b161c191690558d8080611e68565b92936020600181928786015181550195019301611e52565b909150835f5260205f20601f840160051c81019160208510611eeb575b90601f859493920160051c01905b818110611edd5750611a38565b5f8155849350600101611ed0565b9091508190611ec2565b015190508e806119f9565b5f8581528281209350601f198516905b818110611f4b5750908460019594939210611f33575b505050811b019055611a0d565b01515f1960f88460031b161c191690558e8080611f26565b92936020600181928786015181550195019301611f10565b909150835f5260205f20601f840160051c81019160208510611fa9575b90601f859493920160051c01905b818110611f9b57506119e3565b5f8155849350600101611f8e565b9091508190611f80565b60405162461bcd60e51b8152602060048201526012602482015271105b1c9958591e481c9959da5cdd195c995960721b6044820152606490fd5b3461018457602036600319011261018457602061200b600435612f44565b6040516001600160a01b039091168152f35b346101845760203660031901126101845760406001600160a01b03612040612a90565b16805f526009602052815f2054905f52600a602052815f205482519182526020820152f35b34610184576113ee61207636612ae0565b9060405192612086602085612b7e565b5f84526113e8838383612d27565b346101845760203660031901126101845760043560ff811680910361018457335f52600760205260ff60405f2054161561211c576120d56005821115612f00565b335f526007602052600660405f20018160ff198254161790556040519081527f11fedc80e6be6aabd83785ba727a9575ab9c29ce831231e01e093c3e155840dd60203392a2005b60405162461bcd60e51b815260206004820152600e60248201526d139bdd0818481b595c98da185b9d60921b6044820152606490fd5b346101845760403660031901126101845761216b612a90565b6001600160a01b03165f81815260076020526040902054602435919060ff16156126f057620186a082106126b3576040516323b872dd60e01b81523360048201528160248201528260448201526020816064815f733c499c542cef5e3811e1192ce70d8cc03d5c33595af19081156126a8575f9161266d575b501561263157805f526007602052600760405f2001805490600182018092116125b05755805f526007602052600860405f2001612222838254612ef3565b9055335f52600860205260405f20815f5260205260405f20805490600182018092116125b05755335f52600860205260405f20815f52602052600160405f200161226d838254612ef3565b9055335f52600960205260405f20612286838254612ef3565b9055335f52600b60205260405f20815f5260205260ff60405f205416156125c4575b600654915f1983146125b05760018301600655335f52600860205260405f20825f5260205260405f2054335f52600860205260405f20835f5260205260ff600381600160405f200154865f52600760205281600660405f20015416906040519561231187612b47565b888752602087019081526040870191825260608701928352895f52600c60205260405f209660018060a01b039060018060a01b03905116166001600160601b0360a01b88541617875551600187015551600286015551169201911660ff198254161790556020926040516123858582612b7e565b5f8152331561259d575f8281526002865260409020546001600160a01b0316801515908161256c575b335f8181526003895260408082208054600101905586825260028a52812080546001600160a01b0319168317905585919083907fddf252ad1be2c89b69c2b068fc378daa952ba7f163c4a11628f55a4df523b3ef9080a45061255957333b612444575b50836040519283528201527f1f004c54eef332ef6912dae8f1775c102da23bec79ccf602eaaa072938e96b6760403392a3005b8461247d9160405180938192630a85bd0160e11b83523360048401525f6024840152866044840152608060648401526084830190612abc565b03815f335af15f9181612519575b506124df57843d156124d7573d906124a282612b9f565b916124b06040519384612b7e565b82523d5f8284013e5b815191826124d457633250574960e11b5f523360045260245ffd5b01fd5b6060906124b9565b929391929091906001600160e01b03191663757a42ff60e11b016125065792919084612411565b633250574960e11b5f523360045260245ffd5b9091508581813d8311612552575b6125318183612b7e565b8101031261018457516001600160e01b03198116810361018457908661248b565b503d612527565b6339e3563760e11b5f525f60045260245ffd5b5f8481526004602052604080822080546001600160a01b031916905582825260038952902080545f190190556123ae565b633250574960e11b5f525f60045260245ffd5b634e487b7160e01b5f52601160045260245ffd5b335f52600b60205260405f20815f5260205260405f20600160ff19825416179055335f52600a60205260405f20805490680100000000000000008210156112fa57600182018082558210156112e6575f5260205f2001816001600160601b0360a01b8254161790556122a8565b60405162461bcd60e51b81526020600482015260146024820152731554d110c81d1c985b9cd9995c8819985a5b195960621b6044820152606490fd5b90506020813d6020116126a0575b8161268860209383612b7e565b810103126101845751801515810361018457836121e4565b3d915061267b565b6040513d5f823e3d90fd5b60405162461bcd60e51b815260206004820152601560248201527410995b1bddc81b5a5b9a5b5d5b481c185e5b595b9d605a1b6044820152606490fd5b60405162461bcd60e51b815260206004820152601760248201527f4d65726368616e74206e6f7420726567697374657265640000000000000000006044820152606490fd5b346101845760403660031901126101845761274e612a90565b612756612aa6565b6001600160a01b039182165f908152600860209081526040808320949093168252928352819020549051908152f35b346101845760403660031901126101845760206127b16127a3612a90565b6127ab612aa6565b90612eaf565b60ff60405191168152f35b34610184576113ee6127cd36612ae0565b91612d27565b34610184576040366003190112610184576127ec612a90565b6127f4612aa6565b9060018060a01b03165f52600860205260405f209060018060a01b03165f526020526040805f206001815491015482519182526020820152f35b3461018457604036600319011261018457612847612a90565b60243561285381612f44565b33151580612905575b806128d8575b6128c55781906001600160a01b0384811691167f8c5be1e5ebec7d5bd14f71427d1e84f3dd0314c0f7b2291e5b200ac8c7c3b9255f80a45f90815260046020526040902080546001600160a01b0319166001600160a01b03909216919091179055005b63a9fbf51f60e01b5f523360045260245ffd5b506001600160a01b0381165f90815260056020908152604080832033845290915290205460ff1615612862565b506001600160a01b03811633141561285c565b346101845760203660031901126101845760043561293581612f44565b505f526004602052602060018060a01b0360405f205416604051908152f35b34610184575f366003190112610184576040515f5f5461297381612bf0565b8084529060018116908115611728575060011461299a576112e2836116b681850382612b7e565b5f8080527f290decd9548b62a8d60345a988386fc84ba6bc95484008f6362f93160ef3e563939250905b8082106129dc575090915081016020016116b66116a6565b9192600181602092548385880101520191019092916129c4565b346101845760203660031901126101845760043563ffffffff60e01b8116809103610184576020906380ac58cd60e01b8114908115612a53575b8115612a42575b506040519015158152f35b6301ffc9a760e01b14905082612a37565b635b5e139f60e01b81149150612a30565b346101845760403660031901126101845760206127b1612a82612a90565b612a8a612aa6565b90612cc8565b600435906001600160a01b038216820361018457565b602435906001600160a01b038216820361018457565b805180835260209291819084018484015e5f828201840152601f01601f1916010190565b6060906003190112610184576004356001600160a01b038116810361018457906024356001600160a01b0381168103610184579060443590565b9181601f84011215610184578235916001600160401b038311610184576020838186019501011161018457565b608081019081106001600160401b038211176112fa57604052565b61012081019081106001600160401b038211176112fa57604052565b90601f801991011681019081106001600160401b038211176112fa57604052565b6001600160401b0381116112fa57601f01601f191660200190565b929192612bc682612b9f565b91612bd46040519384612b7e565b829481845281830111610184578281602093845f960137010152565b90600182811c92168015612c1e575b6020831014612c0a57565b634e487b7160e01b5f52602260045260245ffd5b91607f1691612bff565b9060405191825f825492612c3b84612bf0565b8084529360018116908115612ca65750600114612c62575b50612c6092500383612b7e565b565b90505f9291925260205f20905f915b818310612c8a575050906020612c60928201015f612c53565b6020919350806001915483858901015201910190918492612c71565b905060209250612c6094915060ff191682840152151560051b8201015f612c53565b60018060a01b03165f52600860205260405f209060018060a01b03165f52602052600160405f2001546305f5e100811015612d215763017d7840811015612d1b57620f42401115612d17575f90565b5f90565b50600190565b50600290565b6001600160a01b039091169190821561259d575f828152600260205260409020546001600160a01b031692829033151580612e1a575b5084612de7575b805f52600360205260405f2060018154019055815f52600260205260405f20816001600160601b0360a01b825416179055847fddf252ad1be2c89b69c2b068fc378daa952ba7f163c4a11628f55a4df523b3ef5f80a46001600160a01b0316808303612dcf57505050565b6364283d7b60e01b5f5260045260245260445260645ffd5b5f82815260046020526040902080546001600160a01b0319169055845f52600360205260405f205f198154019055612d64565b90915080612e5e575b15612e305782905f612d5d565b8284612e4857637e27328960e01b5f5260045260245ffd5b63177e802f60e01b5f523360045260245260445ffd5b503384148015612e8d575b80612e2357505f838152600460205260409020546001600160a01b03163314612e23565b505f84815260056020908152604080832033845290915290205460ff16612e69565b60018060a01b03165f52600860205260405f209060018060a01b03165f5260205260405f20546032811015612d2157600a811015612d1b5760011115612d17575f90565b919082018092116125b057565b15612f0757565b60405162461bcd60e51b8152602060048201526015602482015274125b9d985b1a590818dbdb1b1958dd1a5bdb881251605a1b6044820152606490fd5b5f818152600260205260409020546001600160a01b0316908115612f66575090565b637e27328960e01b5f5260045260245ffd5b823b612f86575b5050505050565b604051630a85bd0160e11b81526001600160a01b039182166004820152918116602483015260448201939093526080606482015291169160209082908190612fd2906084830190612abc565b03815f865af15f9181613069575b5061303557503d1561302e573d612ff681612b9f565b906130046040519283612b7e565b81523d5f602083013e5b805190816130295782633250574960e11b5f5260045260245ffd5b602001fd5b606061300e565b6001600160e01b03191663757a42ff60e11b0161305757505f80808080612f7f565b633250574960e11b5f5260045260245ffd5b9091506020813d6020116130a6575b8161308560209383612b7e565b8101031261018457516001600160e01b03198116810361018457905f612fe0565b3d9150613078565b6032811015612d2157600a11156130c3575f90565b600190565b6305f5e100811015612d215763017d784011156130c3575f90565b7f3c7465787420793d22313030222066696c6c3d22236666662220666f6e742d6681527f616d696c793d22417269616c2220666f6e742d73697a653d22313822207465786020820152713a16b0b731b437b91e9136b4b2323632911f60711b604082015260520190565b805f9172184f03e93ff9f4daa797ed6e38ed64bf6a1f0160401b821015613297575b806d04ee2d6d415b85acef8100000000600a92101561327c575b662386f26fc10000811015613268575b6305f5e100811015613257575b612710811015613248575b606481101561323a575b101561322f575b600a602160018401936131d485612b9f565b946131e26040519687612b7e565b8086526131f1601f1991612b9f565b013660208701378401015b5f1901916f181899199a1a9b1b9c1cb0b131b232b360811b8282061a835304801561322a57600a90916131fc565b505090565b6001909101906131c2565b6064600291049301926131bb565b612710600491049301926131b1565b6305f5e100600891049301926131a6565b662386f26fc1000060109104930192613199565b6d04ee2d6d415b85acef810000000060209104930192613189565b506040915072184f03e93ff9f4daa797ed6e38ed64bf6a1f0160401b810461316f565b60ff1660028114613314576001146132f0576040516132da604082612b7e565b600681526542726f6e7a6560d01b602082015290565b6040516132fe604082612b7e565b600681526529b4b63b32b960d11b602082015290565b50604051613323604082612b7e565b600481526311dbdb1960e21b602082015290565b60ff16600281146133905760011461336d57604051613357604082612b7e565b600681526521b7b83832b960d11b602082015290565b60405161337b604082612b7e565b60058152641419585c9b60da1b602082015290565b5060405161339f604082612b7e565b6007815266111a585b5bdb9960ca1b602082015290565b61344f6020916001836133d4620f424061271081860604940461314d565b92600a8110156134525781806134036040516133f1604082612b7e565b868152600360fc1b838201529361314d565b9260405198878a985191829101848a015e870190601760f91b83830152805192839101602183015e0101908382015f8152815193849201905e01015f815203601f198101835282612b7e565b90565b81806134036040516134648382612b7e565b5f81529361314d565b60ff16801561360057600181146135b7576002811461356e5760038114613525576004146134dd576040516134a3604082612b7e565b60078152662330323044314160c81b6020820152906040516134c6604082612b7e565b60078152661198181b9ba11b60c91b602082015290565b6040516134eb604082612b7e565b60078152662331413044324560c81b60208201529060405161350e604082612b7e565b60078152660234441413532360cc1b602082015290565b50604051613534604082612b7e565b60078152660233035303531360cc1b602082015290604051613557604082612b7e565b60078152661198182323232360c91b602082015290565b5060405161357d604082612b7e565b60078152662330413146304160c81b6020820152906040516135a0604082612b7e565b600781526608cc910d904c9160ca1b602082015290565b506040516135c6604082612b7e565b60078152662331413041304160c81b6020820152906040516135e9604082612b7e565b60078152660234343323230360cc1b602082015290565b5060405161360f604082612b7e565b60078152661198221822192160c91b602082015290604051613632604082612b7e565b60078152662337423246424560c81b602082015290565b60405190613658604083612b7e565b6003825262302e3360e81b6020830152565b60405190613679604083612b7e565b600382526218171b60e91b6020830152565b6040519061369a604083612b7e565b60038252620312e360ec1b6020830152565b908151156137cb578151600281018091116125b05760039004600281901b91906001600160fe1b038116036125b057604051917f4142434445464748494a4b4c4d4e4f505152535455565758595a616263646566601f527f6768696a6b6c6d6e6f707172737475767778797a303132333435363738392b2f603f52602083018480518101602081018051915f82525b80891061378f575060209596975090600392915251068060011461377a5760021461376d575b50808452830101604052565b603d905f1901535f613761565b50603d90815f1982015360011901535f613761565b939760036004910198603f8a51818160121c165183538181600c1c16516001840153818160061c1651600284015316516003820153019361373b565b90506040516137db602082612b7e565b5f81529056fea2646970667358221220f30fa4dff01e60e539c8e8ec93526dbd6ee53927b5a5dd4418a110d703ab49c564736f6c634300081c0033",
  "linkReferences": {},
  "deployedLinkReferences": {}
}